{
  "abi": [
    {
      "inputs": [
        {
          "internalType": "address",
          "name": "_owner",
          "type": "address"
        },
        {
          "internalType": "address",
          "name": "_router",
          "type": "address"
        },
        {
          "internalType": "address",
          "name": "_link",
          "type": "address"
        }
      ],
      "stateMutability": "nonpayable",
      "type": "constructor"
    },
    {
      "inputs": [],
      "name": "ENTER_YOUR_ADDRESS",
      "type": "error"
    },
    {
      "inputs": [],
      "name": "FAILED_TO_BORROW",
      "type": "error"
    },
    {
      "inputs": [],
      "name": "FAILED_TO_LEND",
      "type": "error"
    },
    {
      "inputs": [],
      "name": "FAILED_TO_REPAY",
      "type": "error"
    },
    {
      "inputs": [],
      "name": "FAILED_TO_WITHDRAW",
      "type": "error"
    },
    {
      "inputs": [],
      "name": "NEED_TO_SEND_SOME_TOKENS",
      "type": "error"
    },
    {
      "inputs": [],
      "name": "ONLY_OWNER_CALL_THIS_FUNCTION",
      "type": "error"
    },
    {
      "inputs": [],
      "name": "TOKEN_NOT_SUPPORTED",
      "type": "error"
    },
    {
      "inputs": [],
      "name": "TOO_MUCH_INTEREST",
      "type": "error"
    },
    {
      "anonymous": false,
      "inputs": [
        {
          "indexed": false,
          "internalType": "bytes32",
          "name": "messageId",
          "type": "bytes32"
        }
      ],
      "name": "BorrowMessageSent",
      "type": "event"
    },
    {
      "anonymous": false,
      "inputs": [
        {
          "indexed": false,
          "internalType": "address",
          "name": "token",
          "type": "address"
        },
        {
          "indexed": false,
          "internalType": "uint256",
          "name": "amount",
          "type": "uint256"
        }
      ],
      "name": "BorrowedToken",
      "type": "event"
    },
    {
      "anonymous": false,
      "inputs": [
        {
          "indexed": false,
          "internalType": "bytes32",
          "name": "messageId",
          "type": "bytes32"
        }
      ],
      "name": "LendMessageSent",
      "type": "event"
    },
    {
      "anonymous": false,
      "inputs": [
        {
          "indexed": false,
          "internalType": "bytes32",
          "name": "messageId",
          "type": "bytes32"
        }
      ],
      "name": "RePayMessageSent",
      "type": "event"
    },
    {
      "anonymous": false,
      "inputs": [
        {
          "indexed": false,
          "internalType": "bytes32",
          "name": "messageId",
          "type": "bytes32"
        }
      ],
      "name": "RemoveLendMessageSent",
      "type": "event"
    },
    {
      "anonymous": false,
      "inputs": [
        {
          "indexed": false,
          "internalType": "address",
          "name": "token",
          "type": "address"
        },
        {
          "indexed": false,
          "internalType": "uint256",
          "name": "amount",
          "type": "uint256"
        }
      ],
      "name": "RemovedLend",
      "type": "event"
    },
    {
      "inputs": [
        {
          "internalType": "address",
          "name": "",
          "type": "address"
        }
      ],
      "name": "allowedToken",
      "outputs": [
        {
          "internalType": "bool",
          "name": "",
          "type": "bool"
        }
      ],
      "stateMutability": "view",
      "type": "function"
    },
    {
      "inputs": [
        {
          "internalType": "address",
          "name": "_user",
          "type": "address"
        },
        {
          "internalType": "address",
          "name": "_token",
          "type": "address"
        },
        {
          "internalType": "uint256",
          "name": "_amount",
          "type": "uint256"
        }
      ],
      "name": "borrowToken",
      "outputs": [],
      "stateMutability": "nonpayable",
      "type": "function"
    },
    {
      "inputs": [
        {
          "internalType": "address",
          "name": "_token",
          "type": "address"
        },
        {
          "internalType": "uint256",
          "name": "_amount",
          "type": "uint256"
        },
        {
          "internalType": "address",
          "name": "_user",
          "type": "address"
        },
        {
          "internalType": "uint64",
          "name": "destinationChainSelector",
          "type": "uint64"
        },
        {
          "internalType": "uint64",
          "name": "calledChainSelector",
          "type": "uint64"
        },
        {
          "internalType": "address",
          "name": "_receiver",
          "type": "address"
        },
        {
          "internalType": "address",
          "name": "_calledReciever",
          "type": "address"
        }
      ],
      "name": "borrowTokenMessage",
      "outputs": [],
      "stateMutability": "nonpayable",
      "type": "function"
    },
    {
      "inputs": [],
      "name": "getLendInterestRate",
      "outputs": [
        {
          "internalType": "uint256",
          "name": "",
          "type": "uint256"
        }
      ],
      "stateMutability": "view",
      "type": "function"
    },
    {
      "inputs": [],
      "name": "getLinkAddress",
      "outputs": [
        {
          "internalType": "address",
          "name": "",
          "type": "address"
        }
      ],
      "stateMutability": "view",
      "type": "function"
    },
    {
      "inputs": [],
      "name": "getRouterAddress",
      "outputs": [
        {
          "internalType": "address",
          "name": "",
          "type": "address"
        }
      ],
      "stateMutability": "view",
      "type": "function"
    },
    {
      "inputs": [
        {
          "internalType": "address",
          "name": "_token",
          "type": "address"
        }
      ],
      "name": "isTokenSupported",
      "outputs": [
        {
          "internalType": "bool",
          "name": "",
          "type": "bool"
        }
      ],
      "stateMutability": "view",
      "type": "function"
    },
    {
      "inputs": [
        {
          "internalType": "address",
          "name": "_token",
          "type": "address"
        },
        {
          "internalType": "uint256",
          "name": "_amount",
          "type": "uint256"
        },
        {
          "internalType": "address",
          "name": "_user",
          "type": "address"
        },
        {
          "internalType": "uint64",
          "name": "destinationChainSelector",
          "type": "uint64"
        },
        {
          "internalType": "address",
          "name": "receiver",
          "type": "address"
        }
      ],
      "name": "lendToken",
      "outputs": [],
      "stateMutability": "nonpayable",
      "type": "function"
    },
    {
      "inputs": [],
      "name": "ownerAddr",
      "outputs": [
        {
          "internalType": "address",
          "name": "",
          "type": "address"
        }
      ],
      "stateMutability": "view",
      "type": "function"
    },
    {
      "inputs": [
        {
          "internalType": "address",
          "name": "_user",
          "type": "address"
        },
        {
          "internalType": "address",
          "name": "_token",
          "type": "address"
        },
        {
          "internalType": "uint256",
          "name": "_amount",
          "type": "uint256"
        },
        {
          "internalType": "uint64",
          "name": "destinationChainSelector",
          "type": "uint64"
        },
        {
          "internalType": "address",
          "name": "_receiver",
          "type": "address"
        }
      ],
      "name": "rePayFullAmount",
      "outputs": [],
      "stateMutability": "nonpayable",
      "type": "function"
    },
    {
      "inputs": [
        {
          "internalType": "address",
          "name": "_user",
          "type": "address"
        },
        {
          "internalType": "address",
          "name": "_token",
          "type": "address"
        },
        {
          "internalType": "uint256",
          "name": "_amount",
          "type": "uint256"
        }
      ],
      "name": "removeLend",
      "outputs": [],
      "stateMutability": "nonpayable",
      "type": "function"
    },
    {
      "inputs": [
        {
          "internalType": "address",
          "name": "_user",
          "type": "address"
        },
        {
          "internalType": "address",
          "name": "_token",
          "type": "address"
        },
        {
          "internalType": "uint256",
          "name": "_amount",
          "type": "uint256"
        },
        {
          "internalType": "uint64",
          "name": "destinationChainSelector",
          "type": "uint64"
        },
        {
          "internalType": "uint64",
          "name": "calledChainSelector",
          "type": "uint64"
        },
        {
          "internalType": "address",
          "name": "_receiver",
          "type": "address"
        },
        {
          "internalType": "address",
          "name": "_calledReciever",
          "type": "address"
        }
      ],
      "name": "removeLendMessage",
      "outputs": [],
      "stateMutability": "nonpayable",
      "type": "function"
    },
    {
      "inputs": [
        {
          "internalType": "address",
          "name": "_tokenAddress",
          "type": "address"
        },
        {
          "internalType": "bool",
          "name": "_allowed",
          "type": "bool"
        }
      ],
      "name": "setAllowedToken",
      "outputs": [],
      "stateMutability": "nonpayable",
      "type": "function"
    },
    {
      "inputs": [
        {
          "internalType": "uint256",
          "name": "_newInterest",
          "type": "uint256"
        }
      ],
      "name": "setLendInterest",
      "outputs": [],
      "stateMutability": "nonpayable",
      "type": "function"
    }
  ],
  "bytecode": {
    "object": "0x60c060405260036001553480156200001657600080fd5b5060405162001afb38038062001afb833981016040819052620000399162000082565b600080546001600160a01b0319166001600160a01b039485161790559082166080521660a052620000cc565b80516001600160a01b03811681146200007d57600080fd5b919050565b6000806000606084860312156200009857600080fd5b620000a38462000065565b9250620000b36020850162000065565b9150620000c36040850162000065565b90509250925092565b60805160a05161197d6200017e600039600081816101ee0152818161045501528181610574015281816107ee0152818161090d01528181610e5901528181610f780152818161128501526113a40152600081816102140152818161049b0152818161053f015281816105f901528181610834015281816108d80152818161099201528181610e9f01528181610f4301528181610ffd015281816112cb0152818161136f0152611429015261197d6000f3fe608060405234801561001057600080fd5b50600436106100ea5760003560e01c8063a037accb1161008c578063d54f7d5e11610066578063d54f7d5e14610212578063dde36b0d14610238578063e7ebb7e61461024b578063ea20839f1461025e57600080fd5b8063a037accb146101c6578063c27c3105146101d9578063ca30e603146101ec57600080fd5b806375151b63116100c857806375151b631461012a578063756742f81461016b5780638aaa22841461018e5780639c675eaa146101a157600080fd5b80634eb9c93a146100ef5780637043bb421461010457806374095cca14610117575b600080fd5b6101026100fd36600461151f565b61026f565b005b61010261011236600461157d565b6106bc565b6101026101253660046115fc565b610a3f565b610156610138366004611638565b6001600160a01b031660009081526002602052604090205460ff1690565b60405190151581526020015b60405180910390f35b610156610179366004611638565b60026020526000908152604090205460ff1681565b61010261019c36600461166b565b610b7e565b6000546001600160a01b03165b6040516001600160a01b039091168152602001610162565b6101026101d43660046116a2565b610bd4565b6101026101e73660046115fc565b610c26565b7f00000000000000000000000000000000000000000000000000000000000000006101ae565b7f00000000000000000000000000000000000000000000000000000000000000006101ae565b6101026102463660046116bb565b610d05565b610102610259366004611702565b6110c1565b600154604051908152602001610162565b6001600160a01b038516600090815260026020526040902054859060ff166102aa57604051630859dc9b60e31b815260040160405180910390fd5b84806000036102cc576040516313cfbd0d60e11b815260040160405180910390fd5b846001600160a01b03811633146102f65760405163031b987960e11b815260040160405180910390fd5b6040516323b872dd60e01b81526000906001600160a01b038a16906323b872dd9061032990339030908d90600401611746565b6020604051808303816000875af1158015610348573d6000803e3d6000fd5b505050506040513d601f19601f8201168201806040525081019061036c919061176a565b90508061038c576040516303ab574160e11b815260040160405180910390fd5b6040805160a081019091526001600160a01b03861660c08201526000908060e081016040516020818303038152906040528152602001898c8c6040516024016103d793929190611746565b60408051601f19818403018152919052602080820180516001600160e01b0316630ab1ec6f60e11b17905290825201600060405190808252806020026020018201604052801561044d57816020015b60408051808201909152600080825260208201528152602001906001900390816104265790505b5081526020017f00000000000000000000000000000000000000000000000000000000000000006001600160a01b0316815260200160405180602001604052806000815250815250905060007f00000000000000000000000000000000000000000000000000000000000000006001600160a01b03166320487ded89846040518363ffffffff1660e01b81526004016104e79291906117cd565b602060405180830381865afa158015610504573d6000803e3d6000fd5b505050506040513d601f19601f8201168201806040525081019061052891906118a7565b60405163095ea7b360e01b81526001600160a01b037f000000000000000000000000000000000000000000000000000000000000000081166004830152602482018390529192506000917f0000000000000000000000000000000000000000000000000000000000000000169063095ea7b3906044016020604051808303816000875af11580156105bd573d6000803e3d6000fd5b505050506040513d601f19601f820116820180604052508101906105e1919061176a565b506040516396f4e9f960e01b81526001600160a01b037f000000000000000000000000000000000000000000000000000000000000000016906396f4e9f990610630908c9087906004016117cd565b6020604051808303816000875af115801561064f573d6000803e3d6000fd5b505050506040513d601f19601f8201168201806040525081019061067391906118a7565b90507f914c00bd085c89af5dac4609700f5d942253ee6988786ee016196a3137f1c892816040516106a691815260200190565b60405180910390a1505050505050505050505050565b6001600160a01b038616600090815260026020526040902054869060ff166106f757604051630859dc9b60e31b815260040160405180910390fd5b876001600160a01b03811633146107215760405163031b987960e11b815260040160405180910390fd5b6040805160a081019091526001600160a01b03851660c08201526000908060e0810160405160208183030381529060405281526020018b8b8b8a896040516024016107709594939291906118c0565b60408051601f19818403018152919052602080820180516001600160e01b0316633043b30560e01b1790529082520160006040519080825280602002602001820160405280156107e657816020015b60408051808201909152600080825260208201528152602001906001900390816107bf5790505b5081526020017f00000000000000000000000000000000000000000000000000000000000000006001600160a01b0316815260200160405180602001604052806000815250815250905060007f00000000000000000000000000000000000000000000000000000000000000006001600160a01b03166320487ded89846040518363ffffffff1660e01b81526004016108809291906117cd565b602060405180830381865afa15801561089d573d6000803e3d6000fd5b505050506040513d601f19601f820116820180604052508101906108c191906118a7565b60405163095ea7b360e01b81526001600160a01b037f000000000000000000000000000000000000000000000000000000000000000081166004830152602482018390529192506000917f0000000000000000000000000000000000000000000000000000000000000000169063095ea7b3906044016020604051808303816000875af1158015610956573d6000803e3d6000fd5b505050506040513d601f19601f8201168201806040525081019061097a919061176a565b506040516396f4e9f960e01b81526001600160a01b037f000000000000000000000000000000000000000000000000000000000000000016906396f4e9f9906109c9908c9087906004016117cd565b6020604051808303816000875af11580156109e8573d6000803e3d6000fd5b505050506040513d601f19601f82011682018060405250810190610a0c91906118a7565b90507f35aec91804e8f868038fdfceefae7d746b9515eba7d81c64f117261318557e3f816040516106a691815260200190565b6001600160a01b038216600090815260026020526040902054829060ff16610a7a57604051630859dc9b60e31b815260040160405180910390fd5b6000836001600160a01b031663a9059cbb86606460015487610a9c91906118fa565b610aa69190611925565b6040516001600160e01b031960e085901b1681526001600160a01b03909216600483015260248201526044016020604051808303816000875af1158015610af1573d6000803e3d6000fd5b505050506040513d601f19601f82011682018060405250810190610b15919061176a565b905080610b355760405163498e7d9160e11b815260040160405180910390fd5b604080516001600160a01b0386168152602081018590527f7b282a6030def64348fe6b7dc3ee3b8fc0649c03781c7d5bcf1a2518e6073328910160405180910390a15050505050565b6000546001600160a01b03163314610ba95760405163766ade3560e01b815260040160405180910390fd5b6001600160a01b03919091166000908152600260205260409020805460ff1916911515919091179055565b6000546001600160a01b03163314610bff5760405163766ade3560e01b815260040160405180910390fd5b600a811015610c215760405163f5cf2f7b60e01b815260040160405180910390fd5b600155565b60405163a9059cbb60e01b81526001600160a01b038481166004830152602482018390526000919084169063a9059cbb906044016020604051808303816000875af1158015610c79573d6000803e3d6000fd5b505050506040513d601f19601f82011682018060405250810190610c9d919061176a565b905080610cbd5760405163de239d7760e01b815260040160405180910390fd5b604080516001600160a01b0385168152602081018490527f94a38080f852f78f49d690a2ed2327cdf48af975749bc55adfe9b0a000fc3632910160405180910390a150505050565b6001600160a01b038716600090815260026020526040902054879060ff16610d4057604051630859dc9b60e31b815260040160405180910390fd5b8680600003610d62576040516313cfbd0d60e11b815260040160405180910390fd5b866001600160a01b0381163314610d8c5760405163031b987960e11b815260040160405180910390fd5b6040805160a081019091526001600160a01b03861660c08201526000908060e0810160405160208183030381529060405281526020018a8d8d8b8a604051602401610ddb9594939291906118c0565b60408051601f19818403018152919052602080820180516001600160e01b031663d474d4af60e01b179052908252016000604051908082528060200260200182016040528015610e5157816020015b6040805180820190915260008082526020820152815260200190600190039081610e2a5790505b5081526020017f00000000000000000000000000000000000000000000000000000000000000006001600160a01b0316815260200160405180602001604052806000815250815250905060007f00000000000000000000000000000000000000000000000000000000000000006001600160a01b03166320487ded8a846040518363ffffffff1660e01b8152600401610eeb9291906117cd565b602060405180830381865afa158015610f08573d6000803e3d6000fd5b505050506040513d601f19601f82011682018060405250810190610f2c91906118a7565b60405163095ea7b360e01b81526001600160a01b037f000000000000000000000000000000000000000000000000000000000000000081166004830152602482018390529192506000917f0000000000000000000000000000000000000000000000000000000000000000169063095ea7b3906044016020604051808303816000875af1158015610fc1573d6000803e3d6000fd5b505050506040513d601f19601f82011682018060405250810190610fe5919061176a565b506040516396f4e9f960e01b81526001600160a01b037f000000000000000000000000000000000000000000000000000000000000000016906396f4e9f990611034908d9087906004016117cd565b6020604051808303816000875af1158015611053573d6000803e3d6000fd5b505050506040513d601f19601f8201168201806040525081019061107791906118a7565b90507f9cdeb1d153c2185c5b139f90b57371cee6c9f24801967763cc2344163dcf825a816040516110aa91815260200190565b60405180910390a150505050505050505050505050565b6001600160a01b038416600090815260026020526040902054849060ff166110fc57604051630859dc9b60e31b815260040160405180910390fd5b856001600160a01b03811633146111265760405163031b987960e11b815260040160405180910390fd5b6040516323b872dd60e01b81526000906001600160a01b038816906323b872dd9061115990339030908b90600401611746565b6020604051808303816000875af1158015611178573d6000803e3d6000fd5b505050506040513d601f19601f8201168201806040525081019061119c919061176a565b9050806111bc576040516307a6c4d960e31b815260040160405180910390fd5b6040805160a081019091526001600160a01b03851660c08201526000908060e0810160405160208183030381529060405281526020018a8a8a60405160240161120793929190611746565b60408051601f19818403018152919052602080820180516001600160e01b03166341bb200b60e01b17905290825201600060405190808252806020026020018201604052801561127d57816020015b60408051808201909152600080825260208201528152602001906001900390816112565790505b5081526020017f00000000000000000000000000000000000000000000000000000000000000006001600160a01b0316815260200160405180602001604052806000815250815250905060007f00000000000000000000000000000000000000000000000000000000000000006001600160a01b03166320487ded88846040518363ffffffff1660e01b81526004016113179291906117cd565b602060405180830381865afa158015611334573d6000803e3d6000fd5b505050506040513d601f19601f8201168201806040525081019061135891906118a7565b60405163095ea7b360e01b81526001600160a01b037f000000000000000000000000000000000000000000000000000000000000000081166004830152602482018390529192506000917f0000000000000000000000000000000000000000000000000000000000000000169063095ea7b3906044016020604051808303816000875af11580156113ed573d6000803e3d6000fd5b505050506040513d601f19601f82011682018060405250810190611411919061176a565b506040516396f4e9f960e01b81526001600160a01b037f000000000000000000000000000000000000000000000000000000000000000016906396f4e9f990611460908b9087906004016117cd565b6020604051808303816000875af115801561147f573d6000803e3d6000fd5b505050506040513d601f19601f820116820180604052508101906114a391906118a7565b90507f684b2684a348f85b207176a78a633ab7ef8f38c7af349441ce8598834f71f531816040516114d691815260200190565b60405180910390a15050505050505050505050565b80356001600160a01b038116811461150257600080fd5b919050565b803567ffffffffffffffff8116811461150257600080fd5b600080600080600060a0868803121561153757600080fd5b611540866114eb565b945060208601359350611555604087016114eb565b925061156360608701611507565b9150611571608087016114eb565b90509295509295909350565b600080600080600080600060e0888a03121561159857600080fd5b6115a1886114eb565b96506115af602089016114eb565b9550604088013594506115c460608901611507565b93506115d260808901611507565b92506115e060a089016114eb565b91506115ee60c089016114eb565b905092959891949750929550565b60008060006060848603121561161157600080fd5b61161a846114eb565b9250611628602085016114eb565b9150604084013590509250925092565b60006020828403121561164a57600080fd5b611653826114eb565b9392505050565b801515811461166857600080fd5b50565b6000806040838503121561167e57600080fd5b611687836114eb565b915060208301356116978161165a565b809150509250929050565b6000602082840312156116b457600080fd5b5035919050565b600080600080600080600060e0888a0312156116d657600080fd5b6116df886114eb565b9650602088013595506116f4604089016114eb565b94506115c460608901611507565b600080600080600060a0868803121561171a57600080fd5b611723866114eb565b9450611731602087016114eb565b93506040860135925061156360608701611507565b6001600160a01b039384168152919092166020820152604081019190915260600190565b60006020828403121561177c57600080fd5b81516116538161165a565b6000815180845260005b818110156117ad57602081850181015186830182015201611791565b506000602082860101526020601f19601f83011685010191505092915050565b6000604067ffffffffffffffff8516835260208181850152845160a0838601526117fa60e0860182611787565b905081860151603f19808784030160608801526118178383611787565b88860151888203830160808a01528051808352908601945060009350908501905b8084101561186a57845180516001600160a01b0316835286015186830152938501936001939093019290860190611838565b5060608901516001600160a01b031660a08901526080890151888203830160c08a015295506118998187611787565b9a9950505050505050505050565b6000602082840312156118b957600080fd5b5051919050565b6001600160a01b0395861681529385166020850152604084019290925267ffffffffffffffff166060830152909116608082015260a00190565b808202811582820484141761191f57634e487b7160e01b600052601160045260246000fd5b92915050565b60008261194257634e487b7160e01b600052601260045260246000fd5b50049056fea2646970667358221220b623fe19e384349169a2ee62a47e310e41535bbe0424be2494cbe8c935d640fb64736f6c63430008130033",
    "linkReferences": {}
  },
  "methodIdentifiers": {
    "allowedToken(address)": "756742f8",
    "borrowToken(address,address,uint256)": "c27c3105",
    "borrowTokenMessage(address,uint256,address,uint64,uint64,address,address)": "dde36b0d",
    "getLendInterestRate()": "ea20839f",
    "getLinkAddress()": "ca30e603",
    "getRouterAddress()": "d54f7d5e",
    "isTokenSupported(address)": "75151b63",
    "lendToken(address,uint256,address,uint64,address)": "4eb9c93a",
    "ownerAddr()": "9c675eaa",
    "rePayFullAmount(address,address,uint256,uint64,address)": "e7ebb7e6",
    "removeLend(address,address,uint256)": "74095cca",
    "removeLendMessage(address,address,uint256,uint64,uint64,address,address)": "7043bb42",
    "setAllowedToken(address,bool)": "8aaa2284",
    "setLendInterest(uint256)": "a037accb"
  },
  "id": 38
}