{
  "abi": [
    {
      "inputs": [
        {
          "internalType": "address",
          "name": "_owner",
          "type": "address"
        },
        {
          "internalType": "address",
          "name": "_router",
          "type": "address"
        },
        {
          "internalType": "address",
          "name": "_link",
          "type": "address"
        }
      ],
      "stateMutability": "nonpayable",
      "type": "constructor"
    },
    {
      "inputs": [],
      "name": "BORROW_LIMIT_EXCEED",
      "type": "error"
    },
    {
      "inputs": [],
      "name": "FAILED_TO_BORROW",
      "type": "error"
    },
    {
      "inputs": [],
      "name": "FAILED_TO_LEND",
      "type": "error"
    },
    {
      "inputs": [],
      "name": "FAILED_TO_REPAY",
      "type": "error"
    },
    {
      "inputs": [],
      "name": "FAILED_TO_WITHDRAW",
      "type": "error"
    },
    {
      "inputs": [],
      "name": "NOT_ENOUGH_AMOUNT_REPAYFULL",
      "type": "error"
    },
    {
      "inputs": [],
      "name": "NOT_ENOUGH_TOKEN_LENDED",
      "type": "error"
    },
    {
      "inputs": [],
      "name": "ONLY_OWNER_CALL_THIS_FUNCTION",
      "type": "error"
    },
    {
      "inputs": [],
      "name": "TOKEN_NOT_SUPPORTED",
      "type": "error"
    },
    {
      "anonymous": false,
      "inputs": [
        {
          "indexed": false,
          "internalType": "bytes32",
          "name": "messageId",
          "type": "bytes32"
        }
      ],
      "name": "BorrowMessageSent",
      "type": "event"
    },
    {
      "anonymous": false,
      "inputs": [
        {
          "indexed": false,
          "internalType": "bytes32",
          "name": "messageId",
          "type": "bytes32"
        }
      ],
      "name": "LendMessageSent",
      "type": "event"
    },
    {
      "anonymous": false,
      "inputs": [
        {
          "indexed": false,
          "internalType": "bytes32",
          "name": "messageId",
          "type": "bytes32"
        }
      ],
      "name": "RePayMessageSent",
      "type": "event"
    },
    {
      "anonymous": false,
      "inputs": [
        {
          "indexed": false,
          "internalType": "bytes32",
          "name": "messageId",
          "type": "bytes32"
        }
      ],
      "name": "RemoveLendMessageSent",
      "type": "event"
    },
    {
      "inputs": [
        {
          "internalType": "address",
          "name": "",
          "type": "address"
        }
      ],
      "name": "allowedToken",
      "outputs": [
        {
          "internalType": "bool",
          "name": "",
          "type": "bool"
        }
      ],
      "stateMutability": "view",
      "type": "function"
    },
    {
      "inputs": [
        {
          "internalType": "uint256",
          "name": "",
          "type": "uint256"
        }
      ],
      "name": "allowedTokenArray",
      "outputs": [
        {
          "internalType": "address",
          "name": "",
          "type": "address"
        }
      ],
      "stateMutability": "view",
      "type": "function"
    },
    {
      "inputs": [
        {
          "internalType": "address",
          "name": "_token",
          "type": "address"
        },
        {
          "internalType": "uint256",
          "name": "_amount",
          "type": "uint256"
        }
      ],
      "name": "borrowToken",
      "outputs": [],
      "stateMutability": "nonpayable",
      "type": "function"
    },
    {
      "inputs": [
        {
          "internalType": "address",
          "name": "_token",
          "type": "address"
        },
        {
          "internalType": "uint256",
          "name": "_amount",
          "type": "uint256"
        },
        {
          "internalType": "uint64",
          "name": "destinationChainSelector",
          "type": "uint64"
        },
        {
          "internalType": "address",
          "name": "_receiver",
          "type": "address"
        },
        {
          "internalType": "enum SourceContract.PayFeesIn",
          "name": "payFeesIn",
          "type": "uint8"
        }
      ],
      "name": "borrowTokenMessage",
      "outputs": [],
      "stateMutability": "nonpayable",
      "type": "function"
    },
    {
      "inputs": [],
      "name": "i_link",
      "outputs": [
        {
          "internalType": "address",
          "name": "",
          "type": "address"
        }
      ],
      "stateMutability": "view",
      "type": "function"
    },
    {
      "inputs": [],
      "name": "i_router",
      "outputs": [
        {
          "internalType": "address",
          "name": "",
          "type": "address"
        }
      ],
      "stateMutability": "view",
      "type": "function"
    },
    {
      "inputs": [
        {
          "internalType": "address",
          "name": "_token",
          "type": "address"
        }
      ],
      "name": "isTokenSupported",
      "outputs": [
        {
          "internalType": "bool",
          "name": "",
          "type": "bool"
        }
      ],
      "stateMutability": "view",
      "type": "function"
    },
    {
      "inputs": [
        {
          "internalType": "address",
          "name": "_token",
          "type": "address"
        },
        {
          "internalType": "uint256",
          "name": "_amount",
          "type": "uint256"
        },
        {
          "internalType": "uint64",
          "name": "destinationChainSelector",
          "type": "uint64"
        },
        {
          "internalType": "address",
          "name": "receiver",
          "type": "address"
        },
        {
          "internalType": "enum SourceContract.PayFeesIn",
          "name": "payFeesIn",
          "type": "uint8"
        }
      ],
      "name": "lendToken",
      "outputs": [],
      "stateMutability": "nonpayable",
      "type": "function"
    },
    {
      "inputs": [],
      "name": "ownerAddr",
      "outputs": [
        {
          "internalType": "address",
          "name": "",
          "type": "address"
        }
      ],
      "stateMutability": "view",
      "type": "function"
    },
    {
      "inputs": [
        {
          "internalType": "address",
          "name": "_token",
          "type": "address"
        },
        {
          "internalType": "uint256",
          "name": "_amount",
          "type": "uint256"
        },
        {
          "internalType": "uint64",
          "name": "destinationChainSelector",
          "type": "uint64"
        },
        {
          "internalType": "address",
          "name": "_receiver",
          "type": "address"
        },
        {
          "internalType": "enum SourceContract.PayFeesIn",
          "name": "payFeesIn",
          "type": "uint8"
        }
      ],
      "name": "rePayFullAmount",
      "outputs": [],
      "stateMutability": "nonpayable",
      "type": "function"
    },
    {
      "inputs": [
        {
          "internalType": "address",
          "name": "_token",
          "type": "address"
        },
        {
          "internalType": "uint256",
          "name": "_amount",
          "type": "uint256"
        }
      ],
      "name": "removeLend",
      "outputs": [],
      "stateMutability": "nonpayable",
      "type": "function"
    },
    {
      "inputs": [
        {
          "internalType": "address",
          "name": "_token",
          "type": "address"
        },
        {
          "internalType": "uint256",
          "name": "_amount",
          "type": "uint256"
        },
        {
          "internalType": "uint64",
          "name": "destinationChainSelector",
          "type": "uint64"
        },
        {
          "internalType": "address",
          "name": "_receiver",
          "type": "address"
        },
        {
          "internalType": "enum SourceContract.PayFeesIn",
          "name": "payFeesIn",
          "type": "uint8"
        }
      ],
      "name": "removeLendMessage",
      "outputs": [],
      "stateMutability": "nonpayable",
      "type": "function"
    },
    {
      "inputs": [
        {
          "internalType": "address",
          "name": "_tokenAddress",
          "type": "address"
        },
        {
          "internalType": "bool",
          "name": "_allowed",
          "type": "bool"
        }
      ],
      "name": "setAllowedToken",
      "outputs": [],
      "stateMutability": "nonpayable",
      "type": "function"
    },
    {
      "inputs": [
        {
          "internalType": "uint256",
          "name": "_newThreshold",
          "type": "uint256"
        }
      ],
      "name": "setThreshold",
      "outputs": [],
      "stateMutability": "nonpayable",
      "type": "function"
    },
    {
      "inputs": [],
      "name": "threshold",
      "outputs": [
        {
          "internalType": "uint256",
          "name": "",
          "type": "uint256"
        }
      ],
      "stateMutability": "view",
      "type": "function"
    }
  ],
  "bytecode": {
    "object": "0x60c060405260506001553480156200001657600080fd5b5060405162001c5b38038062001c5b833981016040819052620000399162000082565b600080546001600160a01b0319166001600160a01b039485161790559082166080521660a052620000cc565b80516001600160a01b03811681146200007d57600080fd5b919050565b6000806000606084860312156200009857600080fd5b620000a38462000065565b9250620000b36020850162000065565b9150620000c36040850162000065565b90509250925092565b60805160a051611ac16200019a60003960008181610240015281816103c8015281816104ff015281816108030152818161093a01528181610cc901528181610e00015281816111c901526113000152600081816101a70152818161040f015281816104d0015281816105840152818161061c0152818161084a0152818161090b015281816109bf01528181610a5701528181610d1001528181610dd101528181610e8501528181610f1d01528181611210015281816112d101528181611385015261141d0152611ac16000f3fe608060405234801561001057600080fd5b50600436106100f55760003560e01c8063581bdd16116100975780637d253aff116100665780637d253aff1461023b5780638aaa228414610262578063960bfe04146102755780639c675eaa1461028857600080fd5b8063581bdd16146101a25780635a91b39c146101c957806375151b63146101dc578063756742f81461021857600080fd5b8063294a5512116100d3578063294a5512146101355780632d8319201461016557806342cde4e81461017857806350eb61991461018f57600080fd5b80630e4ebfa2146100fa578063268d2a301461010f57806326a0ac3e14610122575b600080fd5b61010d610108366004611753565b610299565b005b61010d61011d366004611753565b6106da565b61010d610130366004611753565b610b06565b6101486101433660046117c8565b610fdc565b6040516001600160a01b0390911681526020015b60405180910390f35b61010d610173366004611753565b611006565b61018160015481565b60405190815260200161015c565b61010d61019d3660046117e1565b6114cc565b6101487f000000000000000000000000000000000000000000000000000000000000000081565b61010d6101d73660046117e1565b6115d0565b6102086101ea36600461180b565b6001600160a01b031660009081526002602052604090205460ff1690565b604051901515815260200161015c565b61020861022636600461180b565b60026020526000908152604090205460ff1681565b6101487f000000000000000000000000000000000000000000000000000000000000000081565b61010d61027036600461183e565b61166f565b61010d6102833660046117c8565b611707565b6000546001600160a01b0316610148565b6001600160a01b038516600090815260026020526040902054859060ff16156102d557604051630859dc9b60e31b815260040160405180910390fd5b6040805160a081019091526001600160a01b03841660c08201526000908060e0810160408051808303601f19018152918152908252516001600160a01b038a1660248201526044810189905260209091019060640160408051601f19818403018152919052602080820180516001600160e01b03166327dbf46d60e21b1790529082520160006040519080825280602002602001820160405280156103a057816020015b60408051808201909152600080825260208201528152602001906001900390816103795790505b50815260200160018560018111156103ba576103ba611875565b146103c65760006103e8565b7f00000000000000000000000000000000000000000000000000000000000000005b6001600160a01b0316815260200160405180602001604052806000815250815250905060007f00000000000000000000000000000000000000000000000000000000000000006001600160a01b03166320487ded87846040518363ffffffff1660e01b815260040161045b9291906118d1565b602060405180830381865afa158015610478573d6000803e3d6000fd5b505050506040513d601f19601f8201168201806040525081019061049c91906119ab565b9050600060018560018111156104b4576104b4611875565b036106055760405163095ea7b360e01b81526001600160a01b037f000000000000000000000000000000000000000000000000000000000000000081166004830152602482018490527f0000000000000000000000000000000000000000000000000000000000000000169063095ea7b3906044016020604051808303816000875af1158015610548573d6000803e3d6000fd5b505050506040513d601f19601f8201168201806040525081019061056c91906119c4565b506040516396f4e9f960e01b81526001600160a01b037f000000000000000000000000000000000000000000000000000000000000000016906396f4e9f9906105bb908a9087906004016118d1565b6020604051808303816000875af11580156105da573d6000803e3d6000fd5b505050506040513d601f19601f820116820180604052508101906105fe91906119ab565b905061069b565b6040516396f4e9f960e01b81526001600160a01b037f000000000000000000000000000000000000000000000000000000000000000016906396f4e9f9908490610655908b9088906004016118d1565b60206040518083038185885af1158015610673573d6000803e3d6000fd5b50505050506040513d601f19601f8201168201806040525081019061069891906119ab565b90505b6040518181527f35aec91804e8f868038fdfceefae7d746b9515eba7d81c64f117261318557e3f906020015b60405180910390a1505050505050505050565b6001600160a01b038516600090815260026020526040902054859060ff161561071657604051630859dc9b60e31b815260040160405180910390fd5b6040805160a081019091526001600160a01b03841660c08201526000908060e08101604051602081830303815290604052815260200188888888886040516024016107659594939291906119e1565b60408051601f19818403018152919052602080820180516001600160e01b0316631a8609f960e01b1790529082520160006040519080825280602002602001820160405280156107db57816020015b60408051808201909152600080825260208201528152602001906001900390816107b45790505b50815260200160018560018111156107f5576107f5611875565b14610801576000610823565b7f00000000000000000000000000000000000000000000000000000000000000005b6001600160a01b0316815260200160405180602001604052806000815250815250905060007f00000000000000000000000000000000000000000000000000000000000000006001600160a01b03166320487ded87846040518363ffffffff1660e01b81526004016108969291906118d1565b602060405180830381865afa1580156108b3573d6000803e3d6000fd5b505050506040513d601f19601f820116820180604052508101906108d791906119ab565b9050600060018560018111156108ef576108ef611875565b03610a405760405163095ea7b360e01b81526001600160a01b037f000000000000000000000000000000000000000000000000000000000000000081166004830152602482018490527f0000000000000000000000000000000000000000000000000000000000000000169063095ea7b3906044016020604051808303816000875af1158015610983573d6000803e3d6000fd5b505050506040513d601f19601f820116820180604052508101906109a791906119c4565b506040516396f4e9f960e01b81526001600160a01b037f000000000000000000000000000000000000000000000000000000000000000016906396f4e9f9906109f6908a9087906004016118d1565b6020604051808303816000875af1158015610a15573d6000803e3d6000fd5b505050506040513d601f19601f82011682018060405250810190610a3991906119ab565b9050610ad6565b6040516396f4e9f960e01b81526001600160a01b037f000000000000000000000000000000000000000000000000000000000000000016906396f4e9f9908490610a90908b9088906004016118d1565b60206040518083038185885af1158015610aae573d6000803e3d6000fd5b50505050506040513d601f19601f82011682018060405250810190610ad391906119ab565b90505b6040518181527f9cdeb1d153c2185c5b139f90b57371cee6c9f24801967763cc2344163dcf825a906020016106c7565b6001600160a01b038516600090815260026020526040902054859060ff1615610b4257604051630859dc9b60e31b815260040160405180910390fd5b60405163a9059cbb60e01b8152306004820152602481018690526000906001600160a01b0388169063a9059cbb906044016020604051808303816000875af1158015610b92573d6000803e3d6000fd5b505050506040513d601f19601f82011682018060405250810190610bb691906119c4565b905080610bd6576040516307a6c4d960e31b815260040160405180910390fd5b6040805160a081019091526001600160a01b03851660c08201526000908060e0810160408051808303601f19018152918152908252516001600160a01b038b166024820152604481018a905260209091019060640160408051601f19818403018152919052602080820180516001600160e01b031663081d819560e31b179052908252016000604051908082528060200260200182016040528015610ca157816020015b6040805180820190915260008082526020820152815260200190600190039081610c7a5790505b5081526020016001866001811115610cbb57610cbb611875565b14610cc7576000610ce9565b7f00000000000000000000000000000000000000000000000000000000000000005b6001600160a01b0316815260200160405180602001604052806000815250815250905060007f00000000000000000000000000000000000000000000000000000000000000006001600160a01b03166320487ded88846040518363ffffffff1660e01b8152600401610d5c9291906118d1565b602060405180830381865afa158015610d79573d6000803e3d6000fd5b505050506040513d601f19601f82011682018060405250810190610d9d91906119ab565b905060006001866001811115610db557610db5611875565b03610f065760405163095ea7b360e01b81526001600160a01b037f000000000000000000000000000000000000000000000000000000000000000081166004830152602482018490527f0000000000000000000000000000000000000000000000000000000000000000169063095ea7b3906044016020604051808303816000875af1158015610e49573d6000803e3d6000fd5b505050506040513d601f19601f82011682018060405250810190610e6d91906119c4565b506040516396f4e9f960e01b81526001600160a01b037f000000000000000000000000000000000000000000000000000000000000000016906396f4e9f990610ebc908b9087906004016118d1565b6020604051808303816000875af1158015610edb573d6000803e3d6000fd5b505050506040513d601f19601f82011682018060405250810190610eff91906119ab565b9050610f9c565b6040516396f4e9f960e01b81526001600160a01b037f000000000000000000000000000000000000000000000000000000000000000016906396f4e9f9908490610f56908c9088906004016118d1565b60206040518083038185885af1158015610f74573d6000803e3d6000fd5b50505050506040513d601f19601f82011682018060405250810190610f9991906119ab565b90505b6040518181527f684b2684a348f85b207176a78a633ab7ef8f38c7af349441ce8598834f71f531906020015b60405180910390a150505050505050505050565b60038181548110610fec57600080fd5b6000918252602090912001546001600160a01b0316905081565b6001600160a01b038516600090815260026020526040902054859060ff161561104257604051630859dc9b60e31b815260040160405180910390fd5b60405163a9059cbb60e01b8152306004820152602481018690526000906001600160a01b0388169063a9059cbb906044016020604051808303816000875af1158015611092573d6000803e3d6000fd5b505050506040513d601f19601f820116820180604052508101906110b691906119c4565b9050806110d6576040516303ab574160e11b815260040160405180910390fd5b6040805160a081019091526001600160a01b03851660c08201526000908060e0810160408051808303601f19018152918152908252516001600160a01b038b166024820152604481018a905260209091019060640160408051601f19818403018152919052602080820180516001600160e01b031663a2fb342d60e01b1790529082520160006040519080825280602002602001820160405280156111a157816020015b604080518082019091526000808252602082015281526020019060019003908161117a5790505b50815260200160018660018111156111bb576111bb611875565b146111c75760006111e9565b7f00000000000000000000000000000000000000000000000000000000000000005b6001600160a01b0316815260200160405180602001604052806000815250815250905060007f00000000000000000000000000000000000000000000000000000000000000006001600160a01b03166320487ded88846040518363ffffffff1660e01b815260040161125c9291906118d1565b602060405180830381865afa158015611279573d6000803e3d6000fd5b505050506040513d601f19601f8201168201806040525081019061129d91906119ab565b9050600060018660018111156112b5576112b5611875565b036114065760405163095ea7b360e01b81526001600160a01b037f000000000000000000000000000000000000000000000000000000000000000081166004830152602482018490527f0000000000000000000000000000000000000000000000000000000000000000169063095ea7b3906044016020604051808303816000875af1158015611349573d6000803e3d6000fd5b505050506040513d601f19601f8201168201806040525081019061136d91906119c4565b506040516396f4e9f960e01b81526001600160a01b037f000000000000000000000000000000000000000000000000000000000000000016906396f4e9f9906113bc908b9087906004016118d1565b6020604051808303816000875af11580156113db573d6000803e3d6000fd5b505050506040513d601f19601f820116820180604052508101906113ff91906119ab565b905061149c565b6040516396f4e9f960e01b81526001600160a01b037f000000000000000000000000000000000000000000000000000000000000000016906396f4e9f9908490611456908c9088906004016118d1565b60206040518083038185885af1158015611474573d6000803e3d6000fd5b50505050506040513d601f19601f8201168201806040525081019061149991906119ab565b90505b6040518181527f914c00bd085c89af5dac4609700f5d942253ee6988786ee016196a3137f1c89290602001610fc8565b6001600160a01b038216600090815260026020526040902054829060ff161561150857604051630859dc9b60e31b815260040160405180910390fd5b60006001600160a01b0384166323b872dd30336064611528886003611a3e565b6115329190611a69565b6040516001600160e01b031960e086901b1681526001600160a01b03938416600482015292909116602483015260448201526064016020604051808303816000875af1158015611586573d6000803e3d6000fd5b505050506040513d601f19601f820116820180604052508101906115aa91906119c4565b9050806115ca5760405163498e7d9160e11b815260040160405180910390fd5b50505050565b6040516323b872dd60e01b8152306004820152336024820152604481018290526000906001600160a01b038416906323b872dd906064016020604051808303816000875af1158015611626573d6000803e3d6000fd5b505050506040513d601f19601f8201168201806040525081019061164a91906119c4565b90508061166a5760405163de239d7760e01b815260040160405180910390fd5b505050565b6000546001600160a01b0316331461169a5760405163766ade3560e01b815260040160405180910390fd5b6001600160a01b03919091166000818152600260205260408120805460ff1916931515939093179092556003805460018101825592527fc2575a0e9e593c00f959f8c92f12db2869c3395a3b0502d05e2516446f71f85b90910180546001600160a01b0319169091179055565b6000546001600160a01b031633146117325760405163766ade3560e01b815260040160405180910390fd5b600155565b80356001600160a01b038116811461174e57600080fd5b919050565b600080600080600060a0868803121561176b57600080fd5b61177486611737565b945060208601359350604086013567ffffffffffffffff8116811461179857600080fd5b92506117a660608701611737565b91506080860135600281106117ba57600080fd5b809150509295509295909350565b6000602082840312156117da57600080fd5b5035919050565b600080604083850312156117f457600080fd5b6117fd83611737565b946020939093013593505050565b60006020828403121561181d57600080fd5b61182682611737565b9392505050565b801515811461183b57600080fd5b50565b6000806040838503121561185157600080fd5b61185a83611737565b9150602083013561186a8161182d565b809150509250929050565b634e487b7160e01b600052602160045260246000fd5b6000815180845260005b818110156118b157602081850181015186830182015201611895565b506000602082860101526020601f19601f83011685010191505092915050565b6000604067ffffffffffffffff8516835260208181850152845160a0838601526118fe60e086018261188b565b905081860151603f198087840301606088015261191b838361188b565b88860151888203830160808a01528051808352908601945060009350908501905b8084101561196e57845180516001600160a01b031683528601518683015293850193600193909301929086019061193c565b5060608901516001600160a01b031660a08901526080890151888203830160c08a0152955061199d818761188b565b9a9950505050505050505050565b6000602082840312156119bd57600080fd5b5051919050565b6000602082840312156119d657600080fd5b81516118268161182d565b6001600160a01b0386811682526020820186905267ffffffffffffffff851660408301528316606082015260a0810160028310611a2e57634e487b7160e01b600052602160045260246000fd5b8260808301529695505050505050565b8082028115828204841417611a6357634e487b7160e01b600052601160045260246000fd5b92915050565b600082611a8657634e487b7160e01b600052601260045260246000fd5b50049056fea2646970667358221220a221c9e4d8573adc223fce10133a0fc39fa22c96595841f420726cf5b8c7db6b64736f6c63430008130033",
    "linkReferences": {}
  },
  "methodIdentifiers": {
    "allowedToken(address)": "756742f8",
    "allowedTokenArray(uint256)": "294a5512",
    "borrowToken(address,uint256)": "5a91b39c",
    "borrowTokenMessage(address,uint256,uint64,address,uint8)": "268d2a30",
    "i_link()": "7d253aff",
    "i_router()": "581bdd16",
    "isTokenSupported(address)": "75151b63",
    "lendToken(address,uint256,uint64,address,uint8)": "2d831920",
    "ownerAddr()": "9c675eaa",
    "rePayFullAmount(address,uint256,uint64,address,uint8)": "26a0ac3e",
    "removeLend(address,uint256)": "50eb6199",
    "removeLendMessage(address,uint256,uint64,address,uint8)": "0e4ebfa2",
    "setAllowedToken(address,bool)": "8aaa2284",
    "setThreshold(uint256)": "960bfe04",
    "threshold()": "42cde4e8"
  },
  "id": 11
}