{
  "abi": [
    {
      "inputs": [
        {
          "internalType": "address",
          "name": "_owner",
          "type": "address"
        },
        {
          "internalType": "address",
          "name": "_router",
          "type": "address"
        },
        {
          "internalType": "address",
          "name": "_link",
          "type": "address"
        }
      ],
      "stateMutability": "nonpayable",
      "type": "constructor"
    },
    {
      "inputs": [],
      "name": "FAILED_TO_BORROW",
      "type": "error"
    },
    {
      "inputs": [],
      "name": "FAILED_TO_LEND",
      "type": "error"
    },
    {
      "inputs": [],
      "name": "FAILED_TO_REPAY",
      "type": "error"
    },
    {
      "inputs": [],
      "name": "FAILED_TO_WITHDRAW",
      "type": "error"
    },
    {
      "inputs": [],
      "name": "NEED_TO_SEND_SOME_TOKENS",
      "type": "error"
    },
    {
      "inputs": [],
      "name": "ONLY_OWNER_CALL_THIS_FUNCTION",
      "type": "error"
    },
    {
      "inputs": [],
      "name": "TOKEN_NOT_SUPPORTED",
      "type": "error"
    },
    {
      "inputs": [],
      "name": "TOO_MUCH_INTEREST",
      "type": "error"
    },
    {
      "anonymous": false,
      "inputs": [
        {
          "indexed": false,
          "internalType": "bytes32",
          "name": "messageId",
          "type": "bytes32"
        }
      ],
      "name": "BorrowMessageSent",
      "type": "event"
    },
    {
      "anonymous": false,
      "inputs": [
        {
          "indexed": false,
          "internalType": "address",
          "name": "token",
          "type": "address"
        },
        {
          "indexed": false,
          "internalType": "uint256",
          "name": "amount",
          "type": "uint256"
        }
      ],
      "name": "BorrowedToken",
      "type": "event"
    },
    {
      "anonymous": false,
      "inputs": [
        {
          "indexed": false,
          "internalType": "bytes32",
          "name": "messageId",
          "type": "bytes32"
        }
      ],
      "name": "LendMessageSent",
      "type": "event"
    },
    {
      "anonymous": false,
      "inputs": [
        {
          "indexed": false,
          "internalType": "bytes32",
          "name": "messageId",
          "type": "bytes32"
        }
      ],
      "name": "RePayMessageSent",
      "type": "event"
    },
    {
      "anonymous": false,
      "inputs": [
        {
          "indexed": false,
          "internalType": "bytes32",
          "name": "messageId",
          "type": "bytes32"
        }
      ],
      "name": "RemoveLendMessageSent",
      "type": "event"
    },
    {
      "anonymous": false,
      "inputs": [
        {
          "indexed": false,
          "internalType": "address",
          "name": "token",
          "type": "address"
        },
        {
          "indexed": false,
          "internalType": "uint256",
          "name": "amount",
          "type": "uint256"
        }
      ],
      "name": "RemovedLend",
      "type": "event"
    },
    {
      "inputs": [
        {
          "internalType": "address",
          "name": "",
          "type": "address"
        }
      ],
      "name": "allowedToken",
      "outputs": [
        {
          "internalType": "bool",
          "name": "",
          "type": "bool"
        }
      ],
      "stateMutability": "view",
      "type": "function"
    },
    {
      "inputs": [
        {
          "internalType": "address",
          "name": "_token",
          "type": "address"
        },
        {
          "internalType": "uint256",
          "name": "_amount",
          "type": "uint256"
        }
      ],
      "name": "borrowToken",
      "outputs": [],
      "stateMutability": "nonpayable",
      "type": "function"
    },
    {
      "inputs": [
        {
          "internalType": "address",
          "name": "_token",
          "type": "address"
        },
        {
          "internalType": "uint256",
          "name": "_amount",
          "type": "uint256"
        },
        {
          "internalType": "uint64",
          "name": "destinationChainSelector",
          "type": "uint64"
        },
        {
          "internalType": "uint64",
          "name": "calledChainSelector",
          "type": "uint64"
        },
        {
          "internalType": "address",
          "name": "_receiver",
          "type": "address"
        },
        {
          "internalType": "address",
          "name": "_calledReciever",
          "type": "address"
        }
      ],
      "name": "borrowTokenMessage",
      "outputs": [],
      "stateMutability": "nonpayable",
      "type": "function"
    },
    {
      "inputs": [],
      "name": "getLendInterestRate",
      "outputs": [
        {
          "internalType": "uint256",
          "name": "",
          "type": "uint256"
        }
      ],
      "stateMutability": "view",
      "type": "function"
    },
    {
      "inputs": [],
      "name": "getLinkAddress",
      "outputs": [
        {
          "internalType": "address",
          "name": "",
          "type": "address"
        }
      ],
      "stateMutability": "view",
      "type": "function"
    },
    {
      "inputs": [],
      "name": "getRouterAddress",
      "outputs": [
        {
          "internalType": "address",
          "name": "",
          "type": "address"
        }
      ],
      "stateMutability": "view",
      "type": "function"
    },
    {
      "inputs": [
        {
          "internalType": "address",
          "name": "_token",
          "type": "address"
        }
      ],
      "name": "isTokenSupported",
      "outputs": [
        {
          "internalType": "bool",
          "name": "",
          "type": "bool"
        }
      ],
      "stateMutability": "view",
      "type": "function"
    },
    {
      "inputs": [
        {
          "internalType": "address",
          "name": "_token",
          "type": "address"
        },
        {
          "internalType": "uint256",
          "name": "_amount",
          "type": "uint256"
        },
        {
          "internalType": "uint64",
          "name": "destinationChainSelector",
          "type": "uint64"
        },
        {
          "internalType": "address",
          "name": "receiver",
          "type": "address"
        }
      ],
      "name": "lendToken",
      "outputs": [],
      "stateMutability": "nonpayable",
      "type": "function"
    },
    {
      "inputs": [],
      "name": "ownerAddr",
      "outputs": [
        {
          "internalType": "address",
          "name": "",
          "type": "address"
        }
      ],
      "stateMutability": "view",
      "type": "function"
    },
    {
      "inputs": [
        {
          "internalType": "address",
          "name": "_token",
          "type": "address"
        },
        {
          "internalType": "uint256",
          "name": "_amount",
          "type": "uint256"
        },
        {
          "internalType": "uint64",
          "name": "destinationChainSelector",
          "type": "uint64"
        },
        {
          "internalType": "address",
          "name": "_receiver",
          "type": "address"
        }
      ],
      "name": "rePayFullAmount",
      "outputs": [],
      "stateMutability": "nonpayable",
      "type": "function"
    },
    {
      "inputs": [
        {
          "internalType": "address",
          "name": "_token",
          "type": "address"
        },
        {
          "internalType": "uint256",
          "name": "_amount",
          "type": "uint256"
        }
      ],
      "name": "removeLend",
      "outputs": [],
      "stateMutability": "nonpayable",
      "type": "function"
    },
    {
      "inputs": [
        {
          "internalType": "address",
          "name": "_token",
          "type": "address"
        },
        {
          "internalType": "uint256",
          "name": "_amount",
          "type": "uint256"
        },
        {
          "internalType": "uint64",
          "name": "destinationChainSelector",
          "type": "uint64"
        },
        {
          "internalType": "uint64",
          "name": "calledChainSelector",
          "type": "uint64"
        },
        {
          "internalType": "address",
          "name": "_receiver",
          "type": "address"
        },
        {
          "internalType": "address",
          "name": "_calledReciever",
          "type": "address"
        }
      ],
      "name": "removeLendMessage",
      "outputs": [],
      "stateMutability": "nonpayable",
      "type": "function"
    },
    {
      "inputs": [
        {
          "internalType": "address",
          "name": "_tokenAddress",
          "type": "address"
        },
        {
          "internalType": "bool",
          "name": "_allowed",
          "type": "bool"
        }
      ],
      "name": "setAllowedToken",
      "outputs": [],
      "stateMutability": "nonpayable",
      "type": "function"
    },
    {
      "inputs": [
        {
          "internalType": "uint256",
          "name": "_newInterest",
          "type": "uint256"
        }
      ],
      "name": "setLendInterest",
      "outputs": [],
      "stateMutability": "nonpayable",
      "type": "function"
    }
  ],
  "bytecode": {
    "object": "0x60c060405260036001553480156200001657600080fd5b506040516200195238038062001952833981016040819052620000399162000082565b600080546001600160a01b0319166001600160a01b039485161790559082166080521660a052620000cc565b80516001600160a01b03811681146200007d57600080fd5b919050565b6000806000606084860312156200009857600080fd5b620000a38462000065565b9250620000b36020850162000065565b9150620000c36040850162000065565b90509250925092565b60805160a0516117d46200017e60003960008181610214015281816103950152818161046e015281816109ac01528181610a8501528181610de901528181610ec2015281816111e701526112c001526000818161023a015281816103db0152818161049d01528181610535015281816109f201528181610ab401528181610b4c01528181610e2f01528181610ef101528181610f890152818161122d015281816112ef015261138701526117d46000f3fe608060405234801561001057600080fd5b50600436106100ea5760003560e01c80639c675eaa1161008c578063b8d93b3e11610066578063b8d93b3e146101ff578063ca30e60314610212578063d54f7d5e14610238578063ea20839f1461025e57600080fd5b80639c675eaa146101b4578063a037accb146101d9578063ad5cdeb9146101ec57600080fd5b806372a24620116100c857806372a246201461012a57806375151b631461013d578063756742f81461017e5780638aaa2284146101a157600080fd5b806348dbd3ab146100ef57806350eb6199146101045780635a91b39c14610117575b600080fd5b6101026100fd36600461147b565b61026f565b005b6101026101123660046114e8565b6105f6565b6101026101253660046114e8565b61071c565b610102610138366004611512565b6107ee565b61016961014b36600461155f565b6001600160a01b031660009081526002602052604090205460ff1690565b60405190151581526020015b60405180910390f35b61016961018c36600461155f565b60026020526000908152604090205460ff1681565b6101026101af366004611592565b610bf9565b6000546001600160a01b03165b6040516001600160a01b039091168152602001610175565b6101026101e73660046115c9565b610c4f565b6101026101fa36600461147b565b610ca1565b61010261020d366004611512565b61104b565b7f00000000000000000000000000000000000000000000000000000000000000006101c1565b7f00000000000000000000000000000000000000000000000000000000000000006101c1565b600154604051908152602001610175565b6001600160a01b038616600090815260026020526040902054869060ff166102aa57604051630859dc9b60e31b815260040160405180910390fd5b6040805160a081019091526001600160a01b03841660c08201526000908060e0810160408051808303601f19018152918152908252516001600160a01b038b81166024830152604482018b905267ffffffffffffffff891660648301528616608482015260209091019060a40160408051601f19818403018152919052602080820180516001600160e01b031663a4039a4960e01b17905290825201600060405190808252806020026020018201604052801561038d57816020015b60408051808201909152600080825260208201528152602001906001900390816103665790505b5081526020017f00000000000000000000000000000000000000000000000000000000000000006001600160a01b0316815260200160405180602001604052806000815250815250905060007f00000000000000000000000000000000000000000000000000000000000000006001600160a01b03166320487ded88846040518363ffffffff1660e01b8152600401610427929190611628565b602060405180830381865afa158015610444573d6000803e3d6000fd5b505050506040513d601f19601f820116820180604052508101906104689190611702565b905060007f00000000000000000000000000000000000000000000000000000000000000006001600160a01b031663095ea7b37f0000000000000000000000000000000000000000000000000000000000000000846040518363ffffffff1660e01b81526004016104da92919061171b565b6020604051808303816000875af11580156104f9573d6000803e3d6000fd5b505050506040513d601f19601f8201168201806040525081019061051d9190611734565b506040516396f4e9f960e01b81526001600160a01b037f000000000000000000000000000000000000000000000000000000000000000016906396f4e9f99061056c908b908790600401611628565b6020604051808303816000875af115801561058b573d6000803e3d6000fd5b505050506040513d601f19601f820116820180604052508101906105af9190611702565b90507f35aec91804e8f868038fdfceefae7d746b9515eba7d81c64f117261318557e3f816040516105e291815260200190565b60405180910390a150505050505050505050565b6001600160a01b038216600090815260026020526040902054829060ff1661063157604051630859dc9b60e31b815260040160405180910390fd5b6000836001600160a01b031663a9059cbb336064600154876106539190611751565b61065d919061177c565b6040518363ffffffff1660e01b815260040161067a92919061171b565b6020604051808303816000875af1158015610699573d6000803e3d6000fd5b505050506040513d601f19601f820116820180604052508101906106bd9190611734565b9050806106dd5760405163498e7d9160e11b815260040160405180910390fd5b7f7b282a6030def64348fe6b7dc3ee3b8fc0649c03781c7d5bcf1a2518e6073328848460405161070e92919061171b565b60405180910390a150505050565b60405163a9059cbb60e01b81526000906001600160a01b0384169063a9059cbb9061074d903390869060040161171b565b6020604051808303816000875af115801561076c573d6000803e3d6000fd5b505050506040513d601f19601f820116820180604052508101906107909190611734565b9050806107b05760405163de239d7760e01b815260040160405180910390fd5b7f94a38080f852f78f49d690a2ed2327cdf48af975749bc55adfe9b0a000fc363283836040516107e192919061171b565b60405180910390a1505050565b6001600160a01b038416600090815260026020526040902054849060ff1661082957604051630859dc9b60e31b815260040160405180910390fd5b838060000361084b576040516313cfbd0d60e11b815260040160405180910390fd5b6040516323b872dd60e01b8152336004820152306024820152604481018690526000906001600160a01b038816906323b872dd906064016020604051808303816000875af11580156108a1573d6000803e3d6000fd5b505050506040513d601f19601f820116820180604052508101906108c59190611734565b9050806108e5576040516303ab574160e11b815260040160405180910390fd5b6040805160a081019091526001600160a01b03851660c08201526000908060e081016040516020818303038152906040528152602001898960405160240161092e92919061171b565b60408051601f19818403018152919052602080820180516001600160e01b031663a2fb342d60e01b1790529082520160006040519080825280602002602001820160405280156109a457816020015b604080518082019091526000808252602082015281526020019060019003908161097d5790505b5081526020017f00000000000000000000000000000000000000000000000000000000000000006001600160a01b0316815260200160405180602001604052806000815250815250905060007f00000000000000000000000000000000000000000000000000000000000000006001600160a01b03166320487ded88846040518363ffffffff1660e01b8152600401610a3e929190611628565b602060405180830381865afa158015610a5b573d6000803e3d6000fd5b505050506040513d601f19601f82011682018060405250810190610a7f9190611702565b905060007f00000000000000000000000000000000000000000000000000000000000000006001600160a01b031663095ea7b37f0000000000000000000000000000000000000000000000000000000000000000846040518363ffffffff1660e01b8152600401610af192919061171b565b6020604051808303816000875af1158015610b10573d6000803e3d6000fd5b505050506040513d601f19601f82011682018060405250810190610b349190611734565b506040516396f4e9f960e01b81526001600160a01b037f000000000000000000000000000000000000000000000000000000000000000016906396f4e9f990610b83908b908790600401611628565b6020604051808303816000875af1158015610ba2573d6000803e3d6000fd5b505050506040513d601f19601f82011682018060405250810190610bc69190611702565b90507f914c00bd085c89af5dac4609700f5d942253ee6988786ee016196a3137f1c892816040516105e291815260200190565b6000546001600160a01b03163314610c245760405163766ade3560e01b815260040160405180910390fd5b6001600160a01b03919091166000908152600260205260409020805460ff1916911515919091179055565b6000546001600160a01b03163314610c7a5760405163766ade3560e01b815260040160405180910390fd5b600a811015610c9c5760405163f5cf2f7b60e01b815260040160405180910390fd5b600155565b6001600160a01b038616600090815260026020526040902054869060ff16610cdc57604051630859dc9b60e31b815260040160405180910390fd5b8580600003610cfe576040516313cfbd0d60e11b815260040160405180910390fd5b6040805160a081019091526001600160a01b03851660c08201526000908060e0810160408051808303601f19018152918152908252516001600160a01b038c81166024830152604482018c905267ffffffffffffffff8a1660648301528716608482015260209091019060a40160408051601f19818403018152919052602080820180516001600160e01b0316631b04a89560e21b179052908252016000604051908082528060200260200182016040528015610de157816020015b6040805180820190915260008082526020820152815260200190600190039081610dba5790505b5081526020017f00000000000000000000000000000000000000000000000000000000000000006001600160a01b0316815260200160405180602001604052806000815250815250905060007f00000000000000000000000000000000000000000000000000000000000000006001600160a01b03166320487ded89846040518363ffffffff1660e01b8152600401610e7b929190611628565b602060405180830381865afa158015610e98573d6000803e3d6000fd5b505050506040513d601f19601f82011682018060405250810190610ebc9190611702565b905060007f00000000000000000000000000000000000000000000000000000000000000006001600160a01b031663095ea7b37f0000000000000000000000000000000000000000000000000000000000000000846040518363ffffffff1660e01b8152600401610f2e92919061171b565b6020604051808303816000875af1158015610f4d573d6000803e3d6000fd5b505050506040513d601f19601f82011682018060405250810190610f719190611734565b506040516396f4e9f960e01b81526001600160a01b037f000000000000000000000000000000000000000000000000000000000000000016906396f4e9f990610fc0908c908790600401611628565b6020604051808303816000875af1158015610fdf573d6000803e3d6000fd5b505050506040513d601f19601f820116820180604052508101906110039190611702565b90507f9cdeb1d153c2185c5b139f90b57371cee6c9f24801967763cc2344163dcf825a8160405161103691815260200190565b60405180910390a15050505050505050505050565b6001600160a01b038416600090815260026020526040902054849060ff1661108657604051630859dc9b60e31b815260040160405180910390fd5b6040516323b872dd60e01b8152336004820152306024820152604481018590526000906001600160a01b038716906323b872dd906064016020604051808303816000875af11580156110dc573d6000803e3d6000fd5b505050506040513d601f19601f820116820180604052508101906111009190611734565b905080611120576040516307a6c4d960e31b815260040160405180910390fd5b6040805160a081019091526001600160a01b03841660c08201526000908060e081016040516020818303038152906040528152602001888860405160240161116992919061171b565b60408051601f19818403018152919052602080820180516001600160e01b031663081d819560e31b1790529082520160006040519080825280602002602001820160405280156111df57816020015b60408051808201909152600080825260208201528152602001906001900390816111b85790505b5081526020017f00000000000000000000000000000000000000000000000000000000000000006001600160a01b0316815260200160405180602001604052806000815250815250905060007f00000000000000000000000000000000000000000000000000000000000000006001600160a01b03166320487ded87846040518363ffffffff1660e01b8152600401611279929190611628565b602060405180830381865afa158015611296573d6000803e3d6000fd5b505050506040513d601f19601f820116820180604052508101906112ba9190611702565b905060007f00000000000000000000000000000000000000000000000000000000000000006001600160a01b031663095ea7b37f0000000000000000000000000000000000000000000000000000000000000000846040518363ffffffff1660e01b815260040161132c92919061171b565b6020604051808303816000875af115801561134b573d6000803e3d6000fd5b505050506040513d601f19601f8201168201806040525081019061136f9190611734565b506040516396f4e9f960e01b81526001600160a01b037f000000000000000000000000000000000000000000000000000000000000000016906396f4e9f9906113be908a908790600401611628565b6020604051808303816000875af11580156113dd573d6000803e3d6000fd5b505050506040513d601f19601f820116820180604052508101906114019190611702565b90507f684b2684a348f85b207176a78a633ab7ef8f38c7af349441ce8598834f71f5318160405161143491815260200190565b60405180910390a1505050505050505050565b80356001600160a01b038116811461145e57600080fd5b919050565b803567ffffffffffffffff8116811461145e57600080fd5b60008060008060008060c0878903121561149457600080fd5b61149d87611447565b9550602087013594506114b260408801611463565b93506114c060608801611463565b92506114ce60808801611447565b91506114dc60a08801611447565b90509295509295509295565b600080604083850312156114fb57600080fd5b61150483611447565b946020939093013593505050565b6000806000806080858703121561152857600080fd5b61153185611447565b93506020850135925061154660408601611463565b915061155460608601611447565b905092959194509250565b60006020828403121561157157600080fd5b61157a82611447565b9392505050565b801515811461158f57600080fd5b50565b600080604083850312156115a557600080fd5b6115ae83611447565b915060208301356115be81611581565b809150509250929050565b6000602082840312156115db57600080fd5b5035919050565b6000815180845260005b81811015611608576020818501810151868301820152016115ec565b506000602082860101526020601f19601f83011685010191505092915050565b6000604067ffffffffffffffff8516835260208181850152845160a08386015261165560e08601826115e2565b905081860151603f198087840301606088015261167283836115e2565b88860151888203830160808a01528051808352908601945060009350908501905b808410156116c557845180516001600160a01b0316835286015186830152938501936001939093019290860190611693565b5060608901516001600160a01b031660a08901526080890151888203830160c08a015295506116f481876115e2565b9a9950505050505050505050565b60006020828403121561171457600080fd5b5051919050565b6001600160a01b03929092168252602082015260400190565b60006020828403121561174657600080fd5b815161157a81611581565b808202811582820484141761177657634e487b7160e01b600052601160045260246000fd5b92915050565b60008261179957634e487b7160e01b600052601260045260246000fd5b50049056fea26469706673582212209e837165a7a43a30026bc77e7fc047df1cef606f5632a9138e95d27a8b68184164736f6c63430008130033",
    "linkReferences": {}
  },
  "methodIdentifiers": {
    "allowedToken(address)": "756742f8",
    "borrowToken(address,uint256)": "5a91b39c",
    "borrowTokenMessage(address,uint256,uint64,uint64,address,address)": "ad5cdeb9",
    "getLendInterestRate()": "ea20839f",
    "getLinkAddress()": "ca30e603",
    "getRouterAddress()": "d54f7d5e",
    "isTokenSupported(address)": "75151b63",
    "lendToken(address,uint256,uint64,address)": "72a24620",
    "ownerAddr()": "9c675eaa",
    "rePayFullAmount(address,uint256,uint64,address)": "b8d93b3e",
    "removeLend(address,uint256)": "50eb6199",
    "removeLendMessage(address,uint256,uint64,uint64,address,address)": "48dbd3ab",
    "setAllowedToken(address,bool)": "8aaa2284",
    "setLendInterest(uint256)": "a037accb"
  },
  "id": 32
}