{
  "abi": [
    {
      "inputs": [
        {
          "internalType": "address",
          "name": "_owner",
          "type": "address"
        },
        {
          "internalType": "address",
          "name": "_router",
          "type": "address"
        },
        {
          "internalType": "address",
          "name": "_link",
          "type": "address"
        }
      ],
      "stateMutability": "nonpayable",
      "type": "constructor"
    },
    {
      "inputs": [],
      "name": "BORROW_LIMIT_EXCEED",
      "type": "error"
    },
    {
      "inputs": [],
      "name": "FAILED_TO_BORROW",
      "type": "error"
    },
    {
      "inputs": [],
      "name": "FAILED_TO_LEND",
      "type": "error"
    },
    {
      "inputs": [],
      "name": "FAILED_TO_REPAY",
      "type": "error"
    },
    {
      "inputs": [],
      "name": "FAILED_TO_WITHDRAW",
      "type": "error"
    },
    {
      "inputs": [],
      "name": "NOT_ENOUGH_AMOUNT_REPAYFULL",
      "type": "error"
    },
    {
      "inputs": [],
      "name": "NOT_ENOUGH_TOKEN_LENDED",
      "type": "error"
    },
    {
      "inputs": [],
      "name": "ONLY_OWNER_CALL_THIS_FUNCTION",
      "type": "error"
    },
    {
      "inputs": [],
      "name": "TOKEN_NOT_SUPPORTED",
      "type": "error"
    },
    {
      "anonymous": false,
      "inputs": [
        {
          "indexed": false,
          "internalType": "bytes32",
          "name": "messageId",
          "type": "bytes32"
        }
      ],
      "name": "BorrowMessageSent",
      "type": "event"
    },
    {
      "anonymous": false,
      "inputs": [
        {
          "indexed": false,
          "internalType": "bytes32",
          "name": "messageId",
          "type": "bytes32"
        }
      ],
      "name": "LendMessageSent",
      "type": "event"
    },
    {
      "anonymous": false,
      "inputs": [
        {
          "indexed": false,
          "internalType": "bytes32",
          "name": "messageId",
          "type": "bytes32"
        }
      ],
      "name": "RePayMessageSent",
      "type": "event"
    },
    {
      "anonymous": false,
      "inputs": [
        {
          "indexed": false,
          "internalType": "bytes32",
          "name": "messageId",
          "type": "bytes32"
        }
      ],
      "name": "RemoveLendMessageSent",
      "type": "event"
    },
    {
      "inputs": [
        {
          "internalType": "address",
          "name": "",
          "type": "address"
        }
      ],
      "name": "allowedBalanceContract",
      "outputs": [
        {
          "internalType": "bool",
          "name": "",
          "type": "bool"
        }
      ],
      "stateMutability": "view",
      "type": "function"
    },
    {
      "inputs": [
        {
          "internalType": "address",
          "name": "",
          "type": "address"
        }
      ],
      "name": "allowedToken",
      "outputs": [
        {
          "internalType": "bool",
          "name": "",
          "type": "bool"
        }
      ],
      "stateMutability": "view",
      "type": "function"
    },
    {
      "inputs": [
        {
          "internalType": "uint256",
          "name": "",
          "type": "uint256"
        }
      ],
      "name": "allowedTokenArray",
      "outputs": [
        {
          "internalType": "address",
          "name": "",
          "type": "address"
        }
      ],
      "stateMutability": "view",
      "type": "function"
    },
    {
      "inputs": [
        {
          "internalType": "address",
          "name": "",
          "type": "address"
        }
      ],
      "name": "borrowBalance",
      "outputs": [
        {
          "internalType": "uint256",
          "name": "",
          "type": "uint256"
        }
      ],
      "stateMutability": "view",
      "type": "function"
    },
    {
      "inputs": [
        {
          "internalType": "address",
          "name": "_token",
          "type": "address"
        },
        {
          "internalType": "uint256",
          "name": "_amount",
          "type": "uint256"
        }
      ],
      "name": "borrowToken",
      "outputs": [],
      "stateMutability": "nonpayable",
      "type": "function"
    },
    {
      "inputs": [
        {
          "internalType": "address",
          "name": "_token",
          "type": "address"
        },
        {
          "internalType": "uint256",
          "name": "_amount",
          "type": "uint256"
        },
        {
          "internalType": "uint64",
          "name": "destinationChainSelector",
          "type": "uint64"
        },
        {
          "internalType": "address",
          "name": "_receiver",
          "type": "address"
        },
        {
          "internalType": "enum SourceContract.PayFeesIn",
          "name": "payFeesIn",
          "type": "uint8"
        }
      ],
      "name": "borrowTokenMessage",
      "outputs": [],
      "stateMutability": "nonpayable",
      "type": "function"
    },
    {
      "inputs": [
        {
          "internalType": "address",
          "name": "_user",
          "type": "address"
        }
      ],
      "name": "getAlreadyBorrowed",
      "outputs": [
        {
          "internalType": "uint256",
          "name": "",
          "type": "uint256"
        }
      ],
      "stateMutability": "view",
      "type": "function"
    },
    {
      "inputs": [
        {
          "internalType": "address",
          "name": "_user",
          "type": "address"
        }
      ],
      "name": "getBorrowLimit",
      "outputs": [
        {
          "internalType": "uint256",
          "name": "",
          "type": "uint256"
        }
      ],
      "stateMutability": "view",
      "type": "function"
    },
    {
      "inputs": [
        {
          "internalType": "address",
          "name": "_user",
          "type": "address"
        }
      ],
      "name": "getBorrowLimitLeft",
      "outputs": [
        {
          "internalType": "uint256",
          "name": "",
          "type": "uint256"
        }
      ],
      "stateMutability": "view",
      "type": "function"
    },
    {
      "inputs": [
        {
          "internalType": "address",
          "name": "_user",
          "type": "address"
        },
        {
          "internalType": "address",
          "name": "_token",
          "type": "address"
        }
      ],
      "name": "getBorrowTokenAmount",
      "outputs": [
        {
          "internalType": "uint256",
          "name": "",
          "type": "uint256"
        }
      ],
      "stateMutability": "view",
      "type": "function"
    },
    {
      "inputs": [
        {
          "internalType": "address",
          "name": "_user",
          "type": "address"
        }
      ],
      "name": "getUserLendAmount",
      "outputs": [
        {
          "internalType": "uint256",
          "name": "",
          "type": "uint256"
        }
      ],
      "stateMutability": "view",
      "type": "function"
    },
    {
      "inputs": [
        {
          "internalType": "address",
          "name": "_user",
          "type": "address"
        },
        {
          "internalType": "address",
          "name": "_token",
          "type": "address"
        }
      ],
      "name": "getUserLendTokenAmount",
      "outputs": [
        {
          "internalType": "uint256",
          "name": "",
          "type": "uint256"
        }
      ],
      "stateMutability": "view",
      "type": "function"
    },
    {
      "inputs": [],
      "name": "i_link",
      "outputs": [
        {
          "internalType": "address",
          "name": "",
          "type": "address"
        }
      ],
      "stateMutability": "view",
      "type": "function"
    },
    {
      "inputs": [],
      "name": "i_router",
      "outputs": [
        {
          "internalType": "address",
          "name": "",
          "type": "address"
        }
      ],
      "stateMutability": "view",
      "type": "function"
    },
    {
      "inputs": [
        {
          "internalType": "address",
          "name": "",
          "type": "address"
        }
      ],
      "name": "isEthereum",
      "outputs": [
        {
          "internalType": "bool",
          "name": "",
          "type": "bool"
        }
      ],
      "stateMutability": "view",
      "type": "function"
    },
    {
      "inputs": [
        {
          "internalType": "address",
          "name": "_token",
          "type": "address"
        }
      ],
      "name": "isTokenSupported",
      "outputs": [
        {
          "internalType": "bool",
          "name": "",
          "type": "bool"
        }
      ],
      "stateMutability": "view",
      "type": "function"
    },
    {
      "inputs": [
        {
          "internalType": "address",
          "name": "_token",
          "type": "address"
        },
        {
          "internalType": "uint256",
          "name": "_amount",
          "type": "uint256"
        },
        {
          "internalType": "uint64",
          "name": "destinationChainSelector",
          "type": "uint64"
        },
        {
          "internalType": "address",
          "name": "receiver",
          "type": "address"
        },
        {
          "internalType": "enum SourceContract.PayFeesIn",
          "name": "payFeesIn",
          "type": "uint8"
        }
      ],
      "name": "lendToken",
      "outputs": [],
      "stateMutability": "nonpayable",
      "type": "function"
    },
    {
      "inputs": [],
      "name": "ownerAddr",
      "outputs": [
        {
          "internalType": "address",
          "name": "",
          "type": "address"
        }
      ],
      "stateMutability": "view",
      "type": "function"
    },
    {
      "inputs": [
        {
          "internalType": "address",
          "name": "_token",
          "type": "address"
        },
        {
          "internalType": "uint256",
          "name": "_amount",
          "type": "uint256"
        },
        {
          "internalType": "uint64",
          "name": "destinationChainSelector",
          "type": "uint64"
        },
        {
          "internalType": "address",
          "name": "_receiver",
          "type": "address"
        },
        {
          "internalType": "enum SourceContract.PayFeesIn",
          "name": "payFeesIn",
          "type": "uint8"
        }
      ],
      "name": "rePayFullAmount",
      "outputs": [],
      "stateMutability": "nonpayable",
      "type": "function"
    },
    {
      "inputs": [
        {
          "internalType": "address",
          "name": "_token",
          "type": "address"
        },
        {
          "internalType": "uint256",
          "name": "_amount",
          "type": "uint256"
        }
      ],
      "name": "removeLend",
      "outputs": [],
      "stateMutability": "nonpayable",
      "type": "function"
    },
    {
      "inputs": [
        {
          "internalType": "address",
          "name": "_token",
          "type": "address"
        },
        {
          "internalType": "uint256",
          "name": "_amount",
          "type": "uint256"
        },
        {
          "internalType": "uint64",
          "name": "destinationChainSelector",
          "type": "uint64"
        },
        {
          "internalType": "address",
          "name": "_receiver",
          "type": "address"
        },
        {
          "internalType": "enum SourceContract.PayFeesIn",
          "name": "payFeesIn",
          "type": "uint8"
        }
      ],
      "name": "removeLendMessage",
      "outputs": [],
      "stateMutability": "nonpayable",
      "type": "function"
    },
    {
      "inputs": [
        {
          "internalType": "address",
          "name": "_tokenAddress",
          "type": "address"
        },
        {
          "internalType": "bool",
          "name": "_allowed",
          "type": "bool"
        }
      ],
      "name": "setAllowedToken",
      "outputs": [],
      "stateMutability": "nonpayable",
      "type": "function"
    },
    {
      "inputs": [
        {
          "internalType": "address",
          "name": "_tokenAddress",
          "type": "address"
        },
        {
          "internalType": "bool",
          "name": "_allowed",
          "type": "bool"
        }
      ],
      "name": "setIsEthereum",
      "outputs": [],
      "stateMutability": "nonpayable",
      "type": "function"
    },
    {
      "inputs": [
        {
          "internalType": "uint256",
          "name": "_newThreshold",
          "type": "uint256"
        }
      ],
      "name": "setThreshold",
      "outputs": [],
      "stateMutability": "nonpayable",
      "type": "function"
    },
    {
      "inputs": [],
      "name": "threshold",
      "outputs": [
        {
          "internalType": "uint256",
          "name": "",
          "type": "uint256"
        }
      ],
      "stateMutability": "view",
      "type": "function"
    },
    {
      "inputs": [
        {
          "internalType": "address",
          "name": "",
          "type": "address"
        },
        {
          "internalType": "address",
          "name": "",
          "type": "address"
        }
      ],
      "name": "userBorrowTokenBalance",
      "outputs": [
        {
          "internalType": "uint256",
          "name": "",
          "type": "uint256"
        }
      ],
      "stateMutability": "view",
      "type": "function"
    },
    {
      "inputs": [
        {
          "internalType": "address",
          "name": "",
          "type": "address"
        }
      ],
      "name": "userLendBalance",
      "outputs": [
        {
          "internalType": "uint256",
          "name": "",
          "type": "uint256"
        }
      ],
      "stateMutability": "view",
      "type": "function"
    },
    {
      "inputs": [
        {
          "internalType": "address",
          "name": "",
          "type": "address"
        },
        {
          "internalType": "address",
          "name": "",
          "type": "address"
        }
      ],
      "name": "userLendTokenBalance",
      "outputs": [
        {
          "internalType": "uint256",
          "name": "",
          "type": "uint256"
        }
      ],
      "stateMutability": "view",
      "type": "function"
    }
  ],
  "bytecode": {
    "object": "0x60c060405260506001553480156200001657600080fd5b506040516200200538038062002005833981016040819052620000399162000082565b600080546001600160a01b0319166001600160a01b039485161790559082166080521660a052620000cc565b80516001600160a01b03811681146200007d57600080fd5b919050565b6000806000606084860312156200009857600080fd5b620000a38462000065565b9250620000b36020850162000065565b9150620000c36040850162000065565b90509250925092565b60805160a051611e6b6200019a600039600081816103c90152818161064a0152818161078101528181610a8501528181610bbc01528181610f4b01528181611082015281816114a401526115db0152600081816102fa0152818161069101528181610752015281816108060152818161089e01528181610acc01528181610b8d01528181610c4101528181610cd901528181610f9201528181611053015281816111070152818161119f015281816114eb015281816115ac0152818161166001526116f80152611e6b6000f3fe608060405234801561001057600080fd5b50600436106101c45760003560e01c80635c88a926116100f9578063960bfe0411610097578063a824ed4f11610071578063a824ed4f1461046e578063b206d8f01461048e578063cbf45241146104c7578063e09e4ac0146104f257600080fd5b8063960bfe041461042157806398041a3e146104345780639c675eaa1461045d57600080fd5b80637c17d237116100d35780637c17d237146103b15780637d253aff146103c457806386e36267146103eb5780638aaa22841461040e57600080fd5b80635c88a9261461032f57806375151b6314610362578063756742f81461038e57600080fd5b8063350287ab116101665780634d73e9ba116101405780634d73e9ba146102c257806350eb6199146102e2578063581bdd16146102f55780635a91b39c1461031c57600080fd5b8063350287ab1461027b57806341c4258f1461028e57806342cde4e8146102b957600080fd5b806329137abc116101a257806329137abc14610204578063294a55121461022a57806329c0b23a146102555780632d8319201461026857600080fd5b80630e4ebfa2146101c9578063268d2a30146101de57806326a0ac3e146101f1575b600080fd5b6101dc6101d7366004611ab5565b61051b565b005b6101dc6101ec366004611ab5565b61095c565b6101dc6101ff366004611ab5565b610d88565b610217610212366004611b2a565b61125e565b6040519081526020015b60405180910390f35b61023d610238366004611b5d565b61128b565b6040516001600160a01b039091168152602001610221565b610217610263366004611b76565b6112b5565b6101dc610276366004611ab5565b6112e1565b6101dc610289366004611ba9565b6117a7565b61021761029c366004611b2a565b600260209081526000928352604080842090915290825290205481565b61021760015481565b6102176102d0366004611b76565b60066020526000908152604090205481565b6101dc6102f0366004611be0565b6117fd565b61023d7f000000000000000000000000000000000000000000000000000000000000000081565b6101dc61032a366004611be0565b611901565b61035261033d366004611b76565b60086020526000908152604090205460ff1681565b6040519015158152602001610221565b610352610370366004611b76565b6001600160a01b031660009081526007602052604090205460ff1690565b61035261039c366004611b76565b60076020526000908152604090205460ff1681565b6102176103bf366004611b76565b6119a0565b61023d7f000000000000000000000000000000000000000000000000000000000000000081565b6103526103f9366004611b76565b60046020526000908152604090205460ff1681565b6101dc61041c366004611ba9565b6119d1565b6101dc61042f366004611b5d565b611a69565b610217610442366004611b76565b6001600160a01b031660009081526006602052604090205490565b6000546001600160a01b031661023d565b61021761047c366004611b76565b60036020526000908152604090205481565b61021761049c366004611b2a565b6001600160a01b03918216600090815260026020908152604080832093909416825291909152205490565b6102176104d5366004611b2a565b600560209081526000928352604080842090915290825290205481565b610217610500366004611b76565b6001600160a01b031660009081526003602052604090205490565b6001600160a01b038516600090815260076020526040902054859060ff161561055757604051630859dc9b60e31b815260040160405180910390fd5b6040805160a081019091526001600160a01b03841660c08201526000908060e0810160408051808303601f19018152918152908252516001600160a01b038a1660248201526044810189905260209091019060640160408051601f19818403018152919052602080820180516001600160e01b03166327dbf46d60e21b17905290825201600060405190808252806020026020018201604052801561062257816020015b60408051808201909152600080825260208201528152602001906001900390816105fb5790505b508152602001600185600181111561063c5761063c611c0a565b1461064857600061066a565b7f00000000000000000000000000000000000000000000000000000000000000005b6001600160a01b0316815260200160405180602001604052806000815250815250905060007f00000000000000000000000000000000000000000000000000000000000000006001600160a01b03166320487ded87846040518363ffffffff1660e01b81526004016106dd929190611c66565b602060405180830381865afa1580156106fa573d6000803e3d6000fd5b505050506040513d601f19601f8201168201806040525081019061071e9190611d40565b90506000600185600181111561073657610736611c0a565b036108875760405163095ea7b360e01b81526001600160a01b037f000000000000000000000000000000000000000000000000000000000000000081166004830152602482018490527f0000000000000000000000000000000000000000000000000000000000000000169063095ea7b3906044016020604051808303816000875af11580156107ca573d6000803e3d6000fd5b505050506040513d601f19601f820116820180604052508101906107ee9190611d59565b506040516396f4e9f960e01b81526001600160a01b037f000000000000000000000000000000000000000000000000000000000000000016906396f4e9f99061083d908a908790600401611c66565b6020604051808303816000875af115801561085c573d6000803e3d6000fd5b505050506040513d601f19601f820116820180604052508101906108809190611d40565b905061091d565b6040516396f4e9f960e01b81526001600160a01b037f000000000000000000000000000000000000000000000000000000000000000016906396f4e9f99084906108d7908b908890600401611c66565b60206040518083038185885af11580156108f5573d6000803e3d6000fd5b50505050506040513d601f19601f8201168201806040525081019061091a9190611d40565b90505b6040518181527f35aec91804e8f868038fdfceefae7d746b9515eba7d81c64f117261318557e3f906020015b60405180910390a1505050505050505050565b6001600160a01b038516600090815260076020526040902054859060ff161561099857604051630859dc9b60e31b815260040160405180910390fd5b6040805160a081019091526001600160a01b03841660c08201526000908060e08101604051602081830303815290604052815260200188888888886040516024016109e7959493929190611d76565b60408051601f19818403018152919052602080820180516001600160e01b0316631a8609f960e01b179052908252016000604051908082528060200260200182016040528015610a5d57816020015b6040805180820190915260008082526020820152815260200190600190039081610a365790505b5081526020016001856001811115610a7757610a77611c0a565b14610a83576000610aa5565b7f00000000000000000000000000000000000000000000000000000000000000005b6001600160a01b0316815260200160405180602001604052806000815250815250905060007f00000000000000000000000000000000000000000000000000000000000000006001600160a01b03166320487ded87846040518363ffffffff1660e01b8152600401610b18929190611c66565b602060405180830381865afa158015610b35573d6000803e3d6000fd5b505050506040513d601f19601f82011682018060405250810190610b599190611d40565b905060006001856001811115610b7157610b71611c0a565b03610cc25760405163095ea7b360e01b81526001600160a01b037f000000000000000000000000000000000000000000000000000000000000000081166004830152602482018490527f0000000000000000000000000000000000000000000000000000000000000000169063095ea7b3906044016020604051808303816000875af1158015610c05573d6000803e3d6000fd5b505050506040513d601f19601f82011682018060405250810190610c299190611d59565b506040516396f4e9f960e01b81526001600160a01b037f000000000000000000000000000000000000000000000000000000000000000016906396f4e9f990610c78908a908790600401611c66565b6020604051808303816000875af1158015610c97573d6000803e3d6000fd5b505050506040513d601f19601f82011682018060405250810190610cbb9190611d40565b9050610d58565b6040516396f4e9f960e01b81526001600160a01b037f000000000000000000000000000000000000000000000000000000000000000016906396f4e9f9908490610d12908b908890600401611c66565b60206040518083038185885af1158015610d30573d6000803e3d6000fd5b50505050506040513d601f19601f82011682018060405250810190610d559190611d40565b90505b6040518181527f9cdeb1d153c2185c5b139f90b57371cee6c9f24801967763cc2344163dcf825a90602001610949565b6001600160a01b038516600090815260076020526040902054859060ff1615610dc457604051630859dc9b60e31b815260040160405180910390fd5b60405163a9059cbb60e01b8152306004820152602481018690526000906001600160a01b0388169063a9059cbb906044016020604051808303816000875af1158015610e14573d6000803e3d6000fd5b505050506040513d601f19601f82011682018060405250810190610e389190611d59565b905080610e58576040516307a6c4d960e31b815260040160405180910390fd5b6040805160a081019091526001600160a01b03851660c08201526000908060e0810160408051808303601f19018152918152908252516001600160a01b038b166024820152604481018a905260209091019060640160408051601f19818403018152919052602080820180516001600160e01b031663081d819560e31b179052908252016000604051908082528060200260200182016040528015610f2357816020015b6040805180820190915260008082526020820152815260200190600190039081610efc5790505b5081526020016001866001811115610f3d57610f3d611c0a565b14610f49576000610f6b565b7f00000000000000000000000000000000000000000000000000000000000000005b6001600160a01b0316815260200160405180602001604052806000815250815250905060007f00000000000000000000000000000000000000000000000000000000000000006001600160a01b03166320487ded88846040518363ffffffff1660e01b8152600401610fde929190611c66565b602060405180830381865afa158015610ffb573d6000803e3d6000fd5b505050506040513d601f19601f8201168201806040525081019061101f9190611d40565b90506000600186600181111561103757611037611c0a565b036111885760405163095ea7b360e01b81526001600160a01b037f000000000000000000000000000000000000000000000000000000000000000081166004830152602482018490527f0000000000000000000000000000000000000000000000000000000000000000169063095ea7b3906044016020604051808303816000875af11580156110cb573d6000803e3d6000fd5b505050506040513d601f19601f820116820180604052508101906110ef9190611d59565b506040516396f4e9f960e01b81526001600160a01b037f000000000000000000000000000000000000000000000000000000000000000016906396f4e9f99061113e908b908790600401611c66565b6020604051808303816000875af115801561115d573d6000803e3d6000fd5b505050506040513d601f19601f820116820180604052508101906111819190611d40565b905061121e565b6040516396f4e9f960e01b81526001600160a01b037f000000000000000000000000000000000000000000000000000000000000000016906396f4e9f99084906111d8908c908890600401611c66565b60206040518083038185885af11580156111f6573d6000803e3d6000fd5b50505050506040513d601f19601f8201168201806040525081019061121b9190611d40565b90505b6040518181527f684b2684a348f85b207176a78a633ab7ef8f38c7af349441ce8598834f71f531906020015b60405180910390a150505050505050505050565b6001600160a01b038083166000908152600560209081526040808320938516835292905220545b92915050565b6009818154811061129b57600080fd5b6000918252602090912001546001600160a01b0316905081565b6001600160a01b0381166000908152600660205260408120546112d7836119a0565b6112859190611de9565b6001600160a01b038516600090815260076020526040902054859060ff161561131d57604051630859dc9b60e31b815260040160405180910390fd5b60405163a9059cbb60e01b8152306004820152602481018690526000906001600160a01b0388169063a9059cbb906044016020604051808303816000875af115801561136d573d6000803e3d6000fd5b505050506040513d601f19601f820116820180604052508101906113919190611d59565b9050806113b1576040516303ab574160e11b815260040160405180910390fd5b6040805160a081019091526001600160a01b03851660c08201526000908060e0810160408051808303601f19018152918152908252516001600160a01b038b166024820152604481018a905260209091019060640160408051601f19818403018152919052602080820180516001600160e01b031663a2fb342d60e01b17905290825201600060405190808252806020026020018201604052801561147c57816020015b60408051808201909152600080825260208201528152602001906001900390816114555790505b508152602001600186600181111561149657611496611c0a565b146114a25760006114c4565b7f00000000000000000000000000000000000000000000000000000000000000005b6001600160a01b0316815260200160405180602001604052806000815250815250905060007f00000000000000000000000000000000000000000000000000000000000000006001600160a01b03166320487ded88846040518363ffffffff1660e01b8152600401611537929190611c66565b602060405180830381865afa158015611554573d6000803e3d6000fd5b505050506040513d601f19601f820116820180604052508101906115789190611d40565b90506000600186600181111561159057611590611c0a565b036116e15760405163095ea7b360e01b81526001600160a01b037f000000000000000000000000000000000000000000000000000000000000000081166004830152602482018490527f0000000000000000000000000000000000000000000000000000000000000000169063095ea7b3906044016020604051808303816000875af1158015611624573d6000803e3d6000fd5b505050506040513d601f19601f820116820180604052508101906116489190611d59565b506040516396f4e9f960e01b81526001600160a01b037f000000000000000000000000000000000000000000000000000000000000000016906396f4e9f990611697908b908790600401611c66565b6020604051808303816000875af11580156116b6573d6000803e3d6000fd5b505050506040513d601f19601f820116820180604052508101906116da9190611d40565b9050611777565b6040516396f4e9f960e01b81526001600160a01b037f000000000000000000000000000000000000000000000000000000000000000016906396f4e9f9908490611731908c908890600401611c66565b60206040518083038185885af115801561174f573d6000803e3d6000fd5b50505050506040513d601f19601f820116820180604052508101906117749190611d40565b90505b6040518181527f914c00bd085c89af5dac4609700f5d942253ee6988786ee016196a3137f1c8929060200161124a565b6000546001600160a01b031633146117d25760405163766ade3560e01b815260040160405180910390fd5b6001600160a01b03919091166000908152600460205260409020805460ff1916911515919091179055565b6001600160a01b038216600090815260076020526040902054829060ff161561183957604051630859dc9b60e31b815260040160405180910390fd5b60006001600160a01b0384166323b872dd30336064611859886003611dfc565b6118639190611e13565b6040516001600160e01b031960e086901b1681526001600160a01b03938416600482015292909116602483015260448201526064016020604051808303816000875af11580156118b7573d6000803e3d6000fd5b505050506040513d601f19601f820116820180604052508101906118db9190611d59565b9050806118fb5760405163498e7d9160e11b815260040160405180910390fd5b50505050565b6040516323b872dd60e01b8152306004820152336024820152604481018290526000906001600160a01b038416906323b872dd906064016020604051808303816000875af1158015611957573d6000803e3d6000fd5b505050506040513d601f19601f8201168201806040525081019061197b9190611d59565b90508061199b5760405163de239d7760e01b815260040160405180910390fd5b505050565b6001600160a01b0381166000908152600360205260408120546064906119c7906050611dfc565b6112859190611e13565b6000546001600160a01b031633146119fc5760405163766ade3560e01b815260040160405180910390fd5b6001600160a01b03919091166000818152600760205260408120805460ff1916931515939093179092556009805460018101825592527f6e1540171b6c0c960b71a7020d9f60077f6af931a8bbf590da0223dacf75c7af90910180546001600160a01b0319169091179055565b6000546001600160a01b03163314611a945760405163766ade3560e01b815260040160405180910390fd5b600155565b80356001600160a01b0381168114611ab057600080fd5b919050565b600080600080600060a08688031215611acd57600080fd5b611ad686611a99565b945060208601359350604086013567ffffffffffffffff81168114611afa57600080fd5b9250611b0860608701611a99565b9150608086013560028110611b1c57600080fd5b809150509295509295909350565b60008060408385031215611b3d57600080fd5b611b4683611a99565b9150611b5460208401611a99565b90509250929050565b600060208284031215611b6f57600080fd5b5035919050565b600060208284031215611b8857600080fd5b611b9182611a99565b9392505050565b8015158114611ba657600080fd5b50565b60008060408385031215611bbc57600080fd5b611bc583611a99565b91506020830135611bd581611b98565b809150509250929050565b60008060408385031215611bf357600080fd5b611bfc83611a99565b946020939093013593505050565b634e487b7160e01b600052602160045260246000fd5b6000815180845260005b81811015611c4657602081850181015186830182015201611c2a565b506000602082860101526020601f19601f83011685010191505092915050565b6000604067ffffffffffffffff8516835260208181850152845160a083860152611c9360e0860182611c20565b905081860151603f1980878403016060880152611cb08383611c20565b88860151888203830160808a01528051808352908601945060009350908501905b80841015611d0357845180516001600160a01b0316835286015186830152938501936001939093019290860190611cd1565b5060608901516001600160a01b031660a08901526080890151888203830160c08a01529550611d328187611c20565b9a9950505050505050505050565b600060208284031215611d5257600080fd5b5051919050565b600060208284031215611d6b57600080fd5b8151611b9181611b98565b6001600160a01b0386811682526020820186905267ffffffffffffffff851660408301528316606082015260a0810160028310611dc357634e487b7160e01b600052602160045260246000fd5b8260808301529695505050505050565b634e487b7160e01b600052601160045260246000fd5b8181038181111561128557611285611dd3565b808202811582820484141761128557611285611dd3565b600082611e3057634e487b7160e01b600052601260045260246000fd5b50049056fea264697066735822122035a1b18c29044286a431920af528526901cc9ce4dbb5d0d8c557a1f598e9f1c964736f6c63430008130033",
    "linkReferences": {}
  },
  "methodIdentifiers": {
    "allowedBalanceContract(address)": "5c88a926",
    "allowedToken(address)": "756742f8",
    "allowedTokenArray(uint256)": "294a5512",
    "borrowBalance(address)": "4d73e9ba",
    "borrowToken(address,uint256)": "5a91b39c",
    "borrowTokenMessage(address,uint256,uint64,address,uint8)": "268d2a30",
    "getAlreadyBorrowed(address)": "98041a3e",
    "getBorrowLimit(address)": "7c17d237",
    "getBorrowLimitLeft(address)": "29c0b23a",
    "getBorrowTokenAmount(address,address)": "29137abc",
    "getUserLendAmount(address)": "e09e4ac0",
    "getUserLendTokenAmount(address,address)": "b206d8f0",
    "i_link()": "7d253aff",
    "i_router()": "581bdd16",
    "isEthereum(address)": "86e36267",
    "isTokenSupported(address)": "75151b63",
    "lendToken(address,uint256,uint64,address,uint8)": "2d831920",
    "ownerAddr()": "9c675eaa",
    "rePayFullAmount(address,uint256,uint64,address,uint8)": "26a0ac3e",
    "removeLend(address,uint256)": "50eb6199",
    "removeLendMessage(address,uint256,uint64,address,uint8)": "0e4ebfa2",
    "setAllowedToken(address,bool)": "8aaa2284",
    "setIsEthereum(address,bool)": "350287ab",
    "setThreshold(uint256)": "960bfe04",
    "threshold()": "42cde4e8",
    "userBorrowTokenBalance(address,address)": "cbf45241",
    "userLendBalance(address)": "a824ed4f",
    "userLendTokenBalance(address,address)": "41c4258f"
  },
  "id": 12
}