{
  "abi": [
    {
      "inputs": [
        {
          "internalType": "address",
          "name": "_owner",
          "type": "address"
        }
      ],
      "stateMutability": "nonpayable",
      "type": "constructor"
    },
    {
      "inputs": [],
      "name": "BORROW_LIMIT_EXCEED",
      "type": "error"
    },
    {
      "inputs": [],
      "name": "FAILED_TO_BORROW",
      "type": "error"
    },
    {
      "inputs": [],
      "name": "FAILED_TO_LEND",
      "type": "error"
    },
    {
      "inputs": [],
      "name": "FAILED_TO_REPAY",
      "type": "error"
    },
    {
      "inputs": [],
      "name": "FAILED_TO_WITHDRAW",
      "type": "error"
    },
    {
      "inputs": [],
      "name": "NOT_ENOUGH_AMOUNT_REPAYFULL",
      "type": "error"
    },
    {
      "inputs": [],
      "name": "NOT_ENOUGH_TOKEN_LENDED",
      "type": "error"
    },
    {
      "inputs": [],
      "name": "ONLY_OWNER_CALL_THIS_FUNCTION",
      "type": "error"
    },
    {
      "inputs": [],
      "name": "TOKEN_NOT_SUPPORTED",
      "type": "error"
    },
    {
      "inputs": [
        {
          "internalType": "address",
          "name": "_token",
          "type": "address"
        },
        {
          "internalType": "uint256",
          "name": "_amount",
          "type": "uint256"
        }
      ],
      "name": "Borrow",
      "outputs": [],
      "stateMutability": "nonpayable",
      "type": "function"
    },
    {
      "inputs": [
        {
          "internalType": "address",
          "name": "",
          "type": "address"
        }
      ],
      "name": "allowedToken",
      "outputs": [
        {
          "internalType": "bool",
          "name": "",
          "type": "bool"
        }
      ],
      "stateMutability": "view",
      "type": "function"
    },
    {
      "inputs": [
        {
          "internalType": "uint256",
          "name": "",
          "type": "uint256"
        }
      ],
      "name": "allowedTokenArray",
      "outputs": [
        {
          "internalType": "address",
          "name": "",
          "type": "address"
        }
      ],
      "stateMutability": "view",
      "type": "function"
    },
    {
      "inputs": [
        {
          "internalType": "address",
          "name": "",
          "type": "address"
        }
      ],
      "name": "borrowBalance",
      "outputs": [
        {
          "internalType": "uint256",
          "name": "",
          "type": "uint256"
        }
      ],
      "stateMutability": "view",
      "type": "function"
    },
    {
      "inputs": [
        {
          "internalType": "address",
          "name": "_user",
          "type": "address"
        }
      ],
      "name": "getAlreadyBorrowed",
      "outputs": [
        {
          "internalType": "uint256",
          "name": "",
          "type": "uint256"
        }
      ],
      "stateMutability": "view",
      "type": "function"
    },
    {
      "inputs": [
        {
          "internalType": "address",
          "name": "_user",
          "type": "address"
        }
      ],
      "name": "getBorrowLimit",
      "outputs": [
        {
          "internalType": "uint256",
          "name": "",
          "type": "uint256"
        }
      ],
      "stateMutability": "view",
      "type": "function"
    },
    {
      "inputs": [
        {
          "internalType": "address",
          "name": "_user",
          "type": "address"
        }
      ],
      "name": "getBorrowLimitLeft",
      "outputs": [
        {
          "internalType": "uint256",
          "name": "",
          "type": "uint256"
        }
      ],
      "stateMutability": "view",
      "type": "function"
    },
    {
      "inputs": [
        {
          "internalType": "address",
          "name": "_user",
          "type": "address"
        },
        {
          "internalType": "address",
          "name": "_token",
          "type": "address"
        }
      ],
      "name": "getBorrowTokenAmount",
      "outputs": [
        {
          "internalType": "uint256",
          "name": "",
          "type": "uint256"
        }
      ],
      "stateMutability": "view",
      "type": "function"
    },
    {
      "inputs": [
        {
          "internalType": "address",
          "name": "_user",
          "type": "address"
        }
      ],
      "name": "getUserLendAmount",
      "outputs": [
        {
          "internalType": "uint256",
          "name": "",
          "type": "uint256"
        }
      ],
      "stateMutability": "view",
      "type": "function"
    },
    {
      "inputs": [
        {
          "internalType": "address",
          "name": "_user",
          "type": "address"
        },
        {
          "internalType": "address",
          "name": "_token",
          "type": "address"
        }
      ],
      "name": "getUserLendTokenAmount",
      "outputs": [
        {
          "internalType": "uint256",
          "name": "",
          "type": "uint256"
        }
      ],
      "stateMutability": "view",
      "type": "function"
    },
    {
      "inputs": [
        {
          "internalType": "address",
          "name": "",
          "type": "address"
        }
      ],
      "name": "isEthereum",
      "outputs": [
        {
          "internalType": "bool",
          "name": "",
          "type": "bool"
        }
      ],
      "stateMutability": "view",
      "type": "function"
    },
    {
      "inputs": [
        {
          "internalType": "address",
          "name": "_token",
          "type": "address"
        }
      ],
      "name": "isTokenSupported",
      "outputs": [
        {
          "internalType": "bool",
          "name": "",
          "type": "bool"
        }
      ],
      "stateMutability": "view",
      "type": "function"
    },
    {
      "inputs": [
        {
          "internalType": "address",
          "name": "_token",
          "type": "address"
        },
        {
          "internalType": "uint256",
          "name": "_amount",
          "type": "uint256"
        }
      ],
      "name": "lend",
      "outputs": [],
      "stateMutability": "nonpayable",
      "type": "function"
    },
    {
      "inputs": [],
      "name": "owner",
      "outputs": [
        {
          "internalType": "address",
          "name": "",
          "type": "address"
        }
      ],
      "stateMutability": "view",
      "type": "function"
    },
    {
      "inputs": [],
      "name": "ownerAddr",
      "outputs": [
        {
          "internalType": "address",
          "name": "",
          "type": "address"
        }
      ],
      "stateMutability": "view",
      "type": "function"
    },
    {
      "inputs": [
        {
          "internalType": "address",
          "name": "_token",
          "type": "address"
        },
        {
          "internalType": "uint256",
          "name": "_amount",
          "type": "uint256"
        }
      ],
      "name": "rePayFull",
      "outputs": [],
      "stateMutability": "nonpayable",
      "type": "function"
    },
    {
      "inputs": [
        {
          "internalType": "address",
          "name": "_tokenAddress",
          "type": "address"
        },
        {
          "internalType": "bool",
          "name": "_allowed",
          "type": "bool"
        }
      ],
      "name": "setAllowedToken",
      "outputs": [],
      "stateMutability": "nonpayable",
      "type": "function"
    },
    {
      "inputs": [
        {
          "internalType": "address",
          "name": "_tokenAddress",
          "type": "address"
        },
        {
          "internalType": "bool",
          "name": "_allowed",
          "type": "bool"
        }
      ],
      "name": "setIsEthereum",
      "outputs": [],
      "stateMutability": "nonpayable",
      "type": "function"
    },
    {
      "inputs": [
        {
          "internalType": "uint256",
          "name": "_newThreshold",
          "type": "uint256"
        }
      ],
      "name": "setThreshold",
      "outputs": [],
      "stateMutability": "nonpayable",
      "type": "function"
    },
    {
      "inputs": [],
      "name": "threshold",
      "outputs": [
        {
          "internalType": "uint256",
          "name": "",
          "type": "uint256"
        }
      ],
      "stateMutability": "view",
      "type": "function"
    },
    {
      "inputs": [
        {
          "internalType": "address",
          "name": "",
          "type": "address"
        },
        {
          "internalType": "address",
          "name": "",
          "type": "address"
        }
      ],
      "name": "userBorrowTokenBalance",
      "outputs": [
        {
          "internalType": "uint256",
          "name": "",
          "type": "uint256"
        }
      ],
      "stateMutability": "view",
      "type": "function"
    },
    {
      "inputs": [
        {
          "internalType": "address",
          "name": "",
          "type": "address"
        }
      ],
      "name": "userLendBalance",
      "outputs": [
        {
          "internalType": "uint256",
          "name": "",
          "type": "uint256"
        }
      ],
      "stateMutability": "view",
      "type": "function"
    },
    {
      "inputs": [
        {
          "internalType": "address",
          "name": "",
          "type": "address"
        },
        {
          "internalType": "address",
          "name": "",
          "type": "address"
        }
      ],
      "name": "userLendTokenBalance",
      "outputs": [
        {
          "internalType": "uint256",
          "name": "",
          "type": "uint256"
        }
      ],
      "stateMutability": "view",
      "type": "function"
    },
    {
      "inputs": [
        {
          "internalType": "address",
          "name": "_token",
          "type": "address"
        },
        {
          "internalType": "uint256",
          "name": "_amount",
          "type": "uint256"
        }
      ],
      "name": "withdrawToken",
      "outputs": [],
      "stateMutability": "nonpayable",
      "type": "function"
    }
  ],
  "bytecode": {
    "object": "0x6080604052605060015534801561001557600080fd5b5060405161117f38038061117f83398101604081905261003491610059565b600080546001600160a01b0319166001600160a01b0392909216919091179055610089565b60006020828403121561006b57600080fd5b81516001600160a01b038116811461008257600080fd5b9392505050565b6110e7806100986000396000f3fe608060405234801561001057600080fd5b50600436106101585760003560e01c80638aaa2284116100c3578063a2fb342d1161007c578063a2fb342d14610358578063a824ed4f1461036b578063b206d8f01461038b578063cbc04eca146103c4578063cbf45241146103d7578063e09e4ac01461040257600080fd5b80638aaa2284146102d25780638da5cb5b146102e5578063960bfe04146102f857806398041a3e1461030b5780639c675eaa146103345780639e281a981461034557600080fd5b806342cde4e81161011557806342cde4e8146102145780634d73e9ba1461021d57806375151b631461023d578063756742f8146102795780637c17d2371461029c57806386e36267146102af57600080fd5b806329137abc1461015d578063294a55121461018357806329c0b23a146101ae578063350287ab146101c157806340ec0ca8146101d657806341c4258f146101e9575b600080fd5b61017061016b366004610f10565b61042b565b6040519081526020015b60405180910390f35b610196610191366004610f43565b610458565b6040516001600160a01b03909116815260200161017a565b6101706101bc366004610f5c565b610482565b6101d46101cf366004610f8f565b6104ae565b005b6101d46101e4366004610fc6565b610504565b6101706101f7366004610f10565b600260209081526000928352604080842090915290825290205481565b61017060015481565b61017061022b366004610f5c565b60066020526000908152604090205481565b61026961024b366004610f5c565b6001600160a01b031660009081526007602052604090205460ff1690565b604051901515815260200161017a565b610269610287366004610f5c565b60076020526000908152604090205460ff1681565b6101706102aa366004610f5c565b610735565b6102696102bd366004610f5c565b60046020526000908152604090205460ff1681565b6101d46102e0366004610f8f565b610766565b600054610196906001600160a01b031681565b6101d4610306366004610f43565b6107fe565b610170610319366004610f5c565b6001600160a01b031660009081526006602052604090205490565b6000546001600160a01b0316610196565b6101d4610353366004610fc6565b61082e565b6101d4610366366004610fc6565b610a73565b610170610379366004610f5c565b60036020526000908152604090205481565b610170610399366004610f10565b6001600160a01b03918216600090815260026020908152604080832093909416825291909152205490565b6101d46103d2366004610fc6565b610cd9565b6101706103e5366004610f10565b600560209081526000928352604080842090915290825290205481565b610170610410366004610f5c565b6001600160a01b031660009081526003602052604090205490565b6001600160a01b038083166000908152600560209081526040808320938516835292905220545b92915050565b6008818154811061046857600080fd5b6000918252602090912001546001600160a01b0316905081565b6001600160a01b0381166000908152600660205260408120546104a483610735565b6104529190611006565b6000546001600160a01b031633146104d95760405163766ade3560e01b815260040160405180910390fd5b6001600160a01b03919091166000908152600460205260409020805460ff1916911515919091179055565b6001600160a01b038216600090815260076020526040902054829060ff161561054057604051630859dc9b60e31b815260040160405180910390fd5b6001600160a01b03831660009081526004602052604081205460ff16156105dc5760405163518fe24f60e01b81526004810184905273__$a6530bd5f06d2d0657cdfb077130bb6c10$__9063518fe24f90602401602060405180830381865af41580156105b1573d6000803e3d6000fd5b505050506040513d601f19601f820116820180604052508101906105d59190611019565b90506105df565b50815b336000908152600660205260409020546064906105fd906005611032565b6106079190611049565b8110156106275760405163699d415b60e11b815260040160405180910390fd5b60405163a9059cbb60e01b8152306004820152602481018490526000906001600160a01b0386169063a9059cbb906044016020604051808303816000875af1158015610677573d6000803e3d6000fd5b505050506040513d601f19601f8201168201806040525081019061069b919061106b565b9050806106bb576040516307a6c4d960e31b815260040160405180910390fd5b60085460005b8181101561071c5733600090815260056020526040812060088054839190859081106106ef576106ef611088565b60009182526020808320909101546001600160a01b031683528201929092526040019020556001016106c1565b5050336000908152600660205260408120555050505050565b6001600160a01b03811660009081526003602052604081205460649061075c906050611032565b6104529190611049565b6000546001600160a01b031633146107915760405163766ade3560e01b815260040160405180910390fd5b6001600160a01b03919091166000818152600760205260408120805460ff1916931515939093179092556008805460018101825592527ff3f7a9fe364faab93b216da50a3214154f22a0a2b415b23a84c8169e8b636ee390910180546001600160a01b0319169091179055565b6000546001600160a01b031633146108295760405163766ade3560e01b815260040160405180910390fd5b600155565b6001600160a01b038216600090815260076020526040902054829060ff161561086a57604051630859dc9b60e31b815260040160405180910390fd5b6001600160a01b03831660009081526004602052604081205460ff16156109065760405163518fe24f60e01b81526004810184905273__$a6530bd5f06d2d0657cdfb077130bb6c10$__9063518fe24f90602401602060405180830381865af41580156108db573d6000803e3d6000fd5b505050506040513d601f19601f820116820180604052508101906108ff9190611019565b9050610909565b50815b3360009081526002602090815260408083206001600160a01b038816845290915290205483111561094d5760405163e3ba12af60e01b815260040160405180910390fd5b3360009081526002602090815260408083206001600160a01b038816845290915281208054859290610980908490611006565b909155505033600090815260036020526040812080548392906109a4908490611006565b90915550600090506001600160a01b0385166323b872dd303360646109ca896003611032565b6109d49190611049565b6040516001600160e01b031960e086901b1681526001600160a01b03938416600482015292909116602483015260448201526064016020604051808303816000875af1158015610a28573d6000803e3d6000fd5b505050506040513d601f19601f82011682018060405250810190610a4c919061106b565b905080610a6c5760405163498e7d9160e11b815260040160405180910390fd5b5050505050565b6001600160a01b038216600090815260076020526040902054829060ff1615610aaf57604051630859dc9b60e31b815260040160405180910390fd5b60405163a9059cbb60e01b8152306004820152602481018390526000906001600160a01b0385169063a9059cbb906044016020604051808303816000875af1158015610aff573d6000803e3d6000fd5b505050506040513d601f19601f82011682018060405250810190610b23919061106b565b905080610b43576040516303ab574160e11b815260040160405180910390fd5b3360009081526002602090815260408083206001600160a01b038816845290915281208054859290610b7690849061109e565b90915550506001600160a01b03841660009081526004602052604090205460ff1615610c3a5760405163518fe24f60e01b81526004810184905273__$a6530bd5f06d2d0657cdfb077130bb6c10$__9063518fe24f90602401602060405180830381865af4158015610bec573d6000803e3d6000fd5b505050506040513d601f19601f82011682018060405250810190610c109190611019565b3360009081526003602052604081208054909190610c2f90849061109e565b90915550610cd39050565b60405163518fe24f60e01b81526004810184905273__$a6530bd5f06d2d0657cdfb077130bb6c10$__9063518fe24f90602401602060405180830381865af4158015610c8a573d6000803e3d6000fd5b505050506040513d601f19601f82011682018060405250810190610cae9190611019565b3360009081526003602052604081208054909190610ccd90849061109e565b90915550505b50505050565b6001600160a01b038216600090815260076020526040902054829060ff1615610d1557604051630859dc9b60e31b815260040160405180910390fd5b610d1e33610482565b821115610d3e5760405163031c684760e21b815260040160405180910390fd5b3360009081526005602090815260408083206001600160a01b038716845290915281208054849290610d7190849061109e565b90915550506001600160a01b03831660009081526004602052604090205460ff1615610e355760405163518fe24f60e01b81526004810183905273__$a6530bd5f06d2d0657cdfb077130bb6c10$__9063518fe24f90602401602060405180830381865af4158015610de7573d6000803e3d6000fd5b505050506040513d601f19601f82011682018060405250810190610e0b9190611019565b3360009081526006602052604081208054909190610e2a90849061109e565b90915550610e5a9050565b3360009081526006602052604081208054849290610e5490849061109e565b90915550505b6040516323b872dd60e01b8152306004820152336024820152604481018390526000906001600160a01b038516906323b872dd906064016020604051808303816000875af1158015610eb0573d6000803e3d6000fd5b505050506040513d601f19601f82011682018060405250810190610ed4919061106b565b905080610cd35760405163de239d7760e01b815260040160405180910390fd5b80356001600160a01b0381168114610f0b57600080fd5b919050565b60008060408385031215610f2357600080fd5b610f2c83610ef4565b9150610f3a60208401610ef4565b90509250929050565b600060208284031215610f5557600080fd5b5035919050565b600060208284031215610f6e57600080fd5b610f7782610ef4565b9392505050565b8015158114610f8c57600080fd5b50565b60008060408385031215610fa257600080fd5b610fab83610ef4565b91506020830135610fbb81610f7e565b809150509250929050565b60008060408385031215610fd957600080fd5b610fe283610ef4565b946020939093013593505050565b634e487b7160e01b600052601160045260246000fd5b8181038181111561045257610452610ff0565b60006020828403121561102b57600080fd5b5051919050565b808202811582820484141761045257610452610ff0565b60008261106657634e487b7160e01b600052601260045260246000fd5b500490565b60006020828403121561107d57600080fd5b8151610f7781610f7e565b634e487b7160e01b600052603260045260246000fd5b8082018082111561045257610452610ff056fea2646970667358221220b54d1f61e26f10511d5ce2adb26c234b4998b5134569b653e2f09a036d40617864736f6c63430008130033",
    "linkReferences": {
      "src/PriceConverter.sol": {
        "PriceConverter": [
          {
            "start": 1551,
            "length": 20
          },
          {
            "start": 2361,
            "length": 20
          },
          {
            "start": 3146,
            "length": 20
          },
          {
            "start": 3304,
            "length": 20
          },
          {
            "start": 3653,
            "length": 20
          }
        ]
      }
    }
  },
  "methodIdentifiers": {
    "Borrow(address,uint256)": "cbc04eca",
    "allowedToken(address)": "756742f8",
    "allowedTokenArray(uint256)": "294a5512",
    "borrowBalance(address)": "4d73e9ba",
    "getAlreadyBorrowed(address)": "98041a3e",
    "getBorrowLimit(address)": "7c17d237",
    "getBorrowLimitLeft(address)": "29c0b23a",
    "getBorrowTokenAmount(address,address)": "29137abc",
    "getUserLendAmount(address)": "e09e4ac0",
    "getUserLendTokenAmount(address,address)": "b206d8f0",
    "isEthereum(address)": "86e36267",
    "isTokenSupported(address)": "75151b63",
    "lend(address,uint256)": "a2fb342d",
    "owner()": "8da5cb5b",
    "ownerAddr()": "9c675eaa",
    "rePayFull(address,uint256)": "40ec0ca8",
    "setAllowedToken(address,bool)": "8aaa2284",
    "setIsEthereum(address,bool)": "350287ab",
    "setThreshold(uint256)": "960bfe04",
    "threshold()": "42cde4e8",
    "userBorrowTokenBalance(address,address)": "cbf45241",
    "userLendBalance(address)": "a824ed4f",
    "userLendTokenBalance(address,address)": "41c4258f",
    "withdrawToken(address,uint256)": "9e281a98"
  },
  "id": 2
}