{
  "abi": [
    {
      "inputs": [
        {
          "internalType": "address",
          "name": "_owner",
          "type": "address"
        },
        {
          "internalType": "address",
          "name": "_router",
          "type": "address"
        },
        {
          "internalType": "address",
          "name": "_link",
          "type": "address"
        }
      ],
      "stateMutability": "nonpayable",
      "type": "constructor"
    },
    {
      "inputs": [],
      "name": "BORROW_LIMIT_EXCEED",
      "type": "error"
    },
    {
      "inputs": [],
      "name": "NOT_ENOUGH_AMOUNT_REPAYFULL",
      "type": "error"
    },
    {
      "inputs": [],
      "name": "NOT_ENOUGH_TOKEN_LENDED",
      "type": "error"
    },
    {
      "inputs": [],
      "name": "ONLY_OWNER_CALL_THIS_FUNCTION",
      "type": "error"
    },
    {
      "inputs": [
        {
          "internalType": "address",
          "name": "",
          "type": "address"
        }
      ],
      "name": "allowedToken",
      "outputs": [
        {
          "internalType": "bool",
          "name": "",
          "type": "bool"
        }
      ],
      "stateMutability": "view",
      "type": "function"
    },
    {
      "inputs": [
        {
          "internalType": "uint256",
          "name": "",
          "type": "uint256"
        }
      ],
      "name": "allowedTokenArray",
      "outputs": [
        {
          "internalType": "address",
          "name": "",
          "type": "address"
        }
      ],
      "stateMutability": "view",
      "type": "function"
    },
    {
      "inputs": [
        {
          "internalType": "address",
          "name": "_token",
          "type": "address"
        },
        {
          "internalType": "uint256",
          "name": "_amount",
          "type": "uint256"
        },
        {
          "internalType": "uint64",
          "name": "calledChainSelector",
          "type": "uint64"
        },
        {
          "internalType": "address",
          "name": "receiver",
          "type": "address"
        }
      ],
      "name": "borrow",
      "outputs": [],
      "stateMutability": "nonpayable",
      "type": "function"
    },
    {
      "inputs": [
        {
          "internalType": "address",
          "name": "",
          "type": "address"
        }
      ],
      "name": "borrowBalance",
      "outputs": [
        {
          "internalType": "uint256",
          "name": "",
          "type": "uint256"
        }
      ],
      "stateMutability": "view",
      "type": "function"
    },
    {
      "inputs": [
        {
          "internalType": "address",
          "name": "_user",
          "type": "address"
        }
      ],
      "name": "getAlreadyBorrowed",
      "outputs": [
        {
          "internalType": "uint256",
          "name": "",
          "type": "uint256"
        }
      ],
      "stateMutability": "view",
      "type": "function"
    },
    {
      "inputs": [
        {
          "internalType": "address",
          "name": "_user",
          "type": "address"
        }
      ],
      "name": "getBorrowLimit",
      "outputs": [
        {
          "internalType": "uint256",
          "name": "",
          "type": "uint256"
        }
      ],
      "stateMutability": "view",
      "type": "function"
    },
    {
      "inputs": [
        {
          "internalType": "address",
          "name": "_user",
          "type": "address"
        }
      ],
      "name": "getBorrowLimitLeft",
      "outputs": [
        {
          "internalType": "uint256",
          "name": "",
          "type": "uint256"
        }
      ],
      "stateMutability": "view",
      "type": "function"
    },
    {
      "inputs": [
        {
          "internalType": "address",
          "name": "_user",
          "type": "address"
        },
        {
          "internalType": "address",
          "name": "_token",
          "type": "address"
        }
      ],
      "name": "getBorrowTokenAmount",
      "outputs": [
        {
          "internalType": "uint256",
          "name": "",
          "type": "uint256"
        }
      ],
      "stateMutability": "view",
      "type": "function"
    },
    {
      "inputs": [],
      "name": "getLinkAddress",
      "outputs": [
        {
          "internalType": "address",
          "name": "",
          "type": "address"
        }
      ],
      "stateMutability": "view",
      "type": "function"
    },
    {
      "inputs": [],
      "name": "getRouterAddress",
      "outputs": [
        {
          "internalType": "address",
          "name": "",
          "type": "address"
        }
      ],
      "stateMutability": "view",
      "type": "function"
    },
    {
      "inputs": [],
      "name": "getThreshold",
      "outputs": [
        {
          "internalType": "uint256",
          "name": "",
          "type": "uint256"
        }
      ],
      "stateMutability": "view",
      "type": "function"
    },
    {
      "inputs": [
        {
          "internalType": "address",
          "name": "_user",
          "type": "address"
        }
      ],
      "name": "getUserLendAmount",
      "outputs": [
        {
          "internalType": "uint256",
          "name": "",
          "type": "uint256"
        }
      ],
      "stateMutability": "view",
      "type": "function"
    },
    {
      "inputs": [
        {
          "internalType": "address",
          "name": "_user",
          "type": "address"
        },
        {
          "internalType": "address",
          "name": "_token",
          "type": "address"
        }
      ],
      "name": "getUserLendTokenAmount",
      "outputs": [
        {
          "internalType": "uint256",
          "name": "",
          "type": "uint256"
        }
      ],
      "stateMutability": "view",
      "type": "function"
    },
    {
      "inputs": [],
      "name": "getborrowInterestRate",
      "outputs": [
        {
          "internalType": "uint256",
          "name": "",
          "type": "uint256"
        }
      ],
      "stateMutability": "view",
      "type": "function"
    },
    {
      "inputs": [
        {
          "internalType": "address",
          "name": "",
          "type": "address"
        }
      ],
      "name": "isEthereum",
      "outputs": [
        {
          "internalType": "bool",
          "name": "",
          "type": "bool"
        }
      ],
      "stateMutability": "view",
      "type": "function"
    },
    {
      "inputs": [
        {
          "internalType": "address",
          "name": "_token",
          "type": "address"
        }
      ],
      "name": "isTokenSupported",
      "outputs": [
        {
          "internalType": "bool",
          "name": "",
          "type": "bool"
        }
      ],
      "stateMutability": "view",
      "type": "function"
    },
    {
      "inputs": [
        {
          "internalType": "address",
          "name": "_token",
          "type": "address"
        },
        {
          "internalType": "uint256",
          "name": "_amount",
          "type": "uint256"
        }
      ],
      "name": "lend",
      "outputs": [],
      "stateMutability": "nonpayable",
      "type": "function"
    },
    {
      "inputs": [],
      "name": "ownerAddr",
      "outputs": [
        {
          "internalType": "address",
          "name": "",
          "type": "address"
        }
      ],
      "stateMutability": "view",
      "type": "function"
    },
    {
      "inputs": [
        {
          "internalType": "address",
          "name": "_token",
          "type": "address"
        },
        {
          "internalType": "uint256",
          "name": "_amount",
          "type": "uint256"
        }
      ],
      "name": "rePayFull",
      "outputs": [],
      "stateMutability": "nonpayable",
      "type": "function"
    },
    {
      "inputs": [
        {
          "internalType": "address",
          "name": "_token",
          "type": "address"
        },
        {
          "internalType": "uint256",
          "name": "_amount",
          "type": "uint256"
        },
        {
          "internalType": "uint64",
          "name": "calledChainSelector",
          "type": "uint64"
        },
        {
          "internalType": "address",
          "name": "receiver",
          "type": "address"
        }
      ],
      "name": "removeLendBalance",
      "outputs": [],
      "stateMutability": "nonpayable",
      "type": "function"
    },
    {
      "inputs": [
        {
          "internalType": "address",
          "name": "_tokenAddress",
          "type": "address"
        },
        {
          "internalType": "bool",
          "name": "_allowed",
          "type": "bool"
        }
      ],
      "name": "setAllowedToken",
      "outputs": [],
      "stateMutability": "nonpayable",
      "type": "function"
    },
    {
      "inputs": [
        {
          "internalType": "address",
          "name": "_tokenAddress",
          "type": "address"
        },
        {
          "internalType": "bool",
          "name": "_allowed",
          "type": "bool"
        }
      ],
      "name": "setIsEthereum",
      "outputs": [],
      "stateMutability": "nonpayable",
      "type": "function"
    },
    {
      "inputs": [
        {
          "internalType": "uint256",
          "name": "_newThreshold",
          "type": "uint256"
        }
      ],
      "name": "setThreshold",
      "outputs": [],
      "stateMutability": "nonpayable",
      "type": "function"
    },
    {
      "inputs": [
        {
          "internalType": "address",
          "name": "",
          "type": "address"
        },
        {
          "internalType": "address",
          "name": "",
          "type": "address"
        }
      ],
      "name": "userBorrowTokenBalance",
      "outputs": [
        {
          "internalType": "uint256",
          "name": "",
          "type": "uint256"
        }
      ],
      "stateMutability": "view",
      "type": "function"
    },
    {
      "inputs": [
        {
          "internalType": "address",
          "name": "",
          "type": "address"
        }
      ],
      "name": "userLendBalance",
      "outputs": [
        {
          "internalType": "uint256",
          "name": "",
          "type": "uint256"
        }
      ],
      "stateMutability": "view",
      "type": "function"
    },
    {
      "inputs": [
        {
          "internalType": "address",
          "name": "",
          "type": "address"
        },
        {
          "internalType": "address",
          "name": "",
          "type": "address"
        }
      ],
      "name": "userLendTokenBalance",
      "outputs": [
        {
          "internalType": "uint256",
          "name": "",
          "type": "uint256"
        }
      ],
      "stateMutability": "view",
      "type": "function"
    }
  ],
  "bytecode": {
    "object": "0x60c06040526050600155600560025534801561001a57600080fd5b50604051620014443803806200144483398101604081905261003b91610082565b600080546001600160a01b0319166001600160a01b039485161790559082166080521660a0526100c5565b80516001600160a01b038116811461007d57600080fd5b919050565b60008060006060848603121561009757600080fd5b6100a084610066565b92506100ae60208501610066565b91506100bc60408501610066565b90509250925092565b60805160a0516113286200011c600039600081816103fb015281816108d1015281816109f00152610f2701526000818161044c01528181610917015281816109bb01528181610a750152610f6d01526113286000f3fe608060405234801561001057600080fd5b506004361061018e5760003560e01c80638aaa2284116100de578063a824ed4f11610097578063cbf4524111610071578063cbf452411461041f578063d54f7d5e1461044a578063e09e4ac014610470578063e75235b81461049957600080fd5b8063a824ed4f146103a0578063b206d8f0146103c0578063ca30e603146103f957600080fd5b80638aaa22841461031a578063960bfe041461032d57806398041a3e146103405780639c675eaa14610369578063a2fb342d1461037a578063a4039a491461038d57600080fd5b80634c12c16d1161014b57806375151b631161012557806375151b6314610285578063756742f8146102c15780637c17d237146102e457806386e36267146102f757600080fd5b80634c12c16d1461024a5780634d73e9ba146102525780636c12a2541461027257600080fd5b806329137abc14610193578063294a5512146101b957806329c0b23a146101e4578063350287ab146101f757806340ec0ca81461020c57806341c4258f1461021f575b600080fd5b6101a66101a1366004610fd5565b6104a1565b6040519081526020015b60405180910390f35b6101cc6101c7366004611008565b6104ce565b6040516001600160a01b0390911681526020016101b0565b6101a66101f2366004611021565b6104f8565b61020a610205366004611054565b610524565b005b61020a61021a36600461108b565b61057a565b6101a661022d366004610fd5565b600360209081526000928352604080842090915290825290205481565b6002546101a6565b6101a6610260366004611021565b60076020526000908152604090205481565b61020a6102803660046110b5565b6106da565b6102b1610293366004611021565b6001600160a01b031660009081526008602052604090205460ff1690565b60405190151581526020016101b0565b6102b16102cf366004611021565b60086020526000908152604090205460ff1681565b6101a66102f2366004611021565b610afa565b6102b1610305366004611021565b60056020526000908152604090205460ff1681565b61020a610328366004611054565b610b2f565b61020a61033b366004611008565b610bc7565b6101a661034e366004611021565b6001600160a01b031660009081526007602052604090205490565b6000546001600160a01b03166101cc565b61020a61038836600461108b565b610bf7565b61020a61039b3660046110b5565b610d17565b6101a66103ae366004611021565b60046020526000908152604090205481565b6101a66103ce366004610fd5565b6001600160a01b03918216600090815260036020908152604080832093909416825291909152205490565b7f00000000000000000000000000000000000000000000000000000000000000006101cc565b6101a661042d366004610fd5565b600660209081526000928352604080842090915290825290205481565b7f00000000000000000000000000000000000000000000000000000000000000006101cc565b6101a661047e366004611021565b6001600160a01b031660009081526004602052604090205490565b6001546101a6565b6001600160a01b038083166000908152600660209081526040808320938516835292905220545b92915050565b600981815481106104de57600080fd5b6000918252602090912001546001600160a01b0316905081565b6001600160a01b03811660009081526007602052604081205461051a83610afa565b6104c89190611127565b6000546001600160a01b0316331461054f5760405163766ade3560e01b815260040160405180910390fd5b6001600160a01b03919091166000908152600560205260409020805460ff1916911515919091179055565b6001600160a01b03821660009081526005602052604081205460ff16156106165760405163518fe24f60e01b81526004810183905273__$a6530bd5f06d2d0657cdfb077130bb6c10$__9063518fe24f90602401602060405180830381865af41580156105eb573d6000803e3d6000fd5b505050506040513d601f19601f8201168201806040525081019061060f919061113a565b9050610619565b50805b6002543360009081526007602052604090205460649161063891611153565b610642919061116a565b8110156106625760405163699d415b60e11b815260040160405180910390fd5b60095460005b818110156106c35733600090815260066020526040812060098054839190859081106106965761069661118c565b60009182526020808320909101546001600160a01b03168352820192909252604001902055600101610668565b505033600090815260076020526040812055505050565b6001600160a01b03841660009081526005602052604081205460ff16156107765760405163518fe24f60e01b81526004810185905273__$a6530bd5f06d2d0657cdfb077130bb6c10$__9063518fe24f90602401602060405180830381865af415801561074b573d6000803e3d6000fd5b505050506040513d601f19601f8201168201806040525081019061076f919061113a565b9050610779565b50825b610782336104f8565b8111156107a25760405163031c684760e21b815260040160405180910390fd5b3360009081526006602090815260408083206001600160a01b0389168452909152812080548692906107d59084906111a2565b909155505033600090815260076020526040812080548392906107f99084906111a2565b90915550506040805160a081019091526001600160a01b03831660c08201526000908060e0810160408051808303601f19018152918152908252516001600160a01b03891660248201526044810188905260209091019060640160408051601f19818403018152919052602080820180516001600160e01b03166316a46ce760e21b1790529082520160006040519080825280602002602001820160405280156108c957816020015b60408051808201909152600080825260208201528152602001906001900390816108a25790505b5081526020017f00000000000000000000000000000000000000000000000000000000000000006001600160a01b0316815260200160405180602001604052806000815250815250905060007f00000000000000000000000000000000000000000000000000000000000000006001600160a01b03166320487ded86846040518363ffffffff1660e01b81526004016109639291906111fb565b602060405180830381865afa158015610980573d6000803e3d6000fd5b505050506040513d601f19601f820116820180604052508101906109a4919061113a565b60405163095ea7b360e01b81526001600160a01b037f000000000000000000000000000000000000000000000000000000000000000081166004830152602482018390529192506000917f0000000000000000000000000000000000000000000000000000000000000000169063095ea7b3906044016020604051808303816000875af1158015610a39573d6000803e3d6000fd5b505050506040513d601f19601f82011682018060405250810190610a5d91906112d5565b506040516396f4e9f960e01b81526001600160a01b037f000000000000000000000000000000000000000000000000000000000000000016906396f4e9f990610aac90899087906004016111fb565b6020604051808303816000875af1158015610acb573d6000803e3d6000fd5b505050506040513d601f19601f82011682018060405250810190610aef919061113a565b505050505050505050565b6001546001600160a01b0382166000908152600460205260408120549091606491610b259190611153565b6104c8919061116a565b6000546001600160a01b03163314610b5a5760405163766ade3560e01b815260040160405180910390fd5b6001600160a01b03919091166000818152600860205260408120805460ff1916931515939093179092556009805460018101825592527f6e1540171b6c0c960b71a7020d9f60077f6af931a8bbf590da0223dacf75c7af90910180546001600160a01b0319169091179055565b6000546001600160a01b03163314610bf25760405163766ade3560e01b815260040160405180910390fd5b600155565b3360009081526003602090815260408083206001600160a01b038616845290915281208054839290610c2a9084906111a2565b90915550506001600160a01b03821660009081526005602052604090205460ff1615610cee5760405163518fe24f60e01b81526004810182905273__$a6530bd5f06d2d0657cdfb077130bb6c10$__9063518fe24f90602401602060405180830381865af4158015610ca0573d6000803e3d6000fd5b505050506040513d601f19601f82011682018060405250810190610cc4919061113a565b3360009081526004602052604081208054909190610ce39084906111a2565b90915550610d139050565b3360009081526004602052604081208054839290610d0d9084906111a2565b90915550505b5050565b6001600160a01b03841660009081526005602052604081205460ff1615610db35760405163518fe24f60e01b81526004810185905273__$a6530bd5f06d2d0657cdfb077130bb6c10$__9063518fe24f90602401602060405180830381865af4158015610d88573d6000803e3d6000fd5b505050506040513d601f19601f82011682018060405250810190610dac919061113a565b9050610db6565b50825b3360009081526003602090815260408083206001600160a01b0389168452909152902054841115610dfa5760405163e3ba12af60e01b815260040160405180910390fd5b3360009081526003602090815260408083206001600160a01b038916845290915281208054869290610e2d908490611127565b90915550503360009081526004602052604081208054839290610e51908490611127565b90915550506040805160a081019091526001600160a01b03831660c08201526000908060e0810160408051808303601f19018152918152908252516001600160a01b03891660248201526044810188905260209091019060640160408051601f19818403018152919052602080820180516001600160e01b03166350eb619960e01b1790529082520160006040519080825280602002602001820160405280156108c9578160200160408051808201909152600080825260208201528152602001906001900390816108a25790505081526020017f00000000000000000000000000000000000000000000000000000000000000006001600160a01b0316815260200160405180602001604052806000815250815250905060007f00000000000000000000000000000000000000000000000000000000000000006001600160a01b03166320487ded86846040518363ffffffff1660e01b81526004016109639291906111fb565b80356001600160a01b0381168114610fd057600080fd5b919050565b60008060408385031215610fe857600080fd5b610ff183610fb9565b9150610fff60208401610fb9565b90509250929050565b60006020828403121561101a57600080fd5b5035919050565b60006020828403121561103357600080fd5b61103c82610fb9565b9392505050565b801515811461105157600080fd5b50565b6000806040838503121561106757600080fd5b61107083610fb9565b9150602083013561108081611043565b809150509250929050565b6000806040838503121561109e57600080fd5b6110a783610fb9565b946020939093013593505050565b600080600080608085870312156110cb57600080fd5b6110d485610fb9565b935060208501359250604085013567ffffffffffffffff811681146110f857600080fd5b915061110660608601610fb9565b905092959194509250565b634e487b7160e01b600052601160045260246000fd5b818103818111156104c8576104c8611111565b60006020828403121561114c57600080fd5b5051919050565b80820281158282048414176104c8576104c8611111565b60008261118757634e487b7160e01b600052601260045260246000fd5b500490565b634e487b7160e01b600052603260045260246000fd5b808201808211156104c8576104c8611111565b6000815180845260005b818110156111db576020818501810151868301820152016111bf565b506000602082860101526020601f19601f83011685010191505092915050565b6000604067ffffffffffffffff8516835260208181850152845160a08386015261122860e08601826111b5565b905081860151603f198087840301606088015261124583836111b5565b88860151888203830160808a01528051808352908601945060009350908501905b8084101561129857845180516001600160a01b0316835286015186830152938501936001939093019290860190611266565b5060608901516001600160a01b031660a08901526080890151888203830160c08a015295506112c781876111b5565b9a9950505050505050505050565b6000602082840312156112e757600080fd5b815161103c8161104356fea26469706673582212207042ff47971a9c03859d916fcb58b0de99428873d3e754bbc9f1edda596bb10064736f6c63430008130033",
    "linkReferences": {
      "src/PriceConverter.sol": {
        "PriceConverter": [
          {
            "start": 1741,
            "length": 20
          },
          {
            "start": 2093,
            "length": 20
          },
          {
            "start": 3458,
            "length": 20
          },
          {
            "start": 3690,
            "length": 20
          }
        ]
      }
    }
  },
  "methodIdentifiers": {
    "allowedToken(address)": "756742f8",
    "allowedTokenArray(uint256)": "294a5512",
    "borrow(address,uint256,uint64,address)": "6c12a254",
    "borrowBalance(address)": "4d73e9ba",
    "getAlreadyBorrowed(address)": "98041a3e",
    "getBorrowLimit(address)": "7c17d237",
    "getBorrowLimitLeft(address)": "29c0b23a",
    "getBorrowTokenAmount(address,address)": "29137abc",
    "getLinkAddress()": "ca30e603",
    "getRouterAddress()": "d54f7d5e",
    "getThreshold()": "e75235b8",
    "getUserLendAmount(address)": "e09e4ac0",
    "getUserLendTokenAmount(address,address)": "b206d8f0",
    "getborrowInterestRate()": "4c12c16d",
    "isEthereum(address)": "86e36267",
    "isTokenSupported(address)": "75151b63",
    "lend(address,uint256)": "a2fb342d",
    "ownerAddr()": "9c675eaa",
    "rePayFull(address,uint256)": "40ec0ca8",
    "removeLendBalance(address,uint256,uint64,address)": "a4039a49",
    "setAllowedToken(address,bool)": "8aaa2284",
    "setIsEthereum(address,bool)": "350287ab",
    "setThreshold(uint256)": "960bfe04",
    "userBorrowTokenBalance(address,address)": "cbf45241",
    "userLendBalance(address)": "a824ed4f",
    "userLendTokenBalance(address,address)": "41c4258f"
  },
  "id": 29
}