{
  "abi": [
    {
      "inputs": [
        {
          "internalType": "address",
          "name": "_owner",
          "type": "address"
        },
        {
          "internalType": "address",
          "name": "_router",
          "type": "address"
        },
        {
          "internalType": "address",
          "name": "_link",
          "type": "address"
        }
      ],
      "stateMutability": "nonpayable",
      "type": "constructor"
    },
    {
      "inputs": [],
      "name": "BORROW_LIMIT_EXCEED",
      "type": "error"
    },
    {
      "inputs": [],
      "name": "NOT_ENOUGH_AMOUNT_REPAYFULL",
      "type": "error"
    },
    {
      "inputs": [],
      "name": "NOT_ENOUGH_TOKEN_LENDED",
      "type": "error"
    },
    {
      "inputs": [],
      "name": "ONLY_OWNER_CALL_THIS_FUNCTION",
      "type": "error"
    },
    {
      "anonymous": false,
      "inputs": [],
      "name": "ReceivedBorrowMessage",
      "type": "event"
    },
    {
      "anonymous": false,
      "inputs": [],
      "name": "ReceivedLendMessage",
      "type": "event"
    },
    {
      "anonymous": false,
      "inputs": [],
      "name": "ReceivedRePayFullMessage",
      "type": "event"
    },
    {
      "anonymous": false,
      "inputs": [],
      "name": "ReceivedremoveLendBalanceMessage",
      "type": "event"
    },
    {
      "inputs": [
        {
          "internalType": "address",
          "name": "",
          "type": "address"
        }
      ],
      "name": "allowedToken",
      "outputs": [
        {
          "internalType": "bool",
          "name": "",
          "type": "bool"
        }
      ],
      "stateMutability": "view",
      "type": "function"
    },
    {
      "inputs": [
        {
          "internalType": "uint256",
          "name": "",
          "type": "uint256"
        }
      ],
      "name": "allowedTokenArray",
      "outputs": [
        {
          "internalType": "address",
          "name": "",
          "type": "address"
        }
      ],
      "stateMutability": "view",
      "type": "function"
    },
    {
      "inputs": [
        {
          "internalType": "address",
          "name": "_user",
          "type": "address"
        },
        {
          "internalType": "address",
          "name": "_token",
          "type": "address"
        },
        {
          "internalType": "uint256",
          "name": "_amount",
          "type": "uint256"
        },
        {
          "internalType": "uint64",
          "name": "calledChainSelector",
          "type": "uint64"
        },
        {
          "internalType": "address",
          "name": "receiver",
          "type": "address"
        }
      ],
      "name": "borrow",
      "outputs": [],
      "stateMutability": "nonpayable",
      "type": "function"
    },
    {
      "inputs": [
        {
          "internalType": "address",
          "name": "",
          "type": "address"
        }
      ],
      "name": "borrowBalance",
      "outputs": [
        {
          "internalType": "uint256",
          "name": "",
          "type": "uint256"
        }
      ],
      "stateMutability": "view",
      "type": "function"
    },
    {
      "inputs": [
        {
          "internalType": "address",
          "name": "_user",
          "type": "address"
        }
      ],
      "name": "getAlreadyBorrowed",
      "outputs": [
        {
          "internalType": "uint256",
          "name": "",
          "type": "uint256"
        }
      ],
      "stateMutability": "view",
      "type": "function"
    },
    {
      "inputs": [
        {
          "internalType": "address",
          "name": "_user",
          "type": "address"
        }
      ],
      "name": "getBorrowLimit",
      "outputs": [
        {
          "internalType": "uint256",
          "name": "",
          "type": "uint256"
        }
      ],
      "stateMutability": "view",
      "type": "function"
    },
    {
      "inputs": [
        {
          "internalType": "address",
          "name": "_user",
          "type": "address"
        }
      ],
      "name": "getBorrowLimitLeft",
      "outputs": [
        {
          "internalType": "uint256",
          "name": "",
          "type": "uint256"
        }
      ],
      "stateMutability": "view",
      "type": "function"
    },
    {
      "inputs": [
        {
          "internalType": "address",
          "name": "_user",
          "type": "address"
        },
        {
          "internalType": "address",
          "name": "_token",
          "type": "address"
        }
      ],
      "name": "getBorrowTokenAmount",
      "outputs": [
        {
          "internalType": "uint256",
          "name": "",
          "type": "uint256"
        }
      ],
      "stateMutability": "view",
      "type": "function"
    },
    {
      "inputs": [],
      "name": "getLinkAddress",
      "outputs": [
        {
          "internalType": "address",
          "name": "",
          "type": "address"
        }
      ],
      "stateMutability": "view",
      "type": "function"
    },
    {
      "inputs": [],
      "name": "getRouterAddress",
      "outputs": [
        {
          "internalType": "address",
          "name": "",
          "type": "address"
        }
      ],
      "stateMutability": "view",
      "type": "function"
    },
    {
      "inputs": [],
      "name": "getThreshold",
      "outputs": [
        {
          "internalType": "uint256",
          "name": "",
          "type": "uint256"
        }
      ],
      "stateMutability": "view",
      "type": "function"
    },
    {
      "inputs": [
        {
          "internalType": "address",
          "name": "_user",
          "type": "address"
        }
      ],
      "name": "getUserLendAmount",
      "outputs": [
        {
          "internalType": "uint256",
          "name": "",
          "type": "uint256"
        }
      ],
      "stateMutability": "view",
      "type": "function"
    },
    {
      "inputs": [
        {
          "internalType": "address",
          "name": "_user",
          "type": "address"
        },
        {
          "internalType": "address",
          "name": "_token",
          "type": "address"
        }
      ],
      "name": "getUserLendTokenAmount",
      "outputs": [
        {
          "internalType": "uint256",
          "name": "",
          "type": "uint256"
        }
      ],
      "stateMutability": "view",
      "type": "function"
    },
    {
      "inputs": [],
      "name": "getborrowInterestRate",
      "outputs": [
        {
          "internalType": "uint256",
          "name": "",
          "type": "uint256"
        }
      ],
      "stateMutability": "view",
      "type": "function"
    },
    {
      "inputs": [
        {
          "internalType": "address",
          "name": "",
          "type": "address"
        }
      ],
      "name": "isEthereum",
      "outputs": [
        {
          "internalType": "bool",
          "name": "",
          "type": "bool"
        }
      ],
      "stateMutability": "view",
      "type": "function"
    },
    {
      "inputs": [
        {
          "internalType": "address",
          "name": "_token",
          "type": "address"
        }
      ],
      "name": "isTokenSupported",
      "outputs": [
        {
          "internalType": "bool",
          "name": "",
          "type": "bool"
        }
      ],
      "stateMutability": "view",
      "type": "function"
    },
    {
      "inputs": [
        {
          "internalType": "address",
          "name": "_user",
          "type": "address"
        },
        {
          "internalType": "address",
          "name": "_token",
          "type": "address"
        },
        {
          "internalType": "uint256",
          "name": "_amount",
          "type": "uint256"
        }
      ],
      "name": "lend",
      "outputs": [],
      "stateMutability": "nonpayable",
      "type": "function"
    },
    {
      "inputs": [],
      "name": "ownerAddr",
      "outputs": [
        {
          "internalType": "address",
          "name": "",
          "type": "address"
        }
      ],
      "stateMutability": "view",
      "type": "function"
    },
    {
      "inputs": [
        {
          "internalType": "address",
          "name": "_user",
          "type": "address"
        },
        {
          "internalType": "address",
          "name": "_token",
          "type": "address"
        },
        {
          "internalType": "uint256",
          "name": "_amount",
          "type": "uint256"
        }
      ],
      "name": "rePayFull",
      "outputs": [],
      "stateMutability": "nonpayable",
      "type": "function"
    },
    {
      "inputs": [
        {
          "internalType": "address",
          "name": "_user",
          "type": "address"
        },
        {
          "internalType": "address",
          "name": "_token",
          "type": "address"
        },
        {
          "internalType": "uint256",
          "name": "_amount",
          "type": "uint256"
        },
        {
          "internalType": "uint64",
          "name": "calledChainSelector",
          "type": "uint64"
        },
        {
          "internalType": "address",
          "name": "receiver",
          "type": "address"
        }
      ],
      "name": "removeLendBalance",
      "outputs": [],
      "stateMutability": "nonpayable",
      "type": "function"
    },
    {
      "inputs": [
        {
          "internalType": "address",
          "name": "_tokenAddress",
          "type": "address"
        },
        {
          "internalType": "bool",
          "name": "_allowed",
          "type": "bool"
        }
      ],
      "name": "setAllowedToken",
      "outputs": [],
      "stateMutability": "nonpayable",
      "type": "function"
    },
    {
      "inputs": [
        {
          "internalType": "address",
          "name": "_tokenAddress",
          "type": "address"
        },
        {
          "internalType": "bool",
          "name": "_allowed",
          "type": "bool"
        }
      ],
      "name": "setIsEthereum",
      "outputs": [],
      "stateMutability": "nonpayable",
      "type": "function"
    },
    {
      "inputs": [
        {
          "internalType": "uint256",
          "name": "_newThreshold",
          "type": "uint256"
        }
      ],
      "name": "setThreshold",
      "outputs": [],
      "stateMutability": "nonpayable",
      "type": "function"
    },
    {
      "inputs": [
        {
          "internalType": "address",
          "name": "",
          "type": "address"
        },
        {
          "internalType": "address",
          "name": "",
          "type": "address"
        }
      ],
      "name": "userBorrowTokenBalance",
      "outputs": [
        {
          "internalType": "uint256",
          "name": "",
          "type": "uint256"
        }
      ],
      "stateMutability": "view",
      "type": "function"
    },
    {
      "inputs": [
        {
          "internalType": "address",
          "name": "",
          "type": "address"
        }
      ],
      "name": "userLendBalance",
      "outputs": [
        {
          "internalType": "uint256",
          "name": "",
          "type": "uint256"
        }
      ],
      "stateMutability": "view",
      "type": "function"
    },
    {
      "inputs": [
        {
          "internalType": "address",
          "name": "",
          "type": "address"
        },
        {
          "internalType": "address",
          "name": "",
          "type": "address"
        }
      ],
      "name": "userLendTokenBalance",
      "outputs": [
        {
          "internalType": "uint256",
          "name": "",
          "type": "uint256"
        }
      ],
      "stateMutability": "view",
      "type": "function"
    }
  ],
  "bytecode": {
    "object": "0x60c0604052605060015560056002553480156200001b57600080fd5b5060405162001729380380620017298339810160408190526200003e9162000087565b600080546001600160a01b0319166001600160a01b039485161790559082166080521660a052620000d1565b80516001600160a01b03811681146200008257600080fd5b919050565b6000806000606084860312156200009d57600080fd5b620000a8846200006a565b9250620000b8602085016200006a565b9150620000c8604085016200006a565b90509250925092565b60805160a0516115ec6200013d600039600081816103e8015281816108ad015281816109cc01528181611005015261112401526000818161044c015281816108f30152818161099701528181610a510152818161104b015281816110ef01526111a901526115ec6000f3fe608060405234801561001057600080fd5b506004361061018e5760003560e01c806386e36267116100de578063b206d8f011610097578063d474d4af11610071578063d474d4af14610437578063d54f7d5e1461044a578063e09e4ac014610470578063e75235b81461049957600080fd5b8063b206d8f0146103ad578063ca30e603146103e6578063cbf452411461040c57600080fd5b806386e362671461030a5780638aaa22841461032d578063960bfe041461034057806398041a3e146103535780639c675eaa1461037c578063a824ed4f1461038d57600080fd5b806341bb200b1161014b5780634d73e9ba116101255780634d73e9ba1461027857806375151b6314610298578063756742f8146102d45780637c17d237146102f757600080fd5b806341bb200b1461023257806341c4258f146102455780634c12c16d1461027057600080fd5b806305ec2d4d1461019357806329137abc146101a8578063294a5512146101ce57806329c0b23a146101f95780633043b3051461020c578063350287ab1461021f575b600080fd5b6101a66101a1366004611276565b6104a1565b005b6101bb6101b63660046112b2565b610601565b6040519081526020015b60405180910390f35b6101e16101dc3660046112e5565b61062e565b6040516001600160a01b0390911681526020016101c5565b6101bb6102073660046112fe565b610658565b6101a661021a366004611320565b610684565b6101a661022d36600461139e565b610b02565b6101a6610240366004611276565b610b58565b6101bb6102533660046112b2565b600360209081526000928352604080842090915290825290205481565b6002546101bb565b6101bb6102863660046112fe565b60076020526000908152604090205481565b6102c46102a63660046112fe565b6001600160a01b031660009081526008602052604090205460ff1690565b60405190151581526020016101c5565b6102c46102e23660046112fe565b60086020526000908152604090205460ff1681565b6101bb6103053660046112fe565b610cfc565b6102c46103183660046112fe565b60056020526000908152604090205460ff1681565b6101a661033b36600461139e565b610d31565b6101a661034e3660046112e5565b610dc9565b6101bb6103613660046112fe565b6001600160a01b031660009081526007602052604090205490565b6000546001600160a01b03166101e1565b6101bb61039b3660046112fe565b60046020526000908152604090205481565b6101bb6103bb3660046112b2565b6001600160a01b03918216600090815260036020908152604080832093909416825291909152205490565b7f00000000000000000000000000000000000000000000000000000000000000006101e1565b6101bb61041a3660046112b2565b600660209081526000928352604080842090915290825290205481565b6101a6610445366004611320565b610df9565b7f00000000000000000000000000000000000000000000000000000000000000006101e1565b6101bb61047e3660046112fe565b6001600160a01b031660009081526004602052604090205490565b6001546101bb565b6001600160a01b038084166000908152600360209081526040808320938616835292905290812080548392906104d89084906113eb565b90915550506001600160a01b03821660009081526005602052604090205460ff16156105a55760405163518fe24f60e01b81526004810182905273__$a6530bd5f06d2d0657cdfb077130bb6c10$__9063518fe24f90602401602060405180830381865af415801561054e573d6000803e3d6000fd5b505050506040513d601f19601f8201168201806040525081019061057291906113fe565b6001600160a01b0384166000908152600460205260408120805490919061059a9084906113eb565b909155506105d39050565b6001600160a01b038316600090815260046020526040812080548392906105cd9084906113eb565b90915550505b6040517fea12df4a55929f329503338679f159283a5df7f7c8f83d3938f97dfdf03eebef90600090a1505050565b6001600160a01b038083166000908152600660209081526040808320938516835292905220545b92915050565b6009818154811061063e57600080fd5b6000918252602090912001546001600160a01b0316905081565b6001600160a01b03811660009081526007602052604081205461067a83610cfc565b6106289190611417565b6001600160a01b03841660009081526005602052604081205460ff16156107205760405163518fe24f60e01b81526004810185905273__$a6530bd5f06d2d0657cdfb077130bb6c10$__9063518fe24f90602401602060405180830381865af41580156106f5573d6000803e3d6000fd5b505050506040513d601f19601f8201168201806040525081019061071991906113fe565b9050610723565b50825b6001600160a01b038087166000908152600360209081526040808320938916835292905220548411156107695760405163e3ba12af60e01b815260040160405180910390fd5b6001600160a01b038087166000908152600360209081526040808320938916835292905290812080548692906107a0908490611417565b90915550506001600160a01b038616600090815260046020526040812080548392906107cd908490611417565b90915550506040805160a081019091526001600160a01b03831660c08201526000908060e0810160408051808303601f19018152918152908252516001600160a01b038a81166024830152891660448201526064810188905260209091019060840160408051601f19818403018152919052602080820180516001600160e01b0316633a04ae6560e11b1790529082520160006040519080825280602002602001820160405280156108a557816020015b604080518082019091526000808252602082015281526020019060019003908161087e5790505b5081526020017f00000000000000000000000000000000000000000000000000000000000000006001600160a01b0316815260200160405180602001604052806000815250815250905060007f00000000000000000000000000000000000000000000000000000000000000006001600160a01b03166320487ded86846040518363ffffffff1660e01b815260040161093f929190611470565b602060405180830381865afa15801561095c573d6000803e3d6000fd5b505050506040513d601f19601f8201168201806040525081019061098091906113fe565b60405163095ea7b360e01b81526001600160a01b037f000000000000000000000000000000000000000000000000000000000000000081166004830152602482018390529192506000917f0000000000000000000000000000000000000000000000000000000000000000169063095ea7b3906044016020604051808303816000875af1158015610a15573d6000803e3d6000fd5b505050506040513d601f19601f82011682018060405250810190610a39919061154a565b506040516396f4e9f960e01b81526001600160a01b037f000000000000000000000000000000000000000000000000000000000000000016906396f4e9f990610a889089908790600401611470565b6020604051808303816000875af1158015610aa7573d6000803e3d6000fd5b505050506040513d601f19601f82011682018060405250810190610acb91906113fe565b6040519091507f249fb6fadeae39f945ae1eeb5589fefacd80ce7f391faada33364e43e6f5b67890600090a1505050505050505050565b6000546001600160a01b03163314610b2d5760405163766ade3560e01b815260040160405180910390fd5b6001600160a01b03919091166000908152600560205260409020805460ff1916911515919091179055565b6001600160a01b03821660009081526005602052604081205460ff1615610bf45760405163518fe24f60e01b81526004810183905273__$a6530bd5f06d2d0657cdfb077130bb6c10$__9063518fe24f90602401602060405180830381865af4158015610bc9573d6000803e3d6000fd5b505050506040513d601f19601f82011682018060405250810190610bed91906113fe565b9050610bf7565b50805b6002546001600160a01b038516600090815260076020526040902054606491610c1f91611567565b610c29919061157e565b811015610c495760405163699d415b60e11b815260040160405180910390fd5b60095460005b81811015610cb3576001600160a01b03861660009081526006602052604081206009805483919085908110610c8657610c866115a0565b60009182526020808320909101546001600160a01b03168352820192909252604001902055600101610c4f565b506001600160a01b038516600090815260076020526040808220829055517f873ce2eea82d1bfc3035984e5b9c6e32e596c8b5ef96b0f72761e2e494532c2d9190a15050505050565b6001546001600160a01b0382166000908152600460205260408120549091606491610d279190611567565b610628919061157e565b6000546001600160a01b03163314610d5c5760405163766ade3560e01b815260040160405180910390fd5b6001600160a01b03919091166000818152600860205260408120805460ff1916931515939093179092556009805460018101825592527f6e1540171b6c0c960b71a7020d9f60077f6af931a8bbf590da0223dacf75c7af90910180546001600160a01b0319169091179055565b6000546001600160a01b03163314610df45760405163766ade3560e01b815260040160405180910390fd5b600155565b6001600160a01b03841660009081526005602052604081205460ff1615610e955760405163518fe24f60e01b81526004810185905273__$a6530bd5f06d2d0657cdfb077130bb6c10$__9063518fe24f90602401602060405180830381865af4158015610e6a573d6000803e3d6000fd5b505050506040513d601f19601f82011682018060405250810190610e8e91906113fe565b9050610e98565b50825b610ea186610658565b811115610ec15760405163031c684760e21b815260040160405180910390fd5b6001600160a01b03808716600090815260066020908152604080832093891683529290529081208054869290610ef89084906113eb565b90915550506001600160a01b03861660009081526007602052604081208054839290610f259084906113eb565b90915550506040805160a081019091526001600160a01b03831660c08201526000908060e0810160408051808303601f19018152918152908252516001600160a01b038a81166024830152891660448201526064810188905260209091019060840160408051601f19818403018152919052602080820180516001600160e01b031663c27c310560e01b179052908252016000604051908082528060200260200182016040528015610ffd57816020015b6040805180820190915260008082526020820152815260200190600190039081610fd65790505b5081526020017f00000000000000000000000000000000000000000000000000000000000000006001600160a01b0316815260200160405180602001604052806000815250815250905060007f00000000000000000000000000000000000000000000000000000000000000006001600160a01b03166320487ded86846040518363ffffffff1660e01b8152600401611097929190611470565b602060405180830381865afa1580156110b4573d6000803e3d6000fd5b505050506040513d601f19601f820116820180604052508101906110d891906113fe565b60405163095ea7b360e01b81526001600160a01b037f000000000000000000000000000000000000000000000000000000000000000081166004830152602482018390529192506000917f0000000000000000000000000000000000000000000000000000000000000000169063095ea7b3906044016020604051808303816000875af115801561116d573d6000803e3d6000fd5b505050506040513d601f19601f82011682018060405250810190611191919061154a565b506040516396f4e9f960e01b81526001600160a01b037f000000000000000000000000000000000000000000000000000000000000000016906396f4e9f9906111e09089908790600401611470565b6020604051808303816000875af11580156111ff573d6000803e3d6000fd5b505050506040513d601f19601f8201168201806040525081019061122391906113fe565b6040519091507f40e457d2389b83ddf774c766c2d1236a3242b9be7f46ae5e5de591361aaae86390600090a1505050505050505050565b80356001600160a01b038116811461127157600080fd5b919050565b60008060006060848603121561128b57600080fd5b6112948461125a565b92506112a26020850161125a565b9150604084013590509250925092565b600080604083850312156112c557600080fd5b6112ce8361125a565b91506112dc6020840161125a565b90509250929050565b6000602082840312156112f757600080fd5b5035919050565b60006020828403121561131057600080fd5b6113198261125a565b9392505050565b600080600080600060a0868803121561133857600080fd5b6113418661125a565b945061134f6020870161125a565b935060408601359250606086013567ffffffffffffffff8116811461137357600080fd5b91506113816080870161125a565b90509295509295909350565b801515811461139b57600080fd5b50565b600080604083850312156113b157600080fd5b6113ba8361125a565b915060208301356113ca8161138d565b809150509250929050565b634e487b7160e01b600052601160045260246000fd5b80820180821115610628576106286113d5565b60006020828403121561141057600080fd5b5051919050565b81810381811115610628576106286113d5565b6000815180845260005b8181101561145057602081850181015186830182015201611434565b506000602082860101526020601f19601f83011685010191505092915050565b6000604067ffffffffffffffff8516835260208181850152845160a08386015261149d60e086018261142a565b905081860151603f19808784030160608801526114ba838361142a565b88860151888203830160808a01528051808352908601945060009350908501905b8084101561150d57845180516001600160a01b03168352860151868301529385019360019390930192908601906114db565b5060608901516001600160a01b031660a08901526080890151888203830160c08a0152955061153c818761142a565b9a9950505050505050505050565b60006020828403121561155c57600080fd5b81516113198161138d565b8082028115828204841417610628576106286113d5565b60008261159b57634e487b7160e01b600052601260045260246000fd5b500490565b634e487b7160e01b600052603260045260246000fdfea26469706673582212205a88e1f984a58360837a0720f6a8c7e686dfa58be457e9c58548437dc84e9b0c64736f6c63430008130033",
    "linkReferences": {
      "src/PriceConverter.sol": {
        "PriceConverter": [
          {
            "start": 1617,
            "length": 20
          },
          {
            "start": 2040,
            "length": 20
          },
          {
            "start": 3276,
            "length": 20
          },
          {
            "start": 3949,
            "length": 20
          }
        ]
      }
    }
  },
  "methodIdentifiers": {
    "allowedToken(address)": "756742f8",
    "allowedTokenArray(uint256)": "294a5512",
    "borrow(address,address,uint256,uint64,address)": "d474d4af",
    "borrowBalance(address)": "4d73e9ba",
    "getAlreadyBorrowed(address)": "98041a3e",
    "getBorrowLimit(address)": "7c17d237",
    "getBorrowLimitLeft(address)": "29c0b23a",
    "getBorrowTokenAmount(address,address)": "29137abc",
    "getLinkAddress()": "ca30e603",
    "getRouterAddress()": "d54f7d5e",
    "getThreshold()": "e75235b8",
    "getUserLendAmount(address)": "e09e4ac0",
    "getUserLendTokenAmount(address,address)": "b206d8f0",
    "getborrowInterestRate()": "4c12c16d",
    "isEthereum(address)": "86e36267",
    "isTokenSupported(address)": "75151b63",
    "lend(address,address,uint256)": "05ec2d4d",
    "ownerAddr()": "9c675eaa",
    "rePayFull(address,address,uint256)": "41bb200b",
    "removeLendBalance(address,address,uint256,uint64,address)": "3043b305",
    "setAllowedToken(address,bool)": "8aaa2284",
    "setIsEthereum(address,bool)": "350287ab",
    "setThreshold(uint256)": "960bfe04",
    "userBorrowTokenBalance(address,address)": "cbf45241",
    "userLendBalance(address)": "a824ed4f",
    "userLendTokenBalance(address,address)": "41c4258f"
  },
  "id": 35
}