{
  "abi": [
    {
      "inputs": [
        {
          "internalType": "address",
          "name": "_owner",
          "type": "address"
        },
        {
          "internalType": "address",
          "name": "_router",
          "type": "address"
        },
        {
          "internalType": "address",
          "name": "_link",
          "type": "address"
        }
      ],
      "stateMutability": "nonpayable",
      "type": "constructor"
    },
    {
      "inputs": [],
      "name": "BORROW_LIMIT_EXCEED",
      "type": "error"
    },
    {
      "inputs": [],
      "name": "FAILED_TO_BORROW",
      "type": "error"
    },
    {
      "inputs": [],
      "name": "FAILED_TO_LEND",
      "type": "error"
    },
    {
      "inputs": [],
      "name": "FAILED_TO_REPAY",
      "type": "error"
    },
    {
      "inputs": [],
      "name": "FAILED_TO_WITHDRAW",
      "type": "error"
    },
    {
      "inputs": [],
      "name": "NOT_ENOUGH_AMOUNT_REPAYFULL",
      "type": "error"
    },
    {
      "inputs": [],
      "name": "NOT_ENOUGH_TOKEN_LENDED",
      "type": "error"
    },
    {
      "inputs": [],
      "name": "ONLY_OWNER_CALL_THIS_FUNCTION",
      "type": "error"
    },
    {
      "inputs": [],
      "name": "TOKEN_NOT_SUPPORTED",
      "type": "error"
    },
    {
      "inputs": [
        {
          "internalType": "address",
          "name": "",
          "type": "address"
        }
      ],
      "name": "allowedToken",
      "outputs": [
        {
          "internalType": "bool",
          "name": "",
          "type": "bool"
        }
      ],
      "stateMutability": "view",
      "type": "function"
    },
    {
      "inputs": [
        {
          "internalType": "uint256",
          "name": "",
          "type": "uint256"
        }
      ],
      "name": "allowedTokenArray",
      "outputs": [
        {
          "internalType": "address",
          "name": "",
          "type": "address"
        }
      ],
      "stateMutability": "view",
      "type": "function"
    },
    {
      "inputs": [
        {
          "internalType": "address",
          "name": "_token",
          "type": "address"
        },
        {
          "internalType": "uint256",
          "name": "_amount",
          "type": "uint256"
        },
        {
          "internalType": "uint64",
          "name": "destinationChainSelector",
          "type": "uint64"
        },
        {
          "internalType": "address",
          "name": "receiver",
          "type": "address"
        },
        {
          "internalType": "enum Balance.PayFeesIn",
          "name": "payFeesIn",
          "type": "uint8"
        }
      ],
      "name": "borrow",
      "outputs": [],
      "stateMutability": "nonpayable",
      "type": "function"
    },
    {
      "inputs": [
        {
          "internalType": "address",
          "name": "",
          "type": "address"
        }
      ],
      "name": "borrowBalance",
      "outputs": [
        {
          "internalType": "uint256",
          "name": "",
          "type": "uint256"
        }
      ],
      "stateMutability": "view",
      "type": "function"
    },
    {
      "inputs": [
        {
          "internalType": "address",
          "name": "_user",
          "type": "address"
        }
      ],
      "name": "getAlreadyBorrowed",
      "outputs": [
        {
          "internalType": "uint256",
          "name": "",
          "type": "uint256"
        }
      ],
      "stateMutability": "view",
      "type": "function"
    },
    {
      "inputs": [
        {
          "internalType": "address",
          "name": "_user",
          "type": "address"
        }
      ],
      "name": "getBorrowLimit",
      "outputs": [
        {
          "internalType": "uint256",
          "name": "",
          "type": "uint256"
        }
      ],
      "stateMutability": "view",
      "type": "function"
    },
    {
      "inputs": [
        {
          "internalType": "address",
          "name": "_user",
          "type": "address"
        }
      ],
      "name": "getBorrowLimitLeft",
      "outputs": [
        {
          "internalType": "uint256",
          "name": "",
          "type": "uint256"
        }
      ],
      "stateMutability": "view",
      "type": "function"
    },
    {
      "inputs": [
        {
          "internalType": "address",
          "name": "_user",
          "type": "address"
        },
        {
          "internalType": "address",
          "name": "_token",
          "type": "address"
        }
      ],
      "name": "getBorrowTokenAmount",
      "outputs": [
        {
          "internalType": "uint256",
          "name": "",
          "type": "uint256"
        }
      ],
      "stateMutability": "view",
      "type": "function"
    },
    {
      "inputs": [
        {
          "internalType": "address",
          "name": "_user",
          "type": "address"
        }
      ],
      "name": "getUserLendAmount",
      "outputs": [
        {
          "internalType": "uint256",
          "name": "",
          "type": "uint256"
        }
      ],
      "stateMutability": "view",
      "type": "function"
    },
    {
      "inputs": [
        {
          "internalType": "address",
          "name": "_user",
          "type": "address"
        },
        {
          "internalType": "address",
          "name": "_token",
          "type": "address"
        }
      ],
      "name": "getUserLendTokenAmount",
      "outputs": [
        {
          "internalType": "uint256",
          "name": "",
          "type": "uint256"
        }
      ],
      "stateMutability": "view",
      "type": "function"
    },
    {
      "inputs": [],
      "name": "i_link",
      "outputs": [
        {
          "internalType": "address",
          "name": "",
          "type": "address"
        }
      ],
      "stateMutability": "view",
      "type": "function"
    },
    {
      "inputs": [],
      "name": "i_router",
      "outputs": [
        {
          "internalType": "address",
          "name": "",
          "type": "address"
        }
      ],
      "stateMutability": "view",
      "type": "function"
    },
    {
      "inputs": [
        {
          "internalType": "address",
          "name": "",
          "type": "address"
        }
      ],
      "name": "isEthereum",
      "outputs": [
        {
          "internalType": "bool",
          "name": "",
          "type": "bool"
        }
      ],
      "stateMutability": "view",
      "type": "function"
    },
    {
      "inputs": [
        {
          "internalType": "address",
          "name": "_token",
          "type": "address"
        }
      ],
      "name": "isTokenSupported",
      "outputs": [
        {
          "internalType": "bool",
          "name": "",
          "type": "bool"
        }
      ],
      "stateMutability": "view",
      "type": "function"
    },
    {
      "inputs": [
        {
          "internalType": "address",
          "name": "_token",
          "type": "address"
        },
        {
          "internalType": "uint256",
          "name": "_amount",
          "type": "uint256"
        }
      ],
      "name": "lend",
      "outputs": [],
      "stateMutability": "nonpayable",
      "type": "function"
    },
    {
      "inputs": [],
      "name": "ownerAddr",
      "outputs": [
        {
          "internalType": "address",
          "name": "",
          "type": "address"
        }
      ],
      "stateMutability": "view",
      "type": "function"
    },
    {
      "inputs": [
        {
          "internalType": "address",
          "name": "_token",
          "type": "address"
        },
        {
          "internalType": "uint256",
          "name": "_amount",
          "type": "uint256"
        }
      ],
      "name": "rePayFull",
      "outputs": [],
      "stateMutability": "nonpayable",
      "type": "function"
    },
    {
      "inputs": [
        {
          "internalType": "address",
          "name": "_token",
          "type": "address"
        },
        {
          "internalType": "uint256",
          "name": "_amount",
          "type": "uint256"
        },
        {
          "internalType": "uint64",
          "name": "destinationChainSelector",
          "type": "uint64"
        },
        {
          "internalType": "address",
          "name": "receiver",
          "type": "address"
        },
        {
          "internalType": "enum Balance.PayFeesIn",
          "name": "payFeesIn",
          "type": "uint8"
        }
      ],
      "name": "removeLendBalance",
      "outputs": [],
      "stateMutability": "nonpayable",
      "type": "function"
    },
    {
      "inputs": [
        {
          "internalType": "address",
          "name": "_tokenAddress",
          "type": "address"
        },
        {
          "internalType": "bool",
          "name": "_allowed",
          "type": "bool"
        }
      ],
      "name": "setAllowedToken",
      "outputs": [],
      "stateMutability": "nonpayable",
      "type": "function"
    },
    {
      "inputs": [
        {
          "internalType": "address",
          "name": "_tokenAddress",
          "type": "address"
        },
        {
          "internalType": "bool",
          "name": "_allowed",
          "type": "bool"
        }
      ],
      "name": "setIsEthereum",
      "outputs": [],
      "stateMutability": "nonpayable",
      "type": "function"
    },
    {
      "inputs": [
        {
          "internalType": "uint256",
          "name": "_newThreshold",
          "type": "uint256"
        }
      ],
      "name": "setThreshold",
      "outputs": [],
      "stateMutability": "nonpayable",
      "type": "function"
    },
    {
      "inputs": [],
      "name": "threshold",
      "outputs": [
        {
          "internalType": "uint256",
          "name": "",
          "type": "uint256"
        }
      ],
      "stateMutability": "view",
      "type": "function"
    },
    {
      "inputs": [
        {
          "internalType": "address",
          "name": "",
          "type": "address"
        },
        {
          "internalType": "address",
          "name": "",
          "type": "address"
        }
      ],
      "name": "userBorrowTokenBalance",
      "outputs": [
        {
          "internalType": "uint256",
          "name": "",
          "type": "uint256"
        }
      ],
      "stateMutability": "view",
      "type": "function"
    },
    {
      "inputs": [
        {
          "internalType": "address",
          "name": "",
          "type": "address"
        }
      ],
      "name": "userLendBalance",
      "outputs": [
        {
          "internalType": "uint256",
          "name": "",
          "type": "uint256"
        }
      ],
      "stateMutability": "view",
      "type": "function"
    },
    {
      "inputs": [
        {
          "internalType": "address",
          "name": "",
          "type": "address"
        },
        {
          "internalType": "address",
          "name": "",
          "type": "address"
        }
      ],
      "name": "userLendTokenBalance",
      "outputs": [
        {
          "internalType": "uint256",
          "name": "",
          "type": "uint256"
        }
      ],
      "stateMutability": "view",
      "type": "function"
    }
  ],
  "bytecode": {
    "object": "0x60c060405260506001553480156200001657600080fd5b506040516200150b3803806200150b833981016040819052620000399162000082565b600080546001600160a01b0319166001600160a01b039485161790559082166080521660a052620000cc565b80516001600160a01b03811681146200007d57600080fd5b919050565b6000806000606084860312156200009857600080fd5b620000a38462000065565b9250620000b36020850162000065565b9150620000c36040850162000065565b90509250925092565b60805160a0516113ef6200011c60003960008181610309015281816108ec0152610a2301526000818161027001528181610933015281816109f401528181610aa80152610b4001526113ef6000f3fe608060405234801561001057600080fd5b50600436106101735760003560e01c80637c17d237116100de5780639c675eaa11610097578063b206d8f011610071578063b206d8f0146103e1578063cbf452411461041a578063e09e4ac014610445578063ef4e6a421461046e57600080fd5b80639c675eaa1461039d578063a2fb342d146103ae578063a824ed4f146103c157600080fd5b80637c17d237146102f15780637d253aff1461030457806386e362671461032b5780638aaa22841461034e578063960bfe041461036157806398041a3e1461037457600080fd5b806342cde4e81161013057806342cde4e81461022f57806348f0f7cc146102385780634d73e9ba1461024b578063581bdd161461026b57806375151b6314610292578063756742f8146102ce57600080fd5b806329137abc14610178578063294a55121461019e57806329c0b23a146101c9578063350287ab146101dc57806340ec0ca8146101f157806341c4258f14610204575b600080fd5b61018b61018636600461106d565b610481565b6040519081526020015b60405180910390f35b6101b16101ac3660046110a0565b6104ae565b6040516001600160a01b039091168152602001610195565b61018b6101d73660046110b9565b6104d8565b6101ef6101ea3660046110ec565b610504565b005b6101ef6101ff366004611123565b61055a565b61018b61021236600461106d565b600260209081526000928352604080842090915290825290205481565b61018b60015481565b6101ef61024636600461114d565b6106b9565b61018b6102593660046110b9565b60066020526000908152604090205481565b6101b17f000000000000000000000000000000000000000000000000000000000000000081565b6102be6102a03660046110b9565b6001600160a01b031660009081526007602052604090205460ff1690565b6040519015158152602001610195565b6102be6102dc3660046110b9565b60076020526000908152604090205460ff1681565b61018b6102ff3660046110b9565b610bca565b6101b17f000000000000000000000000000000000000000000000000000000000000000081565b6102be6103393660046110b9565b60046020526000908152604090205460ff1681565b6101ef61035c3660046110ec565b610bfb565b6101ef61036f3660046110a0565b610c93565b61018b6103823660046110b9565b6001600160a01b031660009081526006602052604090205490565b6000546001600160a01b03166101b1565b6101ef6103bc366004611123565b610cc3565b61018b6103cf3660046110b9565b60036020526000908152604090205481565b61018b6103ef36600461106d565b6001600160a01b03918216600090815260026020908152604080832093909416825291909152205490565b61018b61042836600461106d565b600560209081526000928352604080842090915290825290205481565b61018b6104533660046110b9565b6001600160a01b031660009081526003602052604090205490565b6101ef61047c36600461114d565b610e57565b6001600160a01b038083166000908152600560209081526040808320938516835292905220545b92915050565b600881815481106104be57600080fd5b6000918252602090912001546001600160a01b0316905081565b6001600160a01b0381166000908152600660205260408120546104fa83610bca565b6104a891906111d8565b6000546001600160a01b0316331461052f5760405163766ade3560e01b815260040160405180910390fd5b6001600160a01b03919091166000908152600460205260409020805460ff1916911515919091179055565b6001600160a01b03821660009081526004602052604081205460ff16156105f65760405163518fe24f60e01b81526004810183905273__$a6530bd5f06d2d0657cdfb077130bb6c10$__9063518fe24f90602401602060405180830381865af41580156105cb573d6000803e3d6000fd5b505050506040513d601f19601f820116820180604052508101906105ef91906111eb565b90506105f9565b50805b33600090815260066020526040902054606490610617906005611204565b610621919061121b565b8110156106415760405163699d415b60e11b815260040160405180910390fd5b60085460005b818110156106a25733600090815260056020526040812060088054839190859081106106755761067561123d565b60009182526020808320909101546001600160a01b03168352820192909252604001902055600101610647565b505033600090815260066020526040812055505050565b6001600160a01b03851660009081526004602052604081205460ff16156107555760405163518fe24f60e01b81526004810186905273__$a6530bd5f06d2d0657cdfb077130bb6c10$__9063518fe24f90602401602060405180830381865af415801561072a573d6000803e3d6000fd5b505050506040513d601f19601f8201168201806040525081019061074e91906111eb565b9050610758565b50835b3360009081526002602090815260408083206001600160a01b038a16845290915290205485111561079c5760405163e3ba12af60e01b815260040160405180910390fd5b3360009081526002602090815260408083206001600160a01b038a168452909152812080548792906107cf9084906111d8565b909155505033600090815260036020526040812080548392906107f39084906111d8565b90915550506040805160a081019091526001600160a01b03841660c08201526000908060e0810160408051808303601f19018152918152908252516001600160a01b038a1660248201526044810189905260209091019060640160408051601f19818403018152919052602080820180516001600160e01b03166350eb619960e01b1790529082520160006040519080825280602002602001820160405280156108c357816020015b604080518082019091526000808252602082015281526020019060019003908161089c5790505b50815260200160015b8560018111156108de576108de611253565b146108ea57600061090c565b7f00000000000000000000000000000000000000000000000000000000000000005b6001600160a01b0316815260200160405180602001604052806000815250815250905060007f00000000000000000000000000000000000000000000000000000000000000006001600160a01b03166320487ded87846040518363ffffffff1660e01b815260040161097f9291906112af565b602060405180830381865afa15801561099c573d6000803e3d6000fd5b505050506040513d601f19601f820116820180604052508101906109c091906111eb565b9050600060018560018111156109d8576109d8611253565b03610b295760405163095ea7b360e01b81526001600160a01b037f000000000000000000000000000000000000000000000000000000000000000081166004830152602482018490527f0000000000000000000000000000000000000000000000000000000000000000169063095ea7b3906044016020604051808303816000875af1158015610a6c573d6000803e3d6000fd5b505050506040513d601f19601f82011682018060405250810190610a909190611389565b506040516396f4e9f960e01b81526001600160a01b037f000000000000000000000000000000000000000000000000000000000000000016906396f4e9f990610adf908a9087906004016112af565b6020604051808303816000875af1158015610afe573d6000803e3d6000fd5b505050506040513d601f19601f82011682018060405250810190610b2291906111eb565b9050610bbf565b6040516396f4e9f960e01b81526001600160a01b037f000000000000000000000000000000000000000000000000000000000000000016906396f4e9f9908490610b79908b9088906004016112af565b60206040518083038185885af1158015610b97573d6000803e3d6000fd5b50505050506040513d601f19601f82011682018060405250810190610bbc91906111eb565b90505b505050505050505050565b6001600160a01b038116600090815260036020526040812054606490610bf1906050611204565b6104a8919061121b565b6000546001600160a01b03163314610c265760405163766ade3560e01b815260040160405180910390fd5b6001600160a01b03919091166000818152600760205260408120805460ff1916931515939093179092556008805460018101825592527ff3f7a9fe364faab93b216da50a3214154f22a0a2b415b23a84c8169e8b636ee390910180546001600160a01b0319169091179055565b6000546001600160a01b03163314610cbe5760405163766ade3560e01b815260040160405180910390fd5b600155565b3360009081526002602090815260408083206001600160a01b038616845290915281208054839290610cf69084906113a6565b90915550506001600160a01b03821660009081526004602052604090205460ff1615610dba5760405163518fe24f60e01b81526004810182905273__$a6530bd5f06d2d0657cdfb077130bb6c10$__9063518fe24f90602401602060405180830381865af4158015610d6c573d6000803e3d6000fd5b505050506040513d601f19601f82011682018060405250810190610d9091906111eb565b3360009081526003602052604081208054909190610daf9084906113a6565b90915550610e539050565b60405163518fe24f60e01b81526004810182905273__$a6530bd5f06d2d0657cdfb077130bb6c10$__9063518fe24f90602401602060405180830381865af4158015610e0a573d6000803e3d6000fd5b505050506040513d601f19601f82011682018060405250810190610e2e91906111eb565b3360009081526003602052604081208054909190610e4d9084906113a6565b90915550505b5050565b6001600160a01b03851660009081526004602052604081205460ff1615610ef35760405163518fe24f60e01b81526004810186905273__$a6530bd5f06d2d0657cdfb077130bb6c10$__9063518fe24f90602401602060405180830381865af4158015610ec8573d6000803e3d6000fd5b505050506040513d601f19601f82011682018060405250810190610eec91906111eb565b9050610ef6565b50835b610eff336104d8565b811115610f1f5760405163031c684760e21b815260040160405180910390fd5b3360009081526005602090815260408083206001600160a01b038a16845290915281208054879290610f529084906113a6565b90915550503360009081526006602052604081208054839290610f769084906113a6565b90915550506040805160a081019091526001600160a01b03841660c08201526000908060e0810160408051808303601f19018152918152908252516001600160a01b038a1660248201526044810189905260209091019060640160408051601f19818403018152919052602080820180516001600160e01b03166316a46ce760e21b1790529082520160006040519080825280602002602001820160405280156108c357816020015b604080518082019091526000808252602082015281526020019060019003908161101f575050815260200160016108cc565b80356001600160a01b038116811461106857600080fd5b919050565b6000806040838503121561108057600080fd5b61108983611051565b915061109760208401611051565b90509250929050565b6000602082840312156110b257600080fd5b5035919050565b6000602082840312156110cb57600080fd5b6110d482611051565b9392505050565b80151581146110e957600080fd5b50565b600080604083850312156110ff57600080fd5b61110883611051565b91506020830135611118816110db565b809150509250929050565b6000806040838503121561113657600080fd5b61113f83611051565b946020939093013593505050565b600080600080600060a0868803121561116557600080fd5b61116e86611051565b945060208601359350604086013567ffffffffffffffff8116811461119257600080fd5b92506111a060608701611051565b91506080860135600281106111b457600080fd5b809150509295509295909350565b634e487b7160e01b600052601160045260246000fd5b818103818111156104a8576104a86111c2565b6000602082840312156111fd57600080fd5b5051919050565b80820281158282048414176104a8576104a86111c2565b60008261123857634e487b7160e01b600052601260045260246000fd5b500490565b634e487b7160e01b600052603260045260246000fd5b634e487b7160e01b600052602160045260246000fd5b6000815180845260005b8181101561128f57602081850181015186830182015201611273565b506000602082860101526020601f19601f83011685010191505092915050565b6000604067ffffffffffffffff8516835260208181850152845160a0838601526112dc60e0860182611269565b905081860151603f19808784030160608801526112f98383611269565b88860151888203830160808a01528051808352908601945060009350908501905b8084101561134c57845180516001600160a01b031683528601518683015293850193600193909301929086019061131a565b5060608901516001600160a01b031660a08901526080890151888203830160c08a0152955061137b8187611269565b9a9950505050505050505050565b60006020828403121561139b57600080fd5b81516110d4816110db565b808201808211156104a8576104a86111c256fea2646970667358221220b55408333e79a64ed3238f2fc637c982856a4e2869deabd107488cb5f75f0cbc64736f6c63430008130033",
    "linkReferences": {
      "src/PriceConverter.sol": {
        "PriceConverter": [
          {
            "start": 1709,
            "length": 20
          },
          {
            "start": 2060,
            "length": 20
          },
          {
            "start": 3662,
            "length": 20
          },
          {
            "start": 3820,
            "length": 20
          },
          {
            "start": 4010,
            "length": 20
          }
        ]
      }
    }
  },
  "methodIdentifiers": {
    "allowedToken(address)": "756742f8",
    "allowedTokenArray(uint256)": "294a5512",
    "borrow(address,uint256,uint64,address,uint8)": "ef4e6a42",
    "borrowBalance(address)": "4d73e9ba",
    "getAlreadyBorrowed(address)": "98041a3e",
    "getBorrowLimit(address)": "7c17d237",
    "getBorrowLimitLeft(address)": "29c0b23a",
    "getBorrowTokenAmount(address,address)": "29137abc",
    "getUserLendAmount(address)": "e09e4ac0",
    "getUserLendTokenAmount(address,address)": "b206d8f0",
    "i_link()": "7d253aff",
    "i_router()": "581bdd16",
    "isEthereum(address)": "86e36267",
    "isTokenSupported(address)": "75151b63",
    "lend(address,uint256)": "a2fb342d",
    "ownerAddr()": "9c675eaa",
    "rePayFull(address,uint256)": "40ec0ca8",
    "removeLendBalance(address,uint256,uint64,address,uint8)": "48f0f7cc",
    "setAllowedToken(address,bool)": "8aaa2284",
    "setIsEthereum(address,bool)": "350287ab",
    "setThreshold(uint256)": "960bfe04",
    "threshold()": "42cde4e8",
    "userBorrowTokenBalance(address,address)": "cbf45241",
    "userLendBalance(address)": "a824ed4f",
    "userLendTokenBalance(address,address)": "41c4258f"
  },
  "id": 30
}