{
  "abi": [
    {
      "inputs": [
        {
          "internalType": "address",
          "name": "_owner",
          "type": "address"
        },
        {
          "internalType": "address",
          "name": "_router",
          "type": "address"
        },
        {
          "internalType": "address",
          "name": "_link",
          "type": "address"
        }
      ],
      "stateMutability": "nonpayable",
      "type": "constructor"
    },
    {
      "inputs": [],
      "name": "BORROW_LIMIT_EXCEED",
      "type": "error"
    },
    {
      "inputs": [],
      "name": "FAILED_TO_BORROW",
      "type": "error"
    },
    {
      "inputs": [],
      "name": "FAILED_TO_LEND",
      "type": "error"
    },
    {
      "inputs": [],
      "name": "FAILED_TO_REPAY",
      "type": "error"
    },
    {
      "inputs": [],
      "name": "FAILED_TO_WITHDRAW",
      "type": "error"
    },
    {
      "inputs": [],
      "name": "NOT_ENOUGH_AMOUNT_REPAYFULL",
      "type": "error"
    },
    {
      "inputs": [],
      "name": "NOT_ENOUGH_TOKEN_LENDED",
      "type": "error"
    },
    {
      "inputs": [],
      "name": "ONLY_OWNER_CALL_THIS_FUNCTION",
      "type": "error"
    },
    {
      "inputs": [],
      "name": "TOKEN_NOT_SUPPORTED",
      "type": "error"
    },
    {
      "inputs": [
        {
          "internalType": "address",
          "name": "",
          "type": "address"
        }
      ],
      "name": "allowedToken",
      "outputs": [
        {
          "internalType": "bool",
          "name": "",
          "type": "bool"
        }
      ],
      "stateMutability": "view",
      "type": "function"
    },
    {
      "inputs": [
        {
          "internalType": "uint256",
          "name": "",
          "type": "uint256"
        }
      ],
      "name": "allowedTokenArray",
      "outputs": [
        {
          "internalType": "address",
          "name": "",
          "type": "address"
        }
      ],
      "stateMutability": "view",
      "type": "function"
    },
    {
      "inputs": [
        {
          "internalType": "address",
          "name": "_token",
          "type": "address"
        },
        {
          "internalType": "uint256",
          "name": "_amount",
          "type": "uint256"
        },
        {
          "internalType": "uint64",
          "name": "destinationChainSelector",
          "type": "uint64"
        },
        {
          "internalType": "address",
          "name": "receiver",
          "type": "address"
        },
        {
          "internalType": "enum Balance.PayFeesIn",
          "name": "payFeesIn",
          "type": "uint8"
        }
      ],
      "name": "borrow",
      "outputs": [],
      "stateMutability": "nonpayable",
      "type": "function"
    },
    {
      "inputs": [
        {
          "internalType": "address",
          "name": "",
          "type": "address"
        }
      ],
      "name": "borrowBalance",
      "outputs": [
        {
          "internalType": "uint256",
          "name": "",
          "type": "uint256"
        }
      ],
      "stateMutability": "view",
      "type": "function"
    },
    {
      "inputs": [
        {
          "internalType": "address",
          "name": "_user",
          "type": "address"
        }
      ],
      "name": "getAlreadyBorrowed",
      "outputs": [
        {
          "internalType": "uint256",
          "name": "",
          "type": "uint256"
        }
      ],
      "stateMutability": "view",
      "type": "function"
    },
    {
      "inputs": [
        {
          "internalType": "address",
          "name": "_user",
          "type": "address"
        }
      ],
      "name": "getBorrowLimit",
      "outputs": [
        {
          "internalType": "uint256",
          "name": "",
          "type": "uint256"
        }
      ],
      "stateMutability": "view",
      "type": "function"
    },
    {
      "inputs": [
        {
          "internalType": "address",
          "name": "_user",
          "type": "address"
        }
      ],
      "name": "getBorrowLimitLeft",
      "outputs": [
        {
          "internalType": "uint256",
          "name": "",
          "type": "uint256"
        }
      ],
      "stateMutability": "view",
      "type": "function"
    },
    {
      "inputs": [
        {
          "internalType": "address",
          "name": "_user",
          "type": "address"
        },
        {
          "internalType": "address",
          "name": "_token",
          "type": "address"
        }
      ],
      "name": "getBorrowTokenAmount",
      "outputs": [
        {
          "internalType": "uint256",
          "name": "",
          "type": "uint256"
        }
      ],
      "stateMutability": "view",
      "type": "function"
    },
    {
      "inputs": [
        {
          "internalType": "address",
          "name": "_user",
          "type": "address"
        }
      ],
      "name": "getUserLendAmount",
      "outputs": [
        {
          "internalType": "uint256",
          "name": "",
          "type": "uint256"
        }
      ],
      "stateMutability": "view",
      "type": "function"
    },
    {
      "inputs": [
        {
          "internalType": "address",
          "name": "_user",
          "type": "address"
        },
        {
          "internalType": "address",
          "name": "_token",
          "type": "address"
        }
      ],
      "name": "getUserLendTokenAmount",
      "outputs": [
        {
          "internalType": "uint256",
          "name": "",
          "type": "uint256"
        }
      ],
      "stateMutability": "view",
      "type": "function"
    },
    {
      "inputs": [
        {
          "internalType": "address",
          "name": "",
          "type": "address"
        }
      ],
      "name": "isEthereum",
      "outputs": [
        {
          "internalType": "bool",
          "name": "",
          "type": "bool"
        }
      ],
      "stateMutability": "view",
      "type": "function"
    },
    {
      "inputs": [
        {
          "internalType": "address",
          "name": "_token",
          "type": "address"
        }
      ],
      "name": "isTokenSupported",
      "outputs": [
        {
          "internalType": "bool",
          "name": "",
          "type": "bool"
        }
      ],
      "stateMutability": "view",
      "type": "function"
    },
    {
      "inputs": [
        {
          "internalType": "address",
          "name": "_token",
          "type": "address"
        },
        {
          "internalType": "uint256",
          "name": "_amount",
          "type": "uint256"
        }
      ],
      "name": "lend",
      "outputs": [],
      "stateMutability": "nonpayable",
      "type": "function"
    },
    {
      "inputs": [],
      "name": "owner",
      "outputs": [
        {
          "internalType": "address",
          "name": "",
          "type": "address"
        }
      ],
      "stateMutability": "view",
      "type": "function"
    },
    {
      "inputs": [],
      "name": "ownerAddr",
      "outputs": [
        {
          "internalType": "address",
          "name": "",
          "type": "address"
        }
      ],
      "stateMutability": "view",
      "type": "function"
    },
    {
      "inputs": [
        {
          "internalType": "address",
          "name": "_token",
          "type": "address"
        },
        {
          "internalType": "uint256",
          "name": "_amount",
          "type": "uint256"
        }
      ],
      "name": "rePayFull",
      "outputs": [],
      "stateMutability": "nonpayable",
      "type": "function"
    },
    {
      "inputs": [
        {
          "internalType": "address",
          "name": "_token",
          "type": "address"
        },
        {
          "internalType": "uint256",
          "name": "_amount",
          "type": "uint256"
        },
        {
          "internalType": "uint64",
          "name": "destinationChainSelector",
          "type": "uint64"
        },
        {
          "internalType": "address",
          "name": "receiver",
          "type": "address"
        },
        {
          "internalType": "enum Balance.PayFeesIn",
          "name": "payFeesIn",
          "type": "uint8"
        }
      ],
      "name": "removeLendBalance",
      "outputs": [],
      "stateMutability": "nonpayable",
      "type": "function"
    },
    {
      "inputs": [
        {
          "internalType": "address",
          "name": "_tokenAddress",
          "type": "address"
        },
        {
          "internalType": "bool",
          "name": "_allowed",
          "type": "bool"
        }
      ],
      "name": "setAllowedToken",
      "outputs": [],
      "stateMutability": "nonpayable",
      "type": "function"
    },
    {
      "inputs": [
        {
          "internalType": "address",
          "name": "_tokenAddress",
          "type": "address"
        },
        {
          "internalType": "bool",
          "name": "_allowed",
          "type": "bool"
        }
      ],
      "name": "setIsEthereum",
      "outputs": [],
      "stateMutability": "nonpayable",
      "type": "function"
    },
    {
      "inputs": [
        {
          "internalType": "uint256",
          "name": "_newThreshold",
          "type": "uint256"
        }
      ],
      "name": "setThreshold",
      "outputs": [],
      "stateMutability": "nonpayable",
      "type": "function"
    },
    {
      "inputs": [],
      "name": "threshold",
      "outputs": [
        {
          "internalType": "uint256",
          "name": "",
          "type": "uint256"
        }
      ],
      "stateMutability": "view",
      "type": "function"
    },
    {
      "inputs": [
        {
          "internalType": "address",
          "name": "",
          "type": "address"
        },
        {
          "internalType": "address",
          "name": "",
          "type": "address"
        }
      ],
      "name": "userBorrowTokenBalance",
      "outputs": [
        {
          "internalType": "uint256",
          "name": "",
          "type": "uint256"
        }
      ],
      "stateMutability": "view",
      "type": "function"
    },
    {
      "inputs": [
        {
          "internalType": "address",
          "name": "",
          "type": "address"
        }
      ],
      "name": "userLendBalance",
      "outputs": [
        {
          "internalType": "uint256",
          "name": "",
          "type": "uint256"
        }
      ],
      "stateMutability": "view",
      "type": "function"
    },
    {
      "inputs": [
        {
          "internalType": "address",
          "name": "",
          "type": "address"
        },
        {
          "internalType": "address",
          "name": "",
          "type": "address"
        }
      ],
      "name": "userLendTokenBalance",
      "outputs": [
        {
          "internalType": "uint256",
          "name": "",
          "type": "uint256"
        }
      ],
      "stateMutability": "view",
      "type": "function"
    }
  ],
  "bytecode": {
    "object": "0x60c060405260506001553480156200001657600080fd5b506040516200180838038062001808833981016040819052620000399162000082565b600080546001600160a01b0319166001600160a01b039485161790559082166080521660a052620000cc565b80516001600160a01b03811681146200007d57600080fd5b919050565b6000806000606084860312156200009857600080fd5b620000a38462000065565b9250620000b36020850162000065565b9150620000c36040850162000065565b90509250925092565b60805160a0516116d062000138600039600081816108d101528181610a0801528181611054015261118b015260008181610918015281816109d901528181610a8d01528181610b250152818161109b0152818161115c0152818161121001526112a801526116d06000f3fe608060405234801561001057600080fd5b50600436106101585760003560e01c806386e36267116100c3578063a2fb342d1161007c578063a2fb342d14610358578063a824ed4f1461036b578063b206d8f01461038b578063cbf45241146103c4578063e09e4ac0146103ef578063ef4e6a421461041857600080fd5b806386e36267146102c25780638aaa2284146102e55780638da5cb5b146102f8578063960bfe041461030b57806398041a3e1461031e5780639c675eaa1461034757600080fd5b806342cde4e81161011557806342cde4e81461021457806348f0f7cc1461021d5780634d73e9ba1461023057806375151b6314610250578063756742f81461028c5780637c17d237146102af57600080fd5b806329137abc1461015d578063294a55121461018357806329c0b23a146101ae578063350287ab146101c157806340ec0ca8146101d657806341c4258f146101e9575b600080fd5b61017061016b36600461134e565b61042b565b6040519081526020015b60405180910390f35b610196610191366004611381565b610458565b6040516001600160a01b03909116815260200161017a565b6101706101bc36600461139a565b610482565b6101d46101cf3660046113cd565b6104ae565b005b6101d46101e4366004611404565b610504565b6101706101f736600461134e565b600260209081526000928352604080842090915290825290205481565b61017060015481565b6101d461022b36600461142e565b610663565b61017061023e36600461139a565b60066020526000908152604090205481565b61027c61025e36600461139a565b6001600160a01b031660009081526007602052604090205460ff1690565b604051901515815260200161017a565b61027c61029a36600461139a565b60076020526000908152604090205460ff1681565b6101706102bd36600461139a565b610bb0565b61027c6102d036600461139a565b60046020526000908152604090205460ff1681565b6101d46102f33660046113cd565b610be1565b600054610196906001600160a01b031681565b6101d4610319366004611381565b610c79565b61017061032c36600461139a565b6001600160a01b031660009081526006602052604090205490565b6000546001600160a01b0316610196565b6101d4610366366004611404565b610ca9565b61017061037936600461139a565b60036020526000908152604090205481565b61017061039936600461134e565b6001600160a01b03918216600090815260026020908152604080832093909416825291909152205490565b6101706103d236600461134e565b600560209081526000928352604080842090915290825290205481565b6101706103fd36600461139a565b6001600160a01b031660009081526003602052604090205490565b6101d461042636600461142e565b610e3d565b6001600160a01b038083166000908152600560209081526040808320938516835292905220545b92915050565b6008818154811061046857600080fd5b6000918252602090912001546001600160a01b0316905081565b6001600160a01b0381166000908152600660205260408120546104a483610bb0565b61045291906114b9565b6000546001600160a01b031633146104d95760405163766ade3560e01b815260040160405180910390fd5b6001600160a01b03919091166000908152600460205260409020805460ff1916911515919091179055565b6001600160a01b03821660009081526004602052604081205460ff16156105a05760405163518fe24f60e01b81526004810183905273__$a6530bd5f06d2d0657cdfb077130bb6c10$__9063518fe24f90602401602060405180830381865af4158015610575573d6000803e3d6000fd5b505050506040513d601f19601f8201168201806040525081019061059991906114cc565b90506105a3565b50805b336000908152600660205260409020546064906105c19060056114e5565b6105cb91906114fc565b8110156105eb5760405163699d415b60e11b815260040160405180910390fd5b60085460005b8181101561064c57336000908152600560205260408120600880548391908590811061061f5761061f61151e565b60009182526020808320909101546001600160a01b031683528201929092526040019020556001016105f1565b505033600090815260066020526040812055505050565b6001600160a01b038516600090815260076020526040902054859060ff161561069f57604051630859dc9b60e31b815260040160405180910390fd5b6001600160a01b03861660009081526004602052604081205460ff161561073b5760405163518fe24f60e01b81526004810187905273__$a6530bd5f06d2d0657cdfb077130bb6c10$__9063518fe24f90602401602060405180830381865af4158015610710573d6000803e3d6000fd5b505050506040513d601f19601f8201168201806040525081019061073491906114cc565b905061073e565b50845b3360009081526002602090815260408083206001600160a01b038b1684529091529020548611156107825760405163e3ba12af60e01b815260040160405180910390fd5b3360009081526002602090815260408083206001600160a01b038b168452909152812080548892906107b59084906114b9565b909155505033600090815260036020526040812080548392906107d99084906114b9565b90915550506040805160a081019091526001600160a01b03851660c08201526000908060e0810160408051808303601f19018152918152908252516001600160a01b038b166024820152604481018a905260209091019060640160408051601f19818403018152919052602080820180516001600160e01b03166350eb619960e01b1790529082520160006040519080825280602002602001820160405280156108a957816020015b60408051808201909152600080825260208201528152602001906001900390816108825790505b50815260200160018660018111156108c3576108c3611534565b146108cf5760006108f1565b7f00000000000000000000000000000000000000000000000000000000000000005b6001600160a01b0316815260200160405180602001604052806000815250815250905060007f00000000000000000000000000000000000000000000000000000000000000006001600160a01b03166320487ded88846040518363ffffffff1660e01b8152600401610964929190611590565b602060405180830381865afa158015610981573d6000803e3d6000fd5b505050506040513d601f19601f820116820180604052508101906109a591906114cc565b9050600060018660018111156109bd576109bd611534565b03610b0e5760405163095ea7b360e01b81526001600160a01b037f000000000000000000000000000000000000000000000000000000000000000081166004830152602482018490527f0000000000000000000000000000000000000000000000000000000000000000169063095ea7b3906044016020604051808303816000875af1158015610a51573d6000803e3d6000fd5b505050506040513d601f19601f82011682018060405250810190610a75919061166a565b506040516396f4e9f960e01b81526001600160a01b037f000000000000000000000000000000000000000000000000000000000000000016906396f4e9f990610ac4908b908790600401611590565b6020604051808303816000875af1158015610ae3573d6000803e3d6000fd5b505050506040513d601f19601f82011682018060405250810190610b0791906114cc565b9050610ba4565b6040516396f4e9f960e01b81526001600160a01b037f000000000000000000000000000000000000000000000000000000000000000016906396f4e9f9908490610b5e908c908890600401611590565b60206040518083038185885af1158015610b7c573d6000803e3d6000fd5b50505050506040513d601f19601f82011682018060405250810190610ba191906114cc565b90505b50505050505050505050565b6001600160a01b038116600090815260036020526040812054606490610bd79060506114e5565b61045291906114fc565b6000546001600160a01b03163314610c0c5760405163766ade3560e01b815260040160405180910390fd5b6001600160a01b03919091166000818152600760205260408120805460ff1916931515939093179092556008805460018101825592527ff3f7a9fe364faab93b216da50a3214154f22a0a2b415b23a84c8169e8b636ee390910180546001600160a01b0319169091179055565b6000546001600160a01b03163314610ca45760405163766ade3560e01b815260040160405180910390fd5b600155565b3360009081526002602090815260408083206001600160a01b038616845290915281208054839290610cdc908490611687565b90915550506001600160a01b03821660009081526004602052604090205460ff1615610da05760405163518fe24f60e01b81526004810182905273__$a6530bd5f06d2d0657cdfb077130bb6c10$__9063518fe24f90602401602060405180830381865af4158015610d52573d6000803e3d6000fd5b505050506040513d601f19601f82011682018060405250810190610d7691906114cc565b3360009081526003602052604081208054909190610d95908490611687565b90915550610e399050565b60405163518fe24f60e01b81526004810182905273__$a6530bd5f06d2d0657cdfb077130bb6c10$__9063518fe24f90602401602060405180830381865af4158015610df0573d6000803e3d6000fd5b505050506040513d601f19601f82011682018060405250810190610e1491906114cc565b3360009081526003602052604081208054909190610e33908490611687565b90915550505b5050565b6001600160a01b03851660009081526004602052604081205460ff1615610ed95760405163518fe24f60e01b81526004810186905273__$a6530bd5f06d2d0657cdfb077130bb6c10$__9063518fe24f90602401602060405180830381865af4158015610eae573d6000803e3d6000fd5b505050506040513d601f19601f82011682018060405250810190610ed291906114cc565b9050610edc565b50835b610ee533610482565b811115610f055760405163031c684760e21b815260040160405180910390fd5b3360009081526005602090815260408083206001600160a01b038a16845290915281208054879290610f38908490611687565b90915550503360009081526006602052604081208054839290610f5c908490611687565b90915550506040805160a081019091526001600160a01b03841660c08201526000908060e0810160408051808303601f19018152918152908252516001600160a01b038a1660248201526044810189905260209091019060640160408051601f19818403018152919052602080820180516001600160e01b03166316a46ce760e21b17905290825201600060405190808252806020026020018201604052801561102c57816020015b60408051808201909152600080825260208201528152602001906001900390816110055790505b508152602001600185600181111561104657611046611534565b14611052576000611074565b7f00000000000000000000000000000000000000000000000000000000000000005b6001600160a01b0316815260200160405180602001604052806000815250815250905060007f00000000000000000000000000000000000000000000000000000000000000006001600160a01b03166320487ded87846040518363ffffffff1660e01b81526004016110e7929190611590565b602060405180830381865afa158015611104573d6000803e3d6000fd5b505050506040513d601f19601f8201168201806040525081019061112891906114cc565b90506000600185600181111561114057611140611534565b036112915760405163095ea7b360e01b81526001600160a01b037f000000000000000000000000000000000000000000000000000000000000000081166004830152602482018490527f0000000000000000000000000000000000000000000000000000000000000000169063095ea7b3906044016020604051808303816000875af11580156111d4573d6000803e3d6000fd5b505050506040513d601f19601f820116820180604052508101906111f8919061166a565b506040516396f4e9f960e01b81526001600160a01b037f000000000000000000000000000000000000000000000000000000000000000016906396f4e9f990611247908a908790600401611590565b6020604051808303816000875af1158015611266573d6000803e3d6000fd5b505050506040513d601f19601f8201168201806040525081019061128a91906114cc565b9050611327565b6040516396f4e9f960e01b81526001600160a01b037f000000000000000000000000000000000000000000000000000000000000000016906396f4e9f99084906112e1908b908890600401611590565b60206040518083038185885af11580156112ff573d6000803e3d6000fd5b50505050506040513d601f19601f8201168201806040525081019061132491906114cc565b90505b505050505050505050565b80356001600160a01b038116811461134957600080fd5b919050565b6000806040838503121561136157600080fd5b61136a83611332565b915061137860208401611332565b90509250929050565b60006020828403121561139357600080fd5b5035919050565b6000602082840312156113ac57600080fd5b6113b582611332565b9392505050565b80151581146113ca57600080fd5b50565b600080604083850312156113e057600080fd5b6113e983611332565b915060208301356113f9816113bc565b809150509250929050565b6000806040838503121561141757600080fd5b61142083611332565b946020939093013593505050565b600080600080600060a0868803121561144657600080fd5b61144f86611332565b945060208601359350604086013567ffffffffffffffff8116811461147357600080fd5b925061148160608701611332565b915060808601356002811061149557600080fd5b809150509295509295909350565b634e487b7160e01b600052601160045260246000fd5b81810381811115610452576104526114a3565b6000602082840312156114de57600080fd5b5051919050565b8082028115828204841417610452576104526114a3565b60008261151957634e487b7160e01b600052601260045260246000fd5b500490565b634e487b7160e01b600052603260045260246000fd5b634e487b7160e01b600052602160045260246000fd5b6000815180845260005b8181101561157057602081850181015186830182015201611554565b506000602082860101526020601f19601f83011685010191505092915050565b6000604067ffffffffffffffff8516835260208181850152845160a0838601526115bd60e086018261154a565b905081860151603f19808784030160608801526115da838361154a565b88860151888203830160808a01528051808352908601945060009350908501905b8084101561162d57845180516001600160a01b03168352860151868301529385019360019390930192908601906115fb565b5060608901516001600160a01b031660a08901526080890151888203830160c08a0152955061165c818761154a565b9a9950505050505050505050565b60006020828403121561167c57600080fd5b81516113b5816113bc565b80820180821115610452576104526114a356fea264697066735822122002335fbf7c09e1671b809a5d1d10f8992427cec3ca271d808324e3768a37e12464736f6c63430008130033",
    "linkReferences": {
      "src/PriceConverter.sol": {
        "PriceConverter": [
          {
            "start": 1651,
            "length": 20
          },
          {
            "start": 2062,
            "length": 20
          },
          {
            "start": 3664,
            "length": 20
          },
          {
            "start": 3822,
            "length": 20
          },
          {
            "start": 4012,
            "length": 20
          }
        ]
      }
    }
  },
  "methodIdentifiers": {
    "allowedToken(address)": "756742f8",
    "allowedTokenArray(uint256)": "294a5512",
    "borrow(address,uint256,uint64,address,uint8)": "ef4e6a42",
    "borrowBalance(address)": "4d73e9ba",
    "getAlreadyBorrowed(address)": "98041a3e",
    "getBorrowLimit(address)": "7c17d237",
    "getBorrowLimitLeft(address)": "29c0b23a",
    "getBorrowTokenAmount(address,address)": "29137abc",
    "getUserLendAmount(address)": "e09e4ac0",
    "getUserLendTokenAmount(address,address)": "b206d8f0",
    "isEthereum(address)": "86e36267",
    "isTokenSupported(address)": "75151b63",
    "lend(address,uint256)": "a2fb342d",
    "owner()": "8da5cb5b",
    "ownerAddr()": "9c675eaa",
    "rePayFull(address,uint256)": "40ec0ca8",
    "removeLendBalance(address,uint256,uint64,address,uint8)": "48f0f7cc",
    "setAllowedToken(address,bool)": "8aaa2284",
    "setIsEthereum(address,bool)": "350287ab",
    "setThreshold(uint256)": "960bfe04",
    "threshold()": "42cde4e8",
    "userBorrowTokenBalance(address,address)": "cbf45241",
    "userLendBalance(address)": "a824ed4f",
    "userLendTokenBalance(address,address)": "41c4258f"
  },
  "id": 9
}