{
  "abi": [
    {
      "inputs": [
        {
          "internalType": "address",
          "name": "_router",
          "type": "address"
        },
        {
          "internalType": "address",
          "name": "_sourceContract",
          "type": "address"
        }
      ],
      "stateMutability": "nonpayable",
      "type": "constructor"
    },
    {
      "inputs": [
        {
          "internalType": "address",
          "name": "router",
          "type": "address"
        }
      ],
      "name": "InvalidRouter",
      "type": "error"
    },
    {
      "inputs": [
        {
          "components": [
            {
              "internalType": "bytes32",
              "name": "messageId",
              "type": "bytes32"
            },
            {
              "internalType": "uint64",
              "name": "sourceChainSelector",
              "type": "uint64"
            },
            {
              "internalType": "bytes",
              "name": "sender",
              "type": "bytes"
            },
            {
              "internalType": "bytes",
              "name": "data",
              "type": "bytes"
            },
            {
              "components": [
                {
                  "internalType": "address",
                  "name": "token",
                  "type": "address"
                },
                {
                  "internalType": "uint256",
                  "name": "amount",
                  "type": "uint256"
                }
              ],
              "internalType": "struct Client.EVMTokenAmount[]",
              "name": "destTokenAmounts",
              "type": "tuple[]"
            }
          ],
          "internalType": "struct Client.Any2EVMMessage",
          "name": "message",
          "type": "tuple"
        }
      ],
      "name": "ccipReceive",
      "outputs": [],
      "stateMutability": "nonpayable",
      "type": "function"
    },
    {
      "inputs": [],
      "name": "getRouter",
      "outputs": [
        {
          "internalType": "address",
          "name": "",
          "type": "address"
        }
      ],
      "stateMutability": "view",
      "type": "function"
    },
    {
      "inputs": [
        {
          "internalType": "bytes4",
          "name": "interfaceId",
          "type": "bytes4"
        }
      ],
      "name": "supportsInterface",
      "outputs": [
        {
          "internalType": "bool",
          "name": "",
          "type": "bool"
        }
      ],
      "stateMutability": "pure",
      "type": "function"
    }
  ],
  "bytecode": {
    "object": "0x60a060405234801561001057600080fd5b5060405161061b38038061061b83398101604081905261002f916100a6565b816001600160a01b03811661005e576040516335fdcccd60e21b81526000600482015260240160405180910390fd5b6001600160a01b03908116608052600080546001600160a01b03191692909116919091179055506100d9565b80516001600160a01b03811681146100a157600080fd5b919050565b600080604083850312156100b957600080fd5b6100c28361008a565b91506100d06020840161008a565b90509250929050565b6080516105226100f9600039600081816090015260fc01526105226000f3fe608060405234801561001057600080fd5b50600436106100415760003560e01c806301ffc9a71461004657806385572ffb1461006e578063b0f479a114610083575b600080fd5b6100596100543660046101ca565b6100ba565b60405190151581526020015b60405180910390f35b61008161007c3660046101fb565b6100f1565b005b6040516001600160a01b037f0000000000000000000000000000000000000000000000000000000000000000168152602001610065565b60006001600160e01b031982166385572ffb60e01b14806100eb57506001600160e01b031982166301ffc9a760e01b145b92915050565b336001600160a01b037f00000000000000000000000000000000000000000000000000000000000000001614610140576040516335fdcccd60e21b815233600482015260240160405180910390fd5b61015161014c82610410565b610154565b50565b6000805460608301516040516001600160a01b039092169161017691906104bd565b6000604051808303816000865af19150503d80600081146101b3576040519150601f19603f3d011682016040523d82523d6000602084013e6101b8565b606091505b50509050806101c657600080fd5b5050565b6000602082840312156101dc57600080fd5b81356001600160e01b0319811681146101f457600080fd5b9392505050565b60006020828403121561020d57600080fd5b813567ffffffffffffffff81111561022457600080fd5b820160a081850312156101f457600080fd5b634e487b7160e01b600052604160045260246000fd5b6040805190810167ffffffffffffffff8111828210171561026f5761026f610236565b60405290565b60405160a0810167ffffffffffffffff8111828210171561026f5761026f610236565b604051601f8201601f1916810167ffffffffffffffff811182821017156102c1576102c1610236565b604052919050565b803567ffffffffffffffff811681146102e157600080fd5b919050565b600082601f8301126102f757600080fd5b813567ffffffffffffffff81111561031157610311610236565b610324601f8201601f1916602001610298565b81815284602083860101111561033957600080fd5b816020850160208301376000918101602001919091529392505050565b600082601f83011261036757600080fd5b8135602067ffffffffffffffff82111561038357610383610236565b610391818360051b01610298565b82815260069290921b840181019181810190868411156103b057600080fd5b8286015b8481101561040557604081890312156103cd5760008081fd5b6103d561024c565b81356001600160a01b03811681146103ed5760008081fd5b815281850135858201528352918301916040016103b4565b509695505050505050565b600060a0823603121561042257600080fd5b61042a610275565b8235815261043a602084016102c9565b6020820152604083013567ffffffffffffffff8082111561045a57600080fd5b610466368387016102e6565b6040840152606085013591508082111561047f57600080fd5b61048b368387016102e6565b606084015260808501359150808211156104a457600080fd5b506104b136828601610356565b60808301525092915050565b6000825160005b818110156104de57602081860181015185830152016104c4565b50600092019182525091905056fea264697066735822122005ffaea9e321ba5a5032cd201887c97103cf3894b93c02085948974f2fb30f8a64736f6c63430008130033",
    "linkReferences": {}
  },
  "methodIdentifiers": {
    "ccipReceive((bytes32,uint64,bytes,bytes,(address,uint256)[]))": "85572ffb",
    "getRouter()": "b0f479a1",
    "supportsInterface(bytes4)": "01ffc9a7"
  },
  "id": 33
}