{
  "abi": [
    {
      "inputs": [],
      "stateMutability": "nonpayable",
      "type": "constructor"
    },
    {
      "inputs": [
        {
          "internalType": "enum Helper.SupportedNetworks",
          "name": "enumValue",
          "type": "uint8"
        }
      ],
      "name": "networks",
      "outputs": [
        {
          "internalType": "string",
          "name": "humanReadableName",
          "type": "string"
        }
      ],
      "stateMutability": "view",
      "type": "function"
    }
  ],
  "bytecode": {
    "object": "0x608060405234801561001057600080fd5b5060408051808201909152601081526f457468657265756d205365706f6c696160801b602080830191909152600080805290527fad3228b676f7d3cd4284a5443f17f1962b36e491b30a40b2405849e597ba5fb59061006f9082610351565b5060408051808201909152600f81526e4f7074696d69736d20476f65726c6960881b6020808301919091526001600090815290527fada5013122d395ba3c54772283fb069b10426056ef8ca54750cb9bb552a59e7d906100cf9082610351565b5060408051808201909152600e81526d4176616c616e6368652046756a6960901b6020808301919091526002600090815290527fabbb5caa7dda850e60932de0934eb1f9d0f59695050f761dc64e443e5030a5699061012e9082610351565b5060408051808201909152601081526f417262697472756d205365706f6c696160801b6020808301919091526003600090815290527f101e368776582e57ab3d116ffe2517c0a585cd5b23174b01e275c2d8329c3d839061018f9082610351565b5060408051808201909152600e81526d506f6c79676f6e204d756d62616960901b6020808301919091526004600090815290527f52d75039926638d3c558b2bdefb945d5be8dae29dedd1c313212a4d472d9fde5906101ee9082610351565b506040805180820190915260118152701093908810da185a5b8815195cdd1b995d607a1b6020808301919091526005600090815290527f2b232c97452f0950c94e2539fdc7e69d21166113cf7a9bcb99b220a3fe5d720a906102509082610351565b5060408051808201909152600b81526a4261736520476f65726c6960a81b6020808301919091526006600090815290527f62103cf3131c85df57aad364d21cba02556d3092d6cb54c298c2e7726a7870bd906102ac9082610351565b50610410565b634e487b7160e01b600052604160045260246000fd5b600181811c908216806102dc57607f821691505b6020821081036102fc57634e487b7160e01b600052602260045260246000fd5b50919050565b601f82111561034c57600081815260208120601f850160051c810160208610156103295750805b601f850160051c820191505b8181101561034857828155600101610335565b5050505b505050565b81516001600160401b0381111561036a5761036a6102b2565b61037e8161037884546102c8565b84610302565b602080601f8311600181146103b3576000841561039b5750858301515b600019600386901b1c1916600185901b178555610348565b600085815260208120601f198616915b828110156103e2578886015182559484019460019091019084016103c3565b50858210156104005787850151600019600388901b60f8161c191681555b5050505050600190811b01905550565b6101d98061041f6000396000f3fe608060405234801561001057600080fd5b506004361061002b5760003560e01c80638a21e63914610030575b600080fd5b61004361003e3660046100f3565b610059565b604051610050919061011b565b60405180910390f35b6000602081905290815260409020805461007290610169565b80601f016020809104026020016040519081016040528092919081815260200182805461009e90610169565b80156100eb5780601f106100c0576101008083540402835291602001916100eb565b820191906000526020600020905b8154815290600101906020018083116100ce57829003601f168201915b505050505081565b60006020828403121561010557600080fd5b81356007811061011457600080fd5b9392505050565b600060208083528351808285015260005b818110156101485785810183015185820160400152820161012c565b506000604082860101526040601f19601f8301168501019250505092915050565b600181811c9082168061017d57607f821691505b60208210810361019d57634e487b7160e01b600052602260045260246000fd5b5091905056fea2646970667358221220a4f029deb31457c704bf2c28793b5b88c7d908e8d2cab61d357a57bb5030722e64736f6c63430008130033",
    "linkReferences": {}
  },
  "methodIdentifiers": {
    "networks(uint8)": "8a21e639"
  },
  "id": 24
}