{
  "abi": [
    {
      "inputs": [
        {
          "internalType": "uint256",
          "name": "ethAmount",
          "type": "uint256"
        }
      ],
      "name": "getEthInUsd",
      "outputs": [
        {
          "internalType": "uint256",
          "name": "",
          "type": "uint256"
        }
      ],
      "stateMutability": "view",
      "type": "function"
    },
    {
      "inputs": [],
      "name": "getPrice",
      "outputs": [
        {
          "internalType": "uint256",
          "name": "",
          "type": "uint256"
        }
      ],
      "stateMutability": "view",
      "type": "function"
    }
  ],
  "bytecode": {
    "object": "0x61028561003a600b82828239805160001a60731461002d57634e487b7160e01b600052600060045260246000fd5b30600052607381538281f3fe73000000000000000000000000000000000000000030146080604052600436106100405760003560e01c8063518fe24f1461004557806398d5fdca1461006a575b600080fd5b610058610053366004610142565b610072565b60405190815260200160405180910390f35b6100586100a6565b60008061007d6100a6565b90506000670de0b6b3a76400006100948584610171565b61009e919061018e565b949350505050565b60008073694aa1769357215de4fac081bf1f309adc32530690506000816001600160a01b031663feaf968c6040518163ffffffff1660e01b815260040160a060405180830381865afa158015610100573d6000803e3d6000fd5b505050506040513d601f19601f8201168201806040525081019061012491906101cf565b505050915050806402540be40061013b919061021f565b9250505090565b60006020828403121561015457600080fd5b5035919050565b634e487b7160e01b600052601160045260246000fd5b80820281158282048414176101885761018861015b565b92915050565b6000826101ab57634e487b7160e01b600052601260045260246000fd5b500490565b805169ffffffffffffffffffff811681146101ca57600080fd5b919050565b600080600080600060a086880312156101e757600080fd5b6101f0866101b0565b9450602086015193506040860151925060608601519150610213608087016101b0565b90509295509295909350565b80820260008212600160ff1b8414161561023b5761023b61015b565b81810583148215176101885761018861015b56fea264697066735822122099049c3d63d3a8e13be522c179e9c01f2150910e4d86dbbe07085cf7a44df94364736f6c63430008130033",
    "linkReferences": {}
  },
  "methodIdentifiers": {
    "getEthInUsd(uint256)": "518fe24f",
    "getPrice()": "98d5fdca"
  },
  "id": 5
}